:020000040800F2
:10280000480901206929000829650008555B00086E
:10281000836300084F450008DD91000800000000B8
:10282000000000000000000000000000EF7F000832
:10283000A156000800000000596800084581000802
:1028400083290008832900088329000883290008B8
:1028500083290008832900088329000883290008A8
:102860008329000883290008832900088329000898
:102870008329000883290008832900088329000888
:10288000832900088329000883290008C14600081D
:10289000514500088329000855460008832900088F
:1028A0008329000883290008832900088329000858
:1028B000B581000883290008DD810008832900080C
:1028C0008329000883290008832900088329000838
:1028D000832900086188000855890008658A000876
:1028E000FD56000883290008832900080000000025
:1028F00000000000000000000000000000000000D8
:10290000000000000000000083290008832900085F
:102910007D8600087187000801820008832900086D
:1029200083290008832900088329000883290008D7
:10293000832900088329000883290008B548000876
:102940004547000883290008494800081167000826
:10295000DFF810D000F026FE00480047F99A010881
:10296000AFF3008048090120064880470648004729
:10297000FEE7FEE7FEE7FEE7FEE7FEE7FEE7FEE72F
:10298000FEE7FEE759810008512900080649074A79
:102990000868504343F23902104408604008704709
:1029A0000149086070470000B00A00206D4EC64122
:1029B00040EA01039B0703D009E008C9121F08C0C1
:1029C000042AFAD203E011F8013B00F8013B521E41
:1029D000F9D27047D2B201E000F8012B491EFBD2B8
:1029E00070470022F6E710B513460A46044619461A
:1029F000FFF7F0FF204610BD421C10F8011B002914
:102A0000FBD1801A704730B504460020034600E031
:102A10005B1C934203D2E05CCD5C401BF8D030BD20
:102A2000034611F8012B00F8012B002AF9D11846B2
:102A30007047000070B50F4D00B92868002412E0FF
:102A40000A4602E09E4203D0521C1378002BF9D1B3
:102A5000DAB2224305D02BB124B1002100F8011BCA
:102A600004E00446401C0678002EE9D12860204688
:102A700070BD0000B40A00200FB400B58DB010A9DD
:102A800009900B9000914FF0FF300A9000200C90BD
:102A900005480690054807906A4609A80F9900F076
:102AA000A1FB0DB05DF814FB013200081F320008D5
:102AB0002DE9FF5FD2E901A74FF00008916999461F
:102AC0001446DDF838B0464601988847054659EA6D
:102AD0000B0005D009E0A169761C019888470546DE
:102AE000216A284688470028F5D1681C03D05FEA90
:102AF000CA7005D015E04FF0FF3004B0BDE8F09F7C
:102B00002068011D2160D0F800800AE05FEACA70E9
:102B100001D108F8015BA169761C7F1E01988847E6
:102B20000546002F1ADD681C18D0B9F1000F0DD032
:102B3000E81705EBD060421120F01F0059F8221071
:102B40002A1A012090400142E0D107E0BBF1000FBA
:102B5000DCD1216A284688470028D7D0E16901984E
:102B60008847BBF1000F07D1002E05DD5FEACA7070
:102B700002D1002188F80010A068B84203DDBBF143
:102B8000000F03D017B16FF00100B6E73046B4E78D
:102B900070B5064606F088FB046805460A22002147
:102BA000304600F09BFB2C6070BD70B5064606F009
:102BB0007BFB046805460A220021304600F08EFBAC
:102BC0002C6070BD80EA010210B502F000434000A5
:102BD00022D04A001FD0010E01EB1261C0F3560053
:102BE000C2F3560240F4000042F40002A0FB0220AF
:102BF00000047F39140400D0401C50EA124001D474
:102C00004000491EC2B20C0604EBD010401C400824
:102C1000802A02D003E0002010BD20F0010000292E
:102C200000DA0020184310BD30B480EA010202F03F
:102C3000004530F0004221F0004013D090B1C30DA8
:102C4000D40DC2F31601C0F31600E41A41F40001DA
:102C500040F400027D34914201D3641C00E049003D
:102C6000002C02DA30BC002070474FF40000002333
:102C7000914201D3891A034340084FEA4101F7D139
:102C800051B1914202D14FF0004105E002D24FF024
:102C9000010101E06FF0010103EBC450284430BC96
:102CA00000F054BB2DE9FE4F804681EA0300C00FBF
:102CB0000C46009021F0004123F00045B8EB0200E3
:102CC000A94105D24046214690461C460B46024685
:102CD00023F00040104347D0270DC7F30A00C3F389
:102CE0000A510290401A019040286BDAC3F3130096
:102CF00040F4801B0098924620B10023D2EB030AD7
:102D000063EB0B0B01985946C0F14002504600F0AE
:102D100032FA06460D4650465946019A00F04AFAE4
:102D200010EB08006141002487EA115284EAE7733E
:102D30001A4340D0009A62B3019A012A4FEA07521F
:102D400015DC001B61EB02014FF0004202EA075262
:102D5000CDE90042001C41F5801132462B4600F0BF
:102D60003BFB03B0BDE8F08F40462146F9E7001B6E
:102D700061EB0201001C41F5801300185B41201833
:102D8000A2F5001747EB030140EAD570B6196D4173
:102D900011E06D084FEA360645EAC0754FEA075262
:102DA000001B61EB0201001C41F5801149084FEA4C
:102DB00030000019514132462B4603B0BDE8F04FB8
:102DC00000F0FBBA0098012240000023D0EB020281
:102DD00063EBE073009821464FEAE074B8EB000023
:102DE00061EB0401E9E783F000435BE781F0004118
:102DF00058E72DE9FE4F81EA030404F0004421F076
:102E0000004100944FF0000B23F0004350EA01040E
:102E10005ED052EA03045BD0C3F30A54C1F30A55EF
:102E20002C44A4F2F3340194A0FB0254C1F3130127
:102E300041F48011C3F3130343F4801301FB0244F4
:102E400000FB034E840A970A44EA815447EA8357F9
:102E5000A4FB076802958D0A05FB07854FEA932CB2
:102E600004FB0C542705029D4FEA065847EA163723
:102E7000B5EB08056EEB070C870E920E47EA81173B
:102E800042EA8312A7FB0201B6EB0B0164EB0004DC
:102E90002B0D43EA0C335E1844EB1C50DA465146C6
:102EA000E7FB0201C5F313044FEA0B3343EA145363
:102EB0004FEA0432019C43EA0603A4F10C04029495
:102EC000009CCDE900B400F087FA03B0BDE8F08FB4
:102ED00000200146F9E72DE9F04D81EA030404F0F2
:102EE000004B21F0004514464FF0000A23F000414A
:102EF00050EA050220D054EA01021DD0C5F30A575A
:102F00000246C5F31303C1F31300C1F30A5640F49C
:102F1000801543F48013A7EB0608101BD64608F271
:102F2000FD3873EB050002D308F1010801E09218A7
:102F30005B41B8F1000F03DA00200146BDE8F08DD7
:102F400000204FF48011064684460EE0171B73EBF9
:102F5000050705D3121B63EB050306434CEA010C7E
:102F600049084FEA300092185B4150EA0107EDD161
:102F700052EA030012D082EA040083EA0501084302
:102F800005D0101BAB4106D20122002306E000222F
:102F90004FF0004302E06FF0010253101AEB0600FD
:102FA0004CEB085110EB0A0041EB0B01BDE8F04D72
:102FB00000F003BAC10F80EAE0700844CA07962304
:102FC000002100F0CCB996230022114600F0C7B9C9
:102FD0000EB5C10F80EAE0700844CA07002140F234
:102FE00033438DE80E000A460B4600F0F5F903B0B6
:102FF00000BD20F00040C10DC0F3160040F40000F9
:103000007F2901DA00207047962903DCC1F196017F
:10301000C840704796398840704770B5C1F30A526E
:1030200001F000450024C1F3130140F2FF3341F4E5
:1030300080119A4201DA002070BD40F233439A4277
:10304000A2F2334203DC524200F0A4F800E09040C8
:103050002C43F1D0404270BDC1F30A5210B5C1F308
:10306000130140F2FF3341F480119A4201DA00204B
:1030700010BD40F233439A42A2F2334203DC524283
:1030800000F088F810BD904010BD00F0004230F014
:1030900000400AD0C10D01F56071C0F3160042EA8C
:1030A0000151C20840071143704700200146704794
:1030B00001F0004330B421F0004150EA010206D093
:1030C0000A0DA2F56072C1F31301002A02DC30BCC4
:1030D00000207047440F44EAC104C100E01830BC2E
:1030E00000EBC25000F032B930B50B46014600206B
:1030F0002022012409E021FA02F59D4205D303FABA
:1031000002F5491B04FA02F52844151EA2F101023A
:10311000F1DC30BD2DE9F05F0546002092469B466C
:1031200088460646814640241BE0284641464746DD
:10313000224600F02FF853465A46C01A914110D348
:1031400011461846224600F016F82D1A67EB0108C2
:103150004F4622460120002100F00DF817EB000930
:103160004E41201EA4F10104DFDC484631462A46C8
:103170004346BDE8F09F202A04DB203A00FA02F122
:10318000002070479140C2F1200320FA03F3194355
:1031900090407047202A04DB203A21FA02F00021F7
:1031A000704721FA02F3D040C2F120029140084357
:1031B00019467047202A06DBCB17203A41FA02F065
:1031C00043EAE07306E041FA02F3D040C2F1200284
:1031D0009140084319467047026811441378016012
:1031E00018467047D16004495161044911620021B9
:1031F0001161114600F0F6B9D9310008D135000847
:10320000426842B1016811F8013B23B1521EC0E986
:103210000012184670470121C160881E704742683D
:103220005AB1C368016843B983688B4205D0491E0F
:10323000521CC0E90012002070474FF0FF30704769
:103240000FB4002300B589B00CA900910B996FF061
:103250000042CB601E4B06931E4B07930423CDE91F
:1032600001321D4A089202466B46002000F0E6FB40
:1032700009B05DF814FB70B586B006464FF0FF301C
:103280000091CDE90101002015460C46049032461C
:10329000694604A8FFF7D4FF02460498211825B117
:1032A00008B1084600E020462860049800280DD0A8
:1032B000002A02DD0098884208D0081B0094CDE95E
:1032C00001043246694604A8FFF7BAFF06B070BD94
:1032D000013200081F320008D13500082DE9F047FF
:1032E00091460F4680460446002614F8015B2DB136
:1032F00000F06AF90068405DC007F6D12B2D02D0BE
:103300002D2D18D0641E4A463946204600F0B2FCE6
:1033100027B13968A14201D1C7F8008071054FF08B
:1033200002040BD54042002803DD05F0BDFF046018
:10333000A007BDE8F08746F48066E4E70028F8DAE5
:1033400005F0B2FF04606FF00040F2E70029A8BF6B
:103350007047401C490008BF20F00100704710B4BE
:10336000B0FA80FC00FA0CF050EA010404BF10BC73
:10337000704749B1CCF1200421FA04F411FA0CF1A0
:1033800018BF012121430843A3EB0C01CB1D4FEAD9
:1033900000614FEA102042BF002010BC704700EBD4
:1033A000C35010440029A4BF10BC7047401C490002
:1033B00008BF20F0010010BC704710B5141E73F157
:1033C000000408DA401C41F1000192185B411A43E5
:1033D00001D120F0010010BD2DE9F04D92469B4631
:1033E00011B1B1FA81F202E0B0FA80F220329046D7
:1033F000FFF7C1FE04460F4640EA0A0041EA0B010E
:1034000053465A46084313D0114653EA010019D0D7
:10341000C8F140025046FFF7BDFE05460E46504635
:1034200059464246FFF7A7FE084305D0012004E0B5
:1034300020463946BDE8F08D0020054346EAE07697
:103440002C4337430A986305E40AA0EB08000022E6
:10345000FD0A44EA47540A3002D500200146E9E754
:10346000010510196941DDE9084500196941BDE808
:10347000F04DA2E770B521F0004303430CD0C1F337
:103480000A550024D5EB040564EB0403D617AD1AE6
:10349000B34102DB0020014670BD201841EB025110
:1034A00070BD2DE9F04D00231A461B1A8A4103DB3B
:1034B00000200146BDE8F08DC1F30A52C1F31301AB
:1034C00041F480154FF0000BD10702D100186D4177
:1034D000521E0027044640F2FF11384601EB620AF3
:1034E0003E468046024600204FF48011FFF752FE10
:1034F000C2197141BB1846EB0100B4EB030C75EB2C
:10350000000C04D3E41A65EB000517460E46241997
:1035100008F101006D4180463428E3DDF91946EBDE
:103520000600091BA84103D24FF0FF32134601E009
:10353000002213461BEB070046EB0A51BDE8F04D95
:10354000FFF73BBFC1F30A52C1F3130140F2FF334F
:1035500041F480119A4202DA00200146704740F29D
:1035600033439A42A2F2334202DC5242FFF712BEC8
:10357000FFF701BE30B5041E71F1000404DB4FF00B
:103580000044404264EB0101141E73F1000405DBAA
:103590001C464FF00043524263EB0403994208BFBC
:1035A000904230BD064C074D06E0E06840F0010354
:1035B00094E8070098471034AC42F6D3FFF7CCF9F3
:1035C0007819030898190308004870471C05030878
:1035D00010B50446FFF7F8FF0068005D00F0010039
:1035E00010BD00002DE9F34F8BB04FF0000801F142
:1035F0000C000C464FF0010B46460DF1080A0190F5
:103600006269012101989047051E2DD0252D2CD0EF
:10361000216A8847C0B16269012101989047216AF7
:1036200088470028F7D1411E62690198904700E061
:10363000761CA1690B988847216A88470028F7D132
:10364000E1690B988847DBE7A1690B988847074633
:10365000A84201D1761CD3E7E1690B9888477F1C0B
:1036600002D1B8F1000F6FD047E1002762693D46F3
:103670003946019890472A2804D1626901210198AE
:1036800090470125DFF888926269012101989047EF
:10369000A0F130010A290AD24F45E5DC07EB87018A
:1036A00000EB4107303FDFD445F01005ECE7E906B9
:1036B00001D46FF000476C280AD04C2814D0682839
:1036C00015D06A280DD074281CD07A281AD01DE095
:1036D00062690121019890476C2802D045F00405E9
:1036E00014E045F002050DE045F020050AE06269AE
:1036F000012101989047682802D045F0080505E0AF
:1037000045F400656269012101989047C4E90157B9
:1037100065283DD019DC58287AD00CDC452837D0F4
:1037200004DC252826D0412831D131E046282FD08D
:1037300047282CD12CE05B2877D0612828D063283B
:103740007CD0642823D15AE0D1E06F2848D008DC2F
:1037500066281DD067281BD0692821D06E2816D175
:1037600027E0702845D0732868D0752847D078287E
:103770000DD14DE0A1690B988847054625283FF4F7
:1037800069AFE1690B9888476D1C3FF46AAFB4E0FC
:1037900023466A466FF001000B9900F04FF99FE055
:1037A00045F040006060A80723464FF0000236D481
:1037B0003EE0E8077FF447AF2068011D2160006804
:1037C000290501D506701BE7290701D5068017E7F3
:1037D000A90703D5F117C0E9006111E706600FE7FB
:1037E00045F040006060A80723464FF0080216D459
:1037F0001EE040F60E0125EA0100606016E045F08B
:1038000040006060A80723464FF00A0207D40FE08B
:1038100045F040006060A80708D5234610226FF0ED
:1038200001000B99AFF300805AE007E02346102215
:103830006FF001000B99AFF3008051E04FF00009E9
:103840004F464B46632802D05B2807D041E02079E1
:10385000C00601D40120A06001273AE0626901217D
:10386000019890475E2805D14FF0010962694946E9
:1038700001989047216939B900210A46534643F817
:103880002120491C0829FADBB0B3216969B9C117A5
:1038900000EBD16253110AEB830122F01F02821A5E
:1038A00001200B68904003430B606269012101987D
:1038B00090475D28E8D1B9F1000F09D000205146AA
:1038C00051F82020D24341F82020401C0828F7DB83
:1038D00002AB224600976FF001000B99FFF7E8F862
:1038E00000280CDA401C08D1BBF1000F05D04FF0C6
:1038F000FF300DB0BDE8F08FFFE74046F9E7E9077C
:1039000001D108F1010806444FF0000B78E60000F1
:10391000CCCCCC0C2DE9FF4F087883B09946FF281A
:1039200005D0491C2D2804D00024002008E00020E8
:103930000BE00124F9E700EB800003EB4000491C99
:103940000B78FF2BF7D104B1404200230293147887
:1039500019461D462D2C01D02B2C04D1521C2D2C88
:1039600013D000240294AA461478FF2C0FD00A2505
:10397000A3FB057801FB05814FF0000C03FB0C1144
:10398000521CE3194AEB0101EEE70124EAE7814406
:1039900053EA010002D019F5C87F06DA0398002126
:1039A000C0E9001107B0BDE8F08F0025AE4E2F46EC
:1039B000DFF8B882184600F0BAF9CDE90001B9F194
:1039C000000002DAC9F1000400E004460023A74A1F
:1039D0001AEB030B42EB045A12E0E00707D02A4629
:1039E000334638464146FFF704FA074688462A46DA
:1039F000334610461946FFF7FCF905460E4664109B
:103A0000002CEAD1DDE90001B9F1000F5A46534616
:103A100006DAFFF760FA3A464346FFF75CFA05E03C
:103A2000FFF7E7F93A464346FFF7E3F9029A0AB18E
:103A300081F00041039AC2E90001B3E72DE9FF4F8D
:103A40001F468DB0D7E901464FF0FF382E2045467E
:103A50004FF000090B90B9696D1C0E988847396AC0
:103A6000824688470028F6D1BAF1FF3F0AD024F4F5
:103A7000D064002E11DDBAF12B0F08D0BAF12D0F52
:103A80000BD102E0404611B08DE744F48064B9697F
:103A90006D1C0E9888478246761E6946600501D5E2
:103AA0002D2000E02B208DF8000001F1010B0DF11D
:103AB000200809E0B9696D1C0E98884782460F9866
:103AC00044F40074761E0560002E02DDBAF1300F5A
:103AD000F0D00B998A453ED144F0800406E00F995E
:103AE000681CA9F1010944F400740860B9696D1CEF
:103AF000761E0E98884782463028F0D02BE00B992E
:103B00008A4505D1200603D444F08004761E18E0CF
:103B1000504605F0D9FD08B30DF11301761E44F4AB
:103B200000748B4508D2AAF130000BF8010B200677
:103B300007D5A9F1010003E0200602D409F1010034
:103B40008146A00502D50F99681C0860B9696D1CF3
:103B50000E9888478246002ED1DC53E0002E51DDBE
:103B6000BAF1650F02D0BAF1450F4BD1A00549D586
:103B7000B9696D1C24F44074761E0E9888478246FD
:103B8000002E0CDD2B2804D0BAF12D0F07D144F400
:103B90008074B9696D1C0E9888478246761EE005D0
:103BA00001D52D2100E02B2108F8011BCDF82C8038
:103BB00021E00DF12901761E44F4007488450CD2F1
:103BC000AAF1300010F0FF0088F8000002D10B9934
:103BD000884509D908F1010806E0E00501D5244827
:103BE00001E042F20F708146B9696D1C0E9888475A
:103BF00082460F980560002E04DD504605F064FDF6
:103C00000028D6D1F9690E988847FF208BF800006C
:103C100088F800000020069007904B466A4608A9E5
:103C200006A8FFF777FEA00502D46FF001002AE78F
:103C300014F0240F0AD0E00714D1DDE90612386829
:103C4000031D3B600068C0E900120BE0DDE90601DE
:103C5000FFF72EFA0146E00704D13868021D3A60EA
:103C60000068016028460EE7000014400000F03FA5
:103C7000F1D8FFFF2DE9F05F824600780027154656
:103C80008B460AF10104B946302801D09DB113E0FA
:103C900014F8010B0127782803D0582801D045B12A
:103CA0000AE00DB1102D07D10027102514F8010BE3
:103CB00002E0082500E00A250026B0460EE005FBDC
:103CC000080005FB06F1012701EB10461FFA80F8FA
:103CD000B6F5803F00D3B94614F8010B294600F031
:103CE00018F80028EBDABBF1000F05D00FB1641E05
:103CF00000E05446CBF80040B9F1000F06D005F0C3
:103D0000D3FA02210160C81EBDE8F09F48EA0640D0
:103D1000FAE73A2800D2303820F02002412A01D3B5
:103D2000A2F13700884201D34FF0FF3070470EB543
:103D300040F2334202920022CDE900221346FFF7FF
:103D40004BFB03B000BD70B58C1810F8015B15F08B
:103D5000070301D110F8013B2A1106D110F8012BFD
:103D600003E010F8016B01F8016B5B1EF9D12B0722
:103D700005D40023521E0DD401F8013BFAE710F8D8
:103D8000013BCB1A921C03E013F8015B01F8015BC5
:103D9000521EF9D5A142D8D3002070BD38B50224F7
:103DA000ADF800408DF8024004208DF803000E4D60
:103DB0006946284601F00CFE4021ADF800108DF850
:103DC000024048218DF803106946284601F000FEA4
:103DD0000121ADF8001000218DF803106946284636
:103DE00001F0F6FD38BD000000100140002904D0AC
:103DF000816841F0010181607047816821F0010113
:103E000081607047002904D0816841F4807181602D
:103E10007047816821F480718160704701460020FD
:103E20008968490700D5012070470146002089684C
:103E3000090700D50120704710B542680E4B1A40A3
:103E40000C790B6842EA04221343436082680B4BEF
:103E50001A40D1E9024323434C7942EA4402134316
:103E60008360C26A22F47002097C491EC9B242EA28
:103E70000151C16210BD0000FFFEF0FFFDF7F1FF30
:103E800070B5072609290AD9C568A1F10A0404EB0F
:103E90004404A640B543A3401D43C56007E005693F
:103EA00001EB4104A640B543A3401D4305611F2318
:103EB000072A09D2446B521E02EB820293409C43B4
:103EC00091400C43446370BD0D2A09D2046BD21F8C
:103ED00002EB820293409C4391400C43046370BD0B
:103EE000C46A0D3A02EB820293409C4391400C431A
:103EF000C46270BD816841F008018160704700298B
:103F000004D0816841F4A00181607047816821F488
:103F1000A00181607047816841F0040181607047B1
:103F20000078A0F13001092901D8C8B27047A0F18A
:103F30004101052902D83738C0B27047A0F16101AC
:103F40000529FAD85738C0B27047000010B586B0BE
:103F50000124ADF8004004208DF8030002208DF804
:103F600002006946254801F033FD0121480202F0B4
:103F7000ADFC002002F076FC002001908DF8084096
:103F80008DF809404FF460210391049003208DF8CF
:103F900014001B4C01A92046FFF74EFF0523012208
:103FA0000A212046FFF76CFF052302220C21204640
:103FB000FFF766FF052303220D212046FFF760FF70
:103FC00001212046FFF71EFF01212046FFF70EFFCB
:103FD0002046FFF78FFF2046FFF727FF0028FAD182
:103FE0002046FFF798FF2046FFF718FF0028FAD178
:103FF00001212046FFF783FF06B010BD00100140ED
:104000000024014030B58FB00546D01E302830D294
:1040100002A805F079FB9DF80B10174A174B0024F6
:10402000012904D0022909D003290ED018E0106814
:1040300020F44070106083F8604011E0106840F494
:104040004070106083F860400AE0106820F440700F
:1040500000F580701060552083F860000CF0D0FEF1
:104060000CF0CEFE064B002201212846009423F0DE
:1040700019F80FB030BD0000BC010020A67A002066
:10408000D0F2020810B58EB00446D31E302B0AD2EF
:1040900001A805F039FB00210A460091034B0121DC
:1040A000204622F0FFFF0EB010BD0000D0F2020843
:1040B00010B5002306E010F8014B8C4201D11846E0
:1040C00010BD5B1C521E541CF5D1601E10BD0000BB
:1040D000F0B5044600202488052A00D9F0BD114F10
:1040E0001DE0C2F10506DFF83CC037F81650ACF110
:1040F0002C0CB4FBF5F51CF80550012B02D1302D2A
:1041000000D000231BB901F8015B401CC0B237F896
:104110001650B4FBF5F605FB1644521ED2B2002A27
:10412000DFD1F0BD34F40208034B9860D9601A6106
:1041300001201875704700004C280020034B986040
:10414000D9601A61012018757047000068280020A6
:104150002DE9F84F4FF0000BD846BB4EBB4C012564
:1041600030790027DFF8E8A206F11E0900281AD0EE
:10417000B078C0B1B7480078A8B999F8050040B147
:1041800010F02CF902F0FCFA8AF8055089F8057055
:1041900009E015F067FC01280BD07189AEA005F08D
:1041A00013FB89F80550307898B3AA48007868B1B5
:1041B00039E0A4F84E7089F8055089F8045022F0CF
:1041C0002BFF7189A4A005F0FFFAECE7B079C107D5
:1041D00003D1810701D4400725D5A8480178C90734
:1041E00009D1C078410606D4800604D4984824300A
:1041F0004078800717D599F8060058B915F032FCB9
:1042000040B1A4F84E7089F8065089F8045022F0A5
:1042100003FF08E08AF8065002F0B2FA89F8067047
:1042200097A005F0D1FA70789A4C80B3A2789AF8EA
:104230000700824201D1F07848B3617820780AF013
:1042400015FF009094A0009905F0BEFA0098072889
:104250002FD2DFE800F0040A10161D232900307A5F
:10426000400626D58AF8045023E0307AC00720D0D3
:104270008AF804501DE0307A80071AD58AF8045075
:1042800017E0307A400714D58AF8045011E02EE088
:10429000307A00070DD58AF804500AE0307AC0065B
:1042A00007D58AF8045004E0307A800601D58AF8F0
:1042B0000450A0788AF80700F7709AF8040018B143
:1042C00079A005F081FA02E07BA005F07DFA604953
:1042D000707A203105FA0BF2104201D001F80B5030
:1042E0000BF1010B0BF0FF0BBBF1040FF2D39AF8AB
:1042F0000400002865D074480078C00761D1207997
:10430000BAF80A1088425CD0AAF80A00E178C1EB3A
:10431000011100EB8100AAF80C000024DFF830B195
:104320000BF1200B707A05FA04F108423AD01BF821
:104330000400012802D14749097811B1022818D098
:1043400030E006EB8401BAF80C00CA89824229D811
:10435000098A814226D989F8067002200BF80400E8
:1043600002F00EFA89F80670611C58A005F02CFACC
:1043700018E05D488078A8B10BF804705BA005F0E8
:1043800023FA06EB8400018AC089081A3049022208
:104390001C310A70020A4A708870032246F24600F5
:1043A0001BF016FA1BF8040018B908F1010808F010
:1043B000FF08641CE4B2042CB4D3414650A005F0BD
:1043C00003FAB8F1040F04D18AF8047050A005F084
:1043D000FBF99AF805009AF8061050EA010231D06C
:1043E000414A9278002A2DD04E4CA8B14EA005F03B
:1043F000EBF925708AF805703771154904201C31D6
:1044000008707089020A4A708870BDE8F84F03226C
:1044100046F246001BF0DCB9002913D042A005F09B
:10442000D3F925708AF8067009481C30057047706A
:1044300005218170BDE8F84F0146032246F246008F
:104440001BF0C6B9BDE8F88FF4B4002090560020E8
:10445000740A0020650100200D0A5FCAB9D3C3B6F3
:10446000CCD0C5BBBBD0D12C2564B7D6D6D3BAF33C
:10447000D0DDC3DF5F0D0A2000000000B80100207E
:1044800020B4A5B7A2CCF5BCFEBBBDD0D1200D0A8F
:1044900020000000C401002020BDF1CCECCAC7D62A
:1044A000DC25642C00000000D3D0B6A8CAB1C8CE69
:1044B000CEF10D0A00000000CEDEB6A8CAB1C8CE0B
:1044C000CEF10D0A00000000BC010020CAB1BCE41E
:1044D000B6CE256420B6A8CAB1BBBDD0D1CAB1BC86
:1044E000E4B5BD0D0A00000040570020524BC9CF73
:1044F000CFDFB7A2CBCD36303436200D0A00000016
:1045000020636F756E7420203D202564200D0A0005
:1045100020BDF1C8D5B6A8CAB1C8CECEF1CDEAB398
:10452000C90D0A00D40000200D0A524BC9CFCFDFBD
:10453000B7A2CBCD363034360D0A000000F00F01A3
:10454000000900EB800001EB4000C0B27047FEE7BD
:1045500070B5384C0421204600F0B8FA01285AD032
:104560000821204600F0B2FA01285AD0324D00202E
:10457000286068602A460021204600F099FB2F48F9
:10458000C17821F08001C1702D49012008702D48AB
:10459000007800283ED12C484FF47A710068B0FBB7
:1045A000F1F201FB120004F02CFE294C274A21886D
:1045B000537E01EB011121448B712188937E01EB25
:1045C00001112144CB712188D27E01EB01112144DC
:1045D0000A722188020A01EB011121444A722188E2
:1045E00001EB0111214488722088696800EB0010FA
:1045F0002044C0F802102088082200EB001020445C
:104600000B3005F10B0105F07FF820884F280ED301
:104610004F20208070BD2046BDE87040042100F08E
:104620008BB92046BDE87040082100F085B9401CD8
:10463000208070BD00640040209C0020680A00209B
:10464000489C00205B0A0020780100209056002042
:10465000669E002070B5194C4FF40031204600F0E2
:104660006BF94FF48031204600F066F921152046A1
:1046700000F062F9E5142946204600F05DF9E113E7
:10468000204600F059F9A115204600F055F96615AD
:104690003146204600F050F92946204600F04CF9FA
:1046A0003146204600F048F90421204600F044F944
:1046B0002046BDE87040042100F03EB9006400408F
:1046C00070B51E4C00261E4D207800280FD0012109
:1046D000284600F0FBF9012809D10121284600F005
:1046E0002BF900220121284600F056FA2670607846
:1046F00078B10121284600F0E9F9012809D101210A
:10470000284600F019F900220121284600F044FA59
:104710006670A07800280FD00121284600F0D6F955
:10472000012809D10121284600F006F900220121C3
:10473000284600F031FAA67070BD0000580A00202B
:104740000064004070B5384C0421204600F0BEF9EA
:1047500001285AD00821204600F0B8F901285AD083
:10476000324D0020286068602A460021204600F073
:104770009FFA2F48C17841F08001C1702D49012076
:1047800048702D48407800283ED12C484FF47A716B
:104790000068B0FBF1F201FB120004F032FD294C7D
:1047A000274A2188537E01EB011121448B71218816
:1047B000937E01EB01112144CB712188D27E01EB64
:1047C000011121440A722188020A01EB01112144DE
:1047D0004A72218801EB011121448872208869689E
:1047E00000EB00102044C0F802102088082200EBE3
:1047F000001020440B3005F10B0104F085FF2088E8
:104800004F280ED34F20208070BD2046BDE8704059
:10481000042100F091B82046BDE87040082100F066
:104820008BB8401C208070BD00680040349C002084
:104830006C0A0020489C00205B0A002078010020C0
:1048400090560020B8A3002070B5194C4FF40031E9
:10485000204600F071F84FF48031204600F06CF8EB
:104860002115204600F068F8E5142946204600F09E
:1048700063F8E113204600F05FF8A115204600F030
:104880005BF866153146204600F056F8294620466A
:1048900000F052F83146204600F04EF80421204640
:1048A00000F04AF82046BDE87040042100F044B80A
:1048B0000068004070B51E4C00261E4D2078002870
:1048C0000FD00121284600F001F9012809D101216A
:1048D000284600F031F800220121284600F05CF95A
:1048E0002670607878B10121284600F0EFF80128A1
:1048F00009D10121284600F01FF800220121284695
:1049000000F04AF96670A07800280FD001212846EF
:1049100000F0DCF8012809D10121284600F00CF84C
:1049200000220121284600F037F9A67070BD000072
:10493000700A00200068004030B5082310240422CB
:10494000B1F5007F33D011DC20292AD007DC012902
:1049500022D0042923D0082900D1C46030BD4029C9
:1049600021D0B1F5807FF9D1426030BD0025B1F58D
:10497000004F20D008DCB1F5806F1AD0B1F5006F80
:10498000F3D18561426030BDB1F5803F0DD0B1F506
:10499000003FF8D1446030BD0849816030BDC3603C
:1049A00030BD036130BD046130BD436030BD426045
:1049B00030BD426030BD8561426030BD0101010003
:1049C00010B50C4988420AD101214C06204601F05D
:1049D0006FFF2046BDE81040002101F069BF0121B2
:1049E0008C06204601F064FF2046BDE810400021FF
:1049F00001F05EBF00640040F0B5827A0121914071
:104A0000304C226842F0010222602E4D1C352A688B
:104A10008A432A602B4A067B0C322B4B002E14D182
:104A200016688E4316604688C78846EA0746877A26
:104A300003EBC707C7F840660688878846EA07463B
:104A4000877A03EBC707C7F84466067B012E14D1AB
:104A500016680E4316604288068842EA0642867A45
:104A600003EBC606C6F84026C288868842EA06429C
:104A7000867A03EBC603C3F84426124AC37A121D92
:104A80003BB113680B4313600E4A0389143223B100
:104A900006E013688B431360F6E713688B431360DB
:104AA0000389012B02D113680B431360407B01285B
:104AB00002D1286808432860206820F001002060A7
:104AC000F0BD00000066004000600040024600208B
:104AD00053690B425DD0B1F5807F4AD016DC0829BE
:104AE00037D009DC01292CD002292ED0042950D13D
:104AF000D068082100F03EBB10292ED0202930D0EC
:104B0000402946D11069102100F034BBB1F5004FA7
:104B10003BD00CDCB1F5007F2FD0B1F5806F30D0E9
:104B2000B1F5006F35D19069702100F023BBB1F56C
:104B3000803F1AD0B1F5003F2BD15068102100F012
:104B400019BB9068134900F015BBD068032100F031
:104B500011BBD068102100F00DBB1069032100F0DB
:104B600009BB1069082100F005BB5068082100F05E
:104B700001BB9069012100F0FDBA9069022100F0AB
:104B8000F9BA9069042100F0F5BA5068042100F0E8
:104B9000F1BA704701010100002A03D042690A43BB
:104BA0004261704742698A434261704710B50022F2
:104BB000036823F002030360036843F0010303600A
:104BC0004FF6FF7300E0521C4468E40701D19A429B
:104BD000F9D14268D2073ED08A79012A3DD00268D5
:104BE00022F080020260CA79012A3BD0026822F0DA
:104BF000400202600A7A012A39D0026822F02002BB
:104C000002604A7A012A37D0026822F0100202605C
:104C10008A7A012A35D0026822F008020260CA7A34
:104C2000012A33D0026822F0040202608A78CC782C
:104C3000920742EA04620C7942EA04424C790988FC
:104C400042EA0452491E0A43C261016821F001018F
:104C50000160002120E0002010BD026842F08002C7
:104C60000260C0E7026842F040020260C2E70268E8
:104C700042F020020260C4E7026842F010020260C3
:104C8000C6E7026842F008020260C8E7026842F024
:104C900004020260CAE7491C4268D20701D0994267
:104CA000F9D14068C00701D0002010BD012010BD1F
:104CB00010B500EB0113D3F8B04104F004041472F2
:104CC000002C2CD0D3F8B041E408546003F5D8731D
:104CD0001C6804F0020454725C6804F00F049472BF
:104CE0005C68240AD4749C68D4729C68240A147387
:104CF0009C68240C54739C68240E9473DC68D473F1
:104D0000DC68240A1474DC68240C5474DB681B0E01
:104D1000937449B1016941F02001016110BDD3F8DC
:104D2000B041640D1460D1E7C16841F02001C16059
:104D300010BD00218171C171017241728172C17215
:104D40008170C17003210171022141710121018033
:104D5000704730B50246002093685B010AD4906822
:104D6000000101D5012005E09068C00001D50220B6
:104D700000E0042004283BD002EB0012D2F880317E
:104D800003F00103C2F880310B7A93B3D2F880416B
:104D90004D681C434B7A43EAC5031C43C2F880416B
:104DA0008B7A03F00F038B7202F5C072536823F005
:104DB0000F03536053688C7A23435360CB7A8C7B08
:104DC0000D7B43EA04634C7B240444EA052423431B
:104DD0009360CB7B8C7C43EA04634C7C097C240489
:104DE00044EA01210B43D360116841F001011160D5
:104DF00030BDFFE7D2F880314C7A23430C8843EA78
:104E00004453C2F88031CBE708B54FF40050ADF8F9
:104E1000000002208DF8020010208DF80300694682
:104E2000014800F0D5FD08BD0014014070471FB5D2
:104E30009DF805409DF806109DF80720002B04D032
:104E4000172A0DD2521CD2B20FE0012A02D9521EEB
:104E5000D2B20AE0012901D9491EC9B2172204E0E1
:104E60001F2901D2491CC9B200228DF807208DF8F4
:104E700006108DF8054001990160BDF80810818089
:104E80001FBD3FB59DF805509DF806209DF8071001
:104E90009DF80840002B04D03B2C12D8641CE3B2D0
:104EA0001AE014B1641EE3B216E0012902D9491ECA
:104EB000C9B204E0012A01D9521ED2B217213B2304
:104EC0000AE0172902D2491CC9B204E01F2A01D204
:104ED000521CD2B2002100238DF807108DF8062055
:104EE0008DF805508DF8083001990160BDF8081063
:104EF00081803FBD2DE9F047DFF89C80B8F80000C5
:104F0000002843D0A8F6462738460222414605F03D
:104F1000B3FA0546DFF8849099F8030040F04000AA
:104F200020F0200020F0800089F80300002423E016
:104F300004EB041000EB0806D9F80010D6F80200C4
:104F400060F31C01C9F80010B11D7819052204F0A6
:104F5000FAFB284485B278190422104905F08CFA2E
:104F6000284485B206F10B017819082204F0EBFB06
:104F7000284485B2641CA4B2B8F80000A042D7D877
:104F80002A46074946F255001AF022FC0020A8F8EC
:104F90000000BDE8F0870000669E0020680A00203F
:104FA0002094002038B54FF48050ADF80000032461
:104FB0008DF8024048208DF80300094D69462846C7
:104FC00000F006FD6914ADF800108DF802401821BC
:104FD0008DF803106946284600F0FAFC38BD000041
:104FE000000C01402DE9F047DFF89C80B8F8000084
:104FF000002843D0A8F6983738460222414605F0EB
:105000003BFA0546DFF8849099F8030040F0400031
:1050100020F0200040F0800089F80300002423E005
:1050200004EB041000EB0806D9F80010D6F80200D3
:1050300060F31C01C9F80010B11D7819052204F0B5
:1050400082FB284485B278190422104905F014FA2D
:10505000284485B206F10B017819082204F073FB8D
:10506000284485B2641CA4B2B8F80000A042D7D886
:105070002A46074946F255001AF0AAFB0020A8F874
:105080000000BDE8F0870000B8A300206C0A0020F3
:105090002098002038B54FF48070ADF8000003244C
:1050A0008DF8024048208DF803000B4D69462846D4
:1050B00000F08EFC6915ADF800108DF80240182143
:1050C0008DF803106946284600F082FC01214FF458
:1050D000EA1000F0D1FC38BD000C01407FB5054658
:1050E0008DF80A1000248DF80B4001208DF80C007B
:1050F000D9000B0C012A18D0022A23D0ADF80040A9
:10510000ADF80240ADF80440ADF80640ADF80840F7
:105110008DF80D006846FFF76FFC012D20D00122AD
:1051200002211248FFF738FD7FBDADF80030C1F312
:105130000A01ADF80210ADF804404FF4FF61ADF87C
:105140000610E3E7ADF8003041F00401ADF80210BD
:105150004FF6FF71ADF80410C91EADF80610D5E783
:10516000012202210248FFF717FD7FBD00680040C1
:1051700000640040024600200A4200D0012070472F
:105180002DE9F041224D4FF480542146284600F08D
:10519000A8FC0AF05FF80AF05DF80AF05BF81D4E13
:1051A0000221304600F09DFC0AF054F80AF052F853
:1051B0000AF050F80221304600F095FC0AF04AF857
:1051C0000AF048F82146284600F08BFC0AF042F825
:1051D0000AF040F8104E0027B7701048017841F0EF
:1051E0000101017077700E4C207D18B9012100205B
:1051F00014F058F9012525750AA005F023F8606A16
:10520000B060357067740E480570BDE8F08100002D
:10521000001801400014014040570020000A0020FF
:10522000540100202323232320436C6F73655F48C0
:10523000693335363850777220232323230D0A0033
:10524000A60A002010B58CB00121084601F014FB1D
:10525000104C204600F032F80F4801900F480290A1
:1052600000210391032204920591802206925200AC
:105270000792900008902020099000020A900B915C
:1052800001A9204600F096F80121204600F008F818
:105290000CB010BD080002404C240140B4000020B6
:1052A000002904D0016841F00101016070470168E4
:1052B0004FF6FE72114001607047000001684FF622
:1052C000FE72114001600021016041608160C16097
:1052D0003649364A0839904204D1486840F00F00F8
:1052E00048607047314A1432904204D1486840F017
:1052F000F000486070472D4A2832904204D1486837
:1053000040F4706048607047284A3C32904204D1B3
:10531000486840F4704048607047244A50329042D8
:1053200004D1486840F47020486070471F4A6432D6
:10533000904204D1486840F47000486070471B4AAE
:105340007832904204D1486840F0706048607047FD
:10535000174A111F904204D1086840F00F000860FE
:105360007047134A1432904204D1086840F0F000AC
:10537000086070470E4A2832904204D1086840F411
:105380007060086070470A4A3C32904204D1086855
:1053900040F4704008607047054A50329042FAD19C
:1053A000086840F470200860704700000800024060
:1053B0000804024030B5026847F6F0739A430C6A5D
:1053C0008B682343D1E904452C4323438C69234351
:1053D000CC6923434C6A23438C6A23431343036001
:1053E000CA6842600A6882604968C16030BD0000D6
:1053F0002DE9F843002201212B481AF0F5FB4FF468
:105400008047ADF8007002248DF8024048258DF8E1
:105410000350DFF898806946404600F0D9FAA603A9
:10542000ADF800608DF802408DF8035069464046A3
:1054300000F0CEFA2003ADF800008DF802408DF8A0
:105440000350DFF86C806946404600F0C1FAADF8C1
:1054500000708DF802408DF803506946404600F018
:10546000B7FAADF800608DF802408DF80350694638
:10547000404600F0ADFA1020ADF800008DF8024073
:105480008DF803506946404600F0A2FA2002ADF8BC
:1054900000008DF802408DF803506946404600F048
:1054A00097FABDE8F8830000000C014000140140A9
:1054B000001001402DE9F8434FF40046ADF80060BC
:1054C00002248DF8024010258DF80350DFF81C816E
:1054D0006946404600F07CFADFF8149101228021F1
:1054E00048461AF081FB0122402148461AF07CFB15
:1054F0000122202148461AF077FB01220821484664
:105500001AF072FB0122102148461AF06DFB0122AD
:10551000314640461AF068FB0122042140461AF049
:1055200063FB01221602314648461AF05DFB012258
:10553000510248461AF058FB0122D10248461AF09F
:1055400053FB0122910248461AF04EFB294F0122DB
:10555000402138461AF048FB0122202138461AF033
:1055600043FB0122042148461AF03EFB0122102190
:1055700038461AF039FB0122802138461AF034FBF4
:105580000122910340461AF02FFB14208DF80300EE
:1055900001208DF802004FF4C060ADF80000DFF884
:1055A00058806946404600F013FA48208DF8030001
:1055B000F820ADF800006946404600F009FAADF861
:1055C00000408DF802408DF803506946384600F0DF
:1055D000FFF9ADF800608DF802408DF80350694680
:1055E000384600F0F5F9BDE8F8830000000C0140F2
:1055F0000018014000080140001401402DE9F84363
:105600004FF48040ADF8000010258DF803500224BF
:105610008DF802401E4F6946384600F0D9F9ADF8C2
:1056200000408DF803508DF802406946194800F09B
:10563000CFF9E001ADF800008DF803508DF802407D
:105640006946154800F0C4F9A002ADF800008DF8D5
:1056500002408DF80350DFF844806946404600F070
:10566000B7F9E602ADF800608DF803508DF80240FE
:105670006946404600F0ACF9ADF800608DF8035083
:105680008DF802406946384600F0A2F9BDE8F8837B
:1056900000180140000C01400010014000140140BE
:1056A00070470000F0B5044600202468062A00D99F
:1056B000F0BD114F1DE0C2F10606DFF83CC057F8FF
:1056C0002650ACF1140CB4FBF5F51CF80550012B79
:1056D00002D1302D00D000231BB901F8015B401C22
:1056E000C0B257F82650B4FBF5F605FB1644521E1F
:1056F000D2B2002ADFD1F0BD1CF4020810B54FF47D
:105700000044204600F03EF800280CD0204600F06F
:1057100033F82146044800F0DDF9002803D103489E
:105720000168491C016010BD001801407C01002087
:105730003EB54FF40044ADF8004004208DF803005E
:1057400002208DF8020069460A4800F041F90F2155
:10575000042000F029F9019401208DF80A000020AE
:105760008DF808000C208DF8090001A800F01AF847
:105770003EBD00000018014001490860704700006C
:105780001404014001460020054A12680A40044BF7
:1057900014331B680B4202D0002A00D0012070474E
:1057A0000004014030B51B4A83790168002B2AD0E0
:1057B00013688B431360111D0B680468A3430B60CF
:1057C000017911440B68046823430B60114C0834C1
:1057D0002168036899432160231D19680568A9435E
:1057E00019604179102905D011440A680068024304
:1057F0000A6030BD216802681143216019680068A1
:105800000143196030BD0079104402688A43026088
:1058100030BD0000000401400149C860704700002D
:105820000020024070B505464FF43026304600F0A7
:105830006FF8042811D1094C206940F00200206162
:105840006561206940F040002061304600F060F85A
:10585000216941F6FD721140216170BD00200240B6
:1058600004200849CA68D20701D001207047CA68DD
:10587000520701D502207047C968C906FBD503202D
:1058800070470000002002400248016941F0800199
:10589000016170470020024004490A6822F01002AA
:1058A0000A600A6802430A60704700000020024054
:1058B000F0B506460D464FF40057384600F028F87C
:1058C00004280CD1064C206940F00100206135808D
:1058D000384600F01DF82169BA1E11402161F0BD63
:1058E00000200240034A116801F0380101431160B1
:1058F000704700000020024003480249416003490C
:10590000416070472301674500200240AB89EFCD1D
:1059100000B50346FFF7A4FF02E0FFF7A1FF5B1EFF
:10592000012801D1002BF8D1002B00D1052000BDAA
:1059300010B51249C869B0F5683F01D9002010BD03
:105940000E4C0F4A143C6260A060887A2074886A0A
:10595000E0601421204604F025FF002023F000FA27
:1059600014220021204623F059FAD4E90213227CA4
:1059700004A003F029FF012010BD00006C8B002063
:10598000214365870D0A424C207772697465203A7D
:105990006C3A256C642C206F723A25642C20737548
:1059A0006D3A256C640D0A0010B58A07120F0F239B
:1059B000934021F00304054921448C689C438C608A
:1059C0008B68904003438B6010BD000000000140D5
:1059D0002DE9F0410022CC7804F00F03E40601D554
:1059E0008C7823430C784FF00F0714F0FF0F4FF023
:1059F000010C1CD005680CFA02F40E882640A64261
:105A000011D1960007FA06F825EA080503FA06F808
:105A100048EA0505CE78282E02D0482E02D002E0B2
:105A2000446100E00461521C082AE4D305600A883E
:105A3000FF2A1ED94568002202F108060CFA06F476
:105A40000E882640A64210D1960007FA06F825EAED
:105A5000080503FA06F848EA0505CE78282E00D195
:105A60004461CE78482E00D10461521C082AE3D349
:105A70004560BDE8F0810000F0B5154C002801DA62
:105A8000E36900E06368C0F30346420D120185B28A
:105A9000C0F301579540032F07D0C2020CD5032253
:105AA000B240934343F0706209E023F07062636890
:105AB00023F07063636002E0AB4343F0706201B1B6
:105AC0002A43002801DAE261F0BD6260F0BD000007
:105AD000000001400246002092680A4200D00120E6
:105AE00070474161704701617047000008B50120AF
:105AF000ADF8000002208DF8020010208DF80300A0
:105B000069460248FFF764FF08BD00000018014025
:105B100008B50220ADF800008DF8020010208DF8C5
:105B2000030069460148FFF753FF08BD0014014018
:105B300008B50120ADF8000002208DF80200102009
:105B40008DF8030069460248FFF742FF08BD0000D8
:105B500000140140FEE700002DE9F0411F4C204DEC
:105B6000E0682A6A101AB0F5E15F2BD923791D4845
:105B700000264FF48041012733B32369D21A032A48
:105B800020D3FFF7B0FF18A004F05CFB1422002123
:105B9000204603F0E8FD286A20612671A670667031
:105BA0002770696AA160E0602878401CC0B2287044
:105BB000032807D305F178000770467086704160AE
:105BC0000F480770BDE8F08127712261A670FFF7CA
:105BD00088FFBDE8F0410BA004F034BB4057002023
:105BE00054010020001801406869333536382050D0
:105BF0005752207374617274202D322D0D0A0000EB
:105C0000740A0020686933353638205057522073A3
:105C100074617274202D312D0D0A000008B5012128
:105C2000092000F053FE0121082000F04FFEC020A3
:105C3000ADF8000003208DF8020014208DF8030059
:105C400069460248FFF7C4FE08BD0000000C014091
:105C500070B5084C4025256002F0ACF8802020602B
:105C6000022009F0E3FA201F0560022009F0DEFAA5
:105C7000256070BD140C014070B5084D40242C60A7
:105C800002F098F880202A1F1060022009F0CEFA56
:105C90001460022009F0CAFA2C6070BD140C014097
:105CA0002DE9F04104460F4615461E4600F088F8DF
:105CB000204600F05DF801280FD0384600F058F873
:105CC00001280ED000F07CF844F0010000F050F8FC
:105CD00001280AD00024761E11E0BDE8F04100F052
:105CE00085B8BDE8F04100F081B8BDE8F04100F0B2
:105CF0007DB8012000F00EF82855641CE4B2B442CF
:105D0000F7DB002000F006F82855BDE8F04100F070
:105D10006DB800002DE9F0410646002402F038F885
:105D20000022124DDFF8448040232F1FA8F10C08F9
:105D30002B60022009F07AFA3B606006040ED8F866
:105D40000000000601D5641CE4B2012009F06EFADF
:105D5000521CD2B2082AEBD326B1FFF779FF2046B6
:105D6000BDE8F081FFF788FFF9E70000140C01405F
:105D70002DE9F041044602F01DF8104F40233B602E
:105D8000002280253E1F200601D5356000E03D60E1
:105D90006006040E022009F049FA3360022009F07F
:105DA00045FA3B60022009F041FA521CD2B2082A9F
:105DB000E9D3BDE8F04100F02FB80000140C014019
:105DC00010B501F0F7FF084880220260402303600D
:105DD000042009F02BFA044C241D2260042009F051
:105DE00025FA236010BD0000100C014010B501F031
:105DF000E1FF08484023036080220260042009F08C
:105E000015FA0448001F03600260BDE8104004203A
:105E100009F00CBA140C014010B5002401F0B8FFD1
:105E20000E4A80201060012009F000FA4023136020
:105E3000012009F0FBF90948083807E0641CE4B2C6
:105E4000FA2C03D9FFF7D2FF012010BD0168090623
:105E5000F4D40248001D0360002010BD100C014066
:105E60002DE9F04104460F4615461E46FFF7A8FFF0
:105E70002046FFF77DFF012806D03846FFF778FF60
:105E8000012805D000240EE0BDE8F041FFF7AEBFC9
:105E9000BDE8F041FFF7AABF285DFFF769FF0128C1
:105EA00007D0641CE4B2B442F6D3BDE8F041FFF77A
:105EB0009DBFBDE8F041FFF799BF000008B5202065
:105EC000ADF8000002208DF8020048208DF8030094
:105ED00069460248FFF77CFD08BD00000010014044
:105EE00008B58020ADF8000002208DF8020048209F
:105EF0008DF8030069460248FFF76AFD08BD0000FF
:105F00000010014008B54FF40050ADF80000022029
:105F10008DF8020048208DF8030069460148FFF71C
:105F200057FD08BD0018014002494CF6CC400860FE
:105F3000704700000030004002494AF6AA2008607D
:105F40007047000000300040014948607047000081
:105F50000030004001498860704700000030004078
:105F6000014908607047000000300040054A4FF4C6
:105F70000051012802D01046FFF7B3BD1046FFF7CD
:105F8000B2BD00000014014070B588B0254E304607
:105F9000FEF716FD05A8FEF7CCFE00248DF81A408A
:105FA00001258DF81B5007948DF816408DF8174089
:105FB00004208DF8180005208DF819000620ADF892
:105FC000140005A93046FEF7F1FD8DF80E508DF84E
:105FD0000F408DF81050ADF80440ADF80640ADF814
:105FE0000840ADF80A40ADF80C408DF8115001A8FA
:105FF000FEF702FD01220E213046FEF7CDFD032201
:106000000021094803F0AFFB4FF4D272002107488A
:1060100003F0A9FB70220021054803F0A4FB08B09F
:1060200070BD000000640040580A0020529C00200F
:10603000F69D002070B588B0254E3046FEF7C0FCB6
:1060400005A8FEF776FE00248DF81A4001258DF88C
:106050001B5007948DF816408DF8174004208DF8DA
:10606000180005208DF819000620ADF8140005A9C8
:106070003046FEF79BFD0E208DF80E008DF80F4088
:106080008DF81050ADF80440ADF80640ADF808406A
:10609000ADF80A40ADF80C408DF8115001A8FEF79C
:1060A000ABFC01220E213046FEF776FD03220021D3
:1060B000084803F058FB4FF4D2720021064803F061
:1060C00052FB70220021054803F04DFB08B070BD63
:1060D00000680040580A0020529C0020F69D0020D5
:1060E0002DE9F041002100222548264E0088338A00
:1060F000C01A80B20D280CD92348244F0023408EAB
:106100003D78B0F52A7F25F0800404D23372737293
:106110003C70BDE8F0815FEA056C0BD4B0F57F7F81
:1061200001D2012112E0A0F2A560B0F5C57F0DD823
:1061300001210BE0A0F2FD3C40F22F28C44501D222
:10614000012203E0B0F5036F00D30122012907D03B
:10615000012ADED1707A02280ED973723C70D8E71A
:10616000307A0F2804D3337245F080003870D0E7BE
:10617000401C30727372CCE73372401C7072C8E7F7
:1061800074010020E809002090560020B80100208A
:106190002DE9FE4F82466B4601AA02A9382000F085
:1061A000AFF8002860D0BDF90800FCF711FF0446E5
:1061B0000D46DFF8B8B000225B4620462946FCF7C2
:1061C00018FE04460D46BDF90400FCF701FF064623
:1061D0000F4600225B4630463946FCF70AFE06466B
:1061E0000F46BDF90000FCF7F3FE80468946002209
:1061F0005B4640464946FCF7FCFD804689463246F0
:106200003B4630463946FCF7F4FD06460F4622462B
:106210002B4620462946FCF7ECFD32463B46FCF770
:1062200041FD22F0B3FE42464B46FCF754FE07F018
:10623000C1F900220E4BFCF7DCFD0E4A0E4BFCF7B9
:106240004AFEFCF735FFCAF80000BDF80800AAF8BE
:106250000400BDF80400AAF80600BDF80000AAF882
:1062600008000120BDE8FE8F0020FBE70000843F0E
:1062700000806640282D4454FB21094008B50120C8
:10628000009001236A462A213820FFF7E9FD022009
:10629000009002236A462B213820FFF7E1FD0123FD
:1062A0006A460D213820FFF7FBFC9DF800102A29D3
:1062B00004D005A003F088FA002008BD0CA003F06C
:1062C00083FA012008BD0000E5889DE5A78BE58CD9
:1062D00096E5A4B1E8B4A5EFBC8C4944E99499E8EB
:1062E000AFAFEFBC9A25233032780D0A00000000D2
:1062F0004944EFBC9A3078253032580D0A0000002E
:10630000FEB50F4616461D460020009001236A4642
:106310000D213820FFF7C4FC9DF800002A2801D089
:106320000020FEBD062301AA01213820FFF7B8FC9A
:106330009DF8044020019DF8051040EA1110210647
:1063400002D540F4704000B238809DF80610080174
:106350009DF8072040EA1210090602D540F470406B
:1063600000B230809DF8081008019DF8092040EA2D
:106370001210090602D540F4704000B228800120B6
:10638000FEBDFEE70648074947F2305300680A6839
:10639000821A9A4203D908600348FFF7F9BE704792
:1063A00078010020A80A002024B500202DE9F0473C
:1063B0003C48007800283ED13B4E3C48DFF8E49052
:1063C000F17AC068A9F110090027394D4FF0010892
:1063D000A9F16804032912D899F80010C9071CD044
:1063E000F168226A511AB1F5967F16D3400702D49C
:1063F00030A003F0E9F9F07A401CF0722AE0042999
:106400000BD1400702D434A003F0DEF96F7085F899
:106410000080AF70F07A401CF072687868B12F701D
:1064200014220021224803F09EF985F80280206A98
:10643000E860EF702770BDE8F08799F80000C007AA
:10644000F9D0FFF789FB287868B1A868616A081A53
:10645000C828F0D9227CDFF89CA04FF4807932B1B3
:10646000012A0ED01AE0606AA8602774E3E7494663
:106470005046FFF738FB20A003F0E4FE84F81080BC
:106480000CE023A003F0DEFE2F70606AA860206A93
:10649000F06049465046FFF724FB2774606AA86005
:1064A000C9E70000CC01002012B50020B441002053
:1064B000405700202D2D4D435520CEE5B7D6D6D3DD
:1064C000CEB4CAD5B5BD524BD0C4CCF8D6D8C6F4DC
:1064D000524B2D2D0D0A0000524BCEDEB7A8C6F44C
:1064E000B6AF4D4355BDD3B9DC3447C4A3BFE90DA6
:1064F0000A000000000801405253542068693335F7
:106500003230207374617274202D342D0D0A000016
:106510005253542068693335323020737461727479
:10652000202D332D0D0A00007047F8B54FF420518F
:106530004FF0006000F0E2F84FF4A06000F0D4F8F3
:1065400025208DF8000000258DF8015003268DF8D8
:10655000026001248DF80340684600F093F826207D
:106560008DF800008DF801408DF802508DF8034041
:10657000684600F087F827208DF800008DF801406C
:106580008DF802408DF80340684600F07BF8342017
:106590008DF800008DF8014002278DF802708DF80B
:1065A0000340684600F06EF835208DF800008DF845
:1065B00001408DF802608DF80340684600F062F8F3
:1065C00028208DF800008DF801708DF802508DF8AC
:1065D0000340684600F056F81C208DF800008DF846
:1065E00001508DF802408DF80340684600F04AF8EB
:1065F0001E208DF800008DF801608DF802408DF8A6
:106600000340684600F03EF836208DF800008DF813
:1066100001508DF802408DF80340684600F032F8D2
:1066200014208DF800008DF801508DF802508DF87F
:106630000340684600F026F813208DF800008DF81E
:1066400001508DF802508DF80340684600F01AF8AA
:1066500016208DF800008DF801508DF802508DF84D
:106660000340684600F00EF840208DF800008DF8D9
:1066700001508DF802508DF80340684600F002F892
:10668000F8BD000070B50F23C27801260178002AFA
:106690001ED0144A126802F4E062C2F5E062120AE7
:1066A000C2F10404D3404578A54082781A402A43B9
:1066B000120101F1E02181F80024007800F01F01AF
:1066C0008E404009800000F1E020C0F8006170BDFC
:1066D00001F01F0086404809800000F1E020C0F86A
:1066E000806170BD0CED00E002490843024908607A
:1066F000704700000000FA050CED00E0024A11406E
:10670000014302480160704780FFFF1F08ED00E071
:106710007047000070B50F4D4FF480542146284655
:10672000FFF7E1F921460C48FFF7DDF9A100284603
:10673000FFF7D9F901212846FFF7D5F9074C0220C8
:10674000207507A003F07EFD012060740B49002036
:10675000087070BD00180140001401405401002071
:1067600023232323204F70656E5F45787465726E16
:106770005F50777220232323230D0A00A60A0020EE
:1067800070B5234C4FF480412046FFF7ACF908F078
:1067900061FDA51429462046FFF7A5F908F05AFD2A
:1067A00002211C48FFF79FF91B4C29462046FFF7A2
:1067B0009AF908F04FFD08F04DFD02212046FFF741
:1067C00092F908F047FD04211448FFF78CF908F00E
:1067D00041FD08F03FFD124D287D18B90121002030
:1067E00012F060FE022028750E4C0026A6700E489E
:1067F000017841F00101017066700CA003F022FDE8
:10680000686AA0600120207068741248067070BD2C
:10681000001801400008014000140140000C014034
:106820005401002040570020000A00205F5F5F5F96
:106830005F5F5F206D6375206F70656E20616C6CAB
:1068400020706F776572205F5F5F5F5F5F5F0D0A2B
:1068500000000000A60A00200020401CC0B2FA2858
:10686000FBD37047034A516821F440410143516012
:106870007047000000100240054A002903D051690A
:106880000143516170475169814351617047000074
:1068900000100240054A002903D0D1690143D161AB
:1068A0007047D1698143D1617047000000100240F8
:1068B000054A002903D0116901431161704711692C
:1068C000814311617047000000100240054A002911
:1068D00003D091690143916170479169814391614E
:1068E0007047000000100240054A002903D0D1681B
:1068F0000143D1607047D1688143D1607047000087
:106900000010024010B500F059F84FF480342046D2
:1069100000F012F900F082F925490870012837D1FA
:106920001020FEF7B9FF0220FEF7DCFF402000F048
:1069300061F94FF4C06000F035F9012000F02CF946
:106940003B2000F0CFF80028FAD00421204600F0C8
:1069500043F94FF4E011204600F034F9012000F033
:106960002BF9002000F0DEF84FF4A064204600F080
:1069700009F9204600F0FCF8392000F0B3F80028AF
:10698000FAD0022000F040F900F0C4F80828FBD14A
:1069900001210848FFF77EFF012145F27D20FFF726
:1069A00095FFBDE8104001210348FFF765B80000DE
:1069B000D500002017001E06000230000F480168B5
:1069C00041F00101016041680D4A114041600168D8
:1069D0000C4A11400160016821F480210160416886
:1069E00021F4FE014160016821F0A05101604FF4E3
:1069F0007F0181600021C1627047000000100240E9
:106A00000000FFF0FFFFF6FE70B5314B596801F052
:106A10000C01304A002928D02F4C042927D00829FE
:106A200027D00260596801F0F00109092B4A545C33
:106A30000168E14041605C6804F4E064240A145D8C
:106A400021FA04F484605C6804F46054E40A125D82
:106A5000D140C1605A6802F44042920B1F4B1B1F89
:106A60009A5CB1FBF2F1016170BD0260DAE704608B
:106A7000D8E7596801F470115A6802F48032890C21
:106A80000D2901D0891C00E00621BAB1DA6A02F4AE
:106A90008035DA6A02F00F02521C9DB1DD6AC5F33F
:106AA00003156D1CDE6AC6F30326B61CB4FBF5F4B1
:106AB0007443B4FBF2F24A430260B3E7084A51431D
:106AC0000160AFE7B4FBF2F24A430260AAE70000BC
:106AD0000010024000127A0040787D01040000207E
:106AE00000093D00034600205909094A01290AD03E
:106AF00002290AD0516A03F01F02012393400B427E
:106B000000D0012070471168F5E7116AF3E7000033
:106B1000001002400248406800F00C00704700007E
:106B200000100240034A516821F0F0010143516016
:106B300070470000001002400C490A6822F48032BD
:106B40000A600A6822F480220A60B0F5803F07D00C
:106B5000B0F5802F03D1086840F4A020086070478A
:106B6000086840F480300860704700000010024060
:106B7000034A516821F4E06101435160704700000D
:106B800000100240034A516821F4605141EAC000FC
:106B9000506070470010024001498866704700004D
:106BA00000004242034AD16A21F470610143D1627C
:106BB000704700000010024001490866704700005D
:106BC00000004242034B5A6822F4741208431043F7
:106BD000586070470010024010B5044BDA6A044C4C
:106BE000224008431043D86210BD0000001002404C
:106BF000F0FFFEFF034AD16A21F0F0010143D162A8
:106C00007047000000100240034A516821F0030160
:106C100001435160704700000010024018B5002089
:106C200000904FF6FF743120FFF75CFF0099491C7C
:106C300000910099A14201D00028F4D03120FFF743
:106C400051FF08B1012018BD002018BD70B50E46D7
:106C50000546114608A002F0B7FD002405E0295DB5
:106C60000CA002F0B1FD641CA4B2B442F7D3BDE89D
:106C700070400AA002F0A8BD5B524B202D3E204D73
:106C800043555D20636D64202523783A203D7B20A9
:106C90000000000025233032782020007D200D0ADE
:106CA000000000003FB59DF805509DF806409DF896
:106CB00007109DF80820002B0ED112B1521ED2B23F
:106CC0000AE0012902D9491EC9B204E0012C01D908
:106CD000641EE4B217213B228DF807108DF80640A0
:106CE0008DF805508DF8082001990160BDF8081055
:106CF00081803FBD10B5124881884FF4A572514381
:106D0000090B4FF46F7251432F22B1FBF2F3811D37
:106D10008B8043884FF4A57463431B0B4FF46F744F
:106D20006343B3FBF2F34B8000884FF4A5735843E1
:106D3000000B23465843B0FBF2F080B2088010BD30
:106D4000B40000202DE9F047D8B006460C46F822E2
:106D5000002101A802F007FD1EB114B1B4F5007FB7
:106D600006D99CA002F030FD002058B0BDE8F087A5
:106D70003B22214630460AF051FE0938022804D34E
:106D80009AA002F021FD0020EFE7214602E0761CE8
:106D9000491E89B230783B2802D009B1A142F6D908
:106DA000761C491E88B202E0761C401E80B2317803
:106DB0003B2902D008B1A042F6D9761C401E80B211
:106DC00002E0761C401E80B231783B2902D008B127
:106DD000A042F6D9761C401E80B202E0761C401E0E
:106DE00080B231783B2902D008B1A042F6D9761C96
:106DF000401E80B20DF1BA010F4604E001F8012BEC
:106E0000761C401E80B232783B2A02D008B1A042E4
:106E1000F4D9761C401E85B2642200213FA802F0FE
:106E2000A2FC3FA804E000F8011B761C6D1EADB269
:106E300031783B2902D00DB1A542F4D9761C6D1EE4
:106E4000ADB23FA803F090FAC0B2401E042809D8A2
:106E50003FA8FBF79DFE38909DF81D0040F0040010
:106E60008DF81D00642200213FA802F07CFC3FA8A1
:106E700004E000F8011B761C6D1EADB231783B2991
:106E800002D00DB1A542F4D9761C6D1EADB23FA85B
:106E900003F06AFAC0B29DF81D1049070CD4401ED9
:106EA000042809D83FA8FBF773FE38909DF81D0011
:106EB00000F0FB008DF81D004FF00008384603F08D
:106EC00053FAC0B2401F122801D34FF0010838987E
:106ED00008B94FF00108DFF82C91B8F1000F09F163
:106EE000B60A14D018220021504602F03CFC0F22B2
:106EF00045A1504602F008FC42F22830C9F8DC00F7
:106F000099F8190040F0040089F819001FE01822D0
:106F10000021504602F027FC18223946504602F064
:106F2000F3FB3898C9F8DC009DF81D00400704D534
:106F300099F8190040F0040003E099F8190000F0F6
:106F4000FB0089F8190002E0761C6D1EADB23078A6
:106F50003B2802D00DB1A542F6D9761C6D1EA8B211
:106F600002E0761C401E80B231783B2902D008B185
:106F7000A042F6D9761C401E85B2642200213FA8AB
:106F800002F0F1FB3FA804E000F8011B761C6D1E27
:106F9000ADB231783B2902D00DB1A542F4D93FA85A
:106FA00003F0E2F9C2B242B1A2F11800072806D3F9
:106FB00019A002F009FC0020D7E60220D5E63FA97F
:106FC000012007F09DFC012801D00020CDE6012022
:106FD000CBE60000555041474544455F4552523A83
:106FE0002076616C75650D0A000000005550414720
:106FF0004544455F4552523A20464C414720434E56
:10700000540D0A00687B00203230332E3038362E83
:107010003030382E303035006F74615F6572723AEF
:10702000307838313035206E616D65206C656E0DBD
:107030000A0000002DE9F0418478C61C642C03D8B6
:10704000164DE88BA04204D2BDE8F041012018F0B3
:107050003FB9C4B14FF44C27384621F081FE62009D
:107060003946304621F0DAFE0120353505F8010CAD
:107070002C80002068800A480088A880BDE8F04184
:10708000002018F025B93B220021044802F06BFBD8
:10709000BDE8F041002018F01BB900000483002077
:1070A0007401002010B50B4C2078002810D10A483C
:1070B00061680068401A02280AD901202070010284
:1070C0000648FEF70EFD06A002F07EFB0020606081
:1070D00010BD0000D800002074010020000801400D
:1070E00023232323726573657420746F2068696796
:1070F00068232323230D0A002DE9F14FADF5016D1F
:10710000F74E96F80090B9F1020F02D0B9F1100FC6
:1071100024D1F64F327CDFF8CCE3DFF8CCB39DF816
:1071200010180125F24B38684FF0000A002A69D088
:107130009BF80920012A15D0D6F8111040F6C41288
:10714000411A91420AD93574C6F8110033F8020B7E
:107150000090F278002102201DF0BAF90DF6140D0E
:10716000BDE8F08F86F810A0DD4C9BF80A80A2885D
:10717000E488521E04F1010C1FFA8CFCB8F1000FD8
:107180001CD0082973D3944277DB152955D01522DA
:107190000021D34802F0E7FA9DF81008092869D0C9
:1071A000401CF0701020307075708BF808508BF810
:1071B0000A5086F810A0C6F811A0CFE7082922D3FC
:1071C000944219DB8EF80050CA4880F800A0CA48E3
:1071D0000570CA4880F800A08BF800A08BF801A0C9
:1071E0008BF802A015220021BD4802F0BCFA8BF8F2
:1071F00009A08BF808A0B1E7A6F806C086F810A091
:10720000C6F811A03FE08EF80050BA4880F800A000
:10721000B9480570B94880F800A08BF800A08BF839
:1072200001A08BF802A015220021AD4802F09BFAC4
:107230008BF809A08BF808A090E78EF80050AD48B5
:1072400080F800A0AC480570AC4880F800A08BF82E
:1072500000A08BF801A08BF802A015220021A04805
:1072600002F081FA8BF809A08BF808A076E720E0FD
:1072700003E0FFE71020F07094E7A6F806C086F858
:1072800010A0C6F811A09A4C40F22232A41CA4F11E
:107290003D08162991D2DFE801F01F1F1F1F1F1F95
:1072A0001F1F35C50B0B0B0B0B0BF5F4F3F2F1F0B5
:1072B00054E7152200218A4802F055FA9DF810087B
:1072C000401CF0701020307075708BF809508BF8EE
:1072D00008508BF80A5041E78BF800508EF800A058
:1072E000B9F1020F01D0102232703574C6F81100C6
:1072F000A6F806A0B58001230DF5016202201AF060
:1073000091FF2BE74FF00009CDF808A0CDF80CA0B5
:107310007748A0F800A07A4883880089834222D168
:10732000734B0A469B1C00210220CDF800A01DF0E3
:10733000CFF8F17873A002F047FA9BF80A0060B129
:10734000A6F804A0A6F806A0A6F80AA0A6F80CA025
:1073500035743868C6F8110000E71522002160482E
:1073600002F001FAFAE60021614802F0FCF9B08867
:10737000D8B9042131816248828803899A4201D3B5
:10738000D01A02E0D01A00F6B83080B2B0FBF1FC9F
:1073900001FB1C0CBCF1000F0AD0B0FBF1F0401C4B
:1073A000B080A6F806A07281B381DFF844A11EE088
:1073B000B0FBF1F0B080F4E77089B189884219D050
:1073C000092188F81410BAF8001021441AF010FDB1
:1073D000BAF800100844AAF80000718901220920B7
:1073E00007F069FE708109F1010909F0FF09308990
:1073F0004845E1D835743868C6F81100BAF800106D
:107400004FF44870814201D3AAF80000BAF8000096
:1074100000900AF102039DF81028002102201DF0BF
:1074200057F89BE64FF00009CDF808A0CDF80CA066
:107430002F48A0F800A0394883880089834228D1CA
:107440002B4B0A469B1C00210220CDF800A01DF00A
:107450003FF8F1782BA002F0B7F99BF80A0090B141
:10746000A6F804A0A6F806A0A6F80AA0A6F80CA004
:1074700035743868C6F8110070E66BE3D7E23EE277
:10748000AAE115E182E015220021154802F06BF90E
:1074900064E60021164802F066F9B088C8B9358163
:1074A0001E4881880289914201D3881A02E0881A15
:1074B00000F5BD7080B2AC46B0FBFCF305FB1303D6
:1074C00053B1B0FBF5F0401CB080A6F806A0718166
:1074D000B281DFF81CA03EE0B0FBF5F0B080F4E72D
:1074E00088860020D400002012B5002078010020FA
:1074F0003F8300204E0200204F020020DC090020C4
:10750000687F00200D0A20CEDEBCC7C2BC20636DA0
:10751000643D2530327820200D0A0000527F002083
:107520007089B189884219D00A2188F81410BAF8F4
:10753000001021441AF05CFCBAF800100844AAF8C4
:107540000000718901220A2007F0B5FD708109F160
:10755000010909F0FF0930894845E1D835743868D8
:10756000C6F81100BAF800104FF44870814201D3F8
:10757000AAF80000BAF8000000900AF102039DF892
:107580001028002102201CF0A3FFE7E54FF00009BE
:10759000CDF808A0CDF80CA0FE48A0F800A0FE4849
:1075A0008388C088834223D1FA4B0A469B1C002162
:1075B0000220CDF800A01CF08BFFF178AFF2BC00E8
:1075C00002F002F99BF80A0060B1A6F804A0A6F840
:1075D00006A0A6F80AA0A6F80CA035743868C6F86C
:1075E0001100BBE515220021EC4802F0BCF8B5E51E
:1075F0000021E84802F0B7F8B088D0B90221318103
:10760000E5488288C3889A4201D3D01A01E0D01A93
:10761000A03080B2B0FBF1FC01FB1C0CBCF1000FF0
:107620000AD0B0FBF1F0401CB080A6F806A0728131
:10763000B381DFF860A320E0B0FBF1F0B080F4E7A5
:107640007089B18988421BD00B2188F81410BAF8D0
:107650000010401E214480B21AF0CAFBBAF8001094
:107660000844AAF80000718901220B2007F023FDCD
:10767000708109F1010909F0FF0930894845DFD817
:1076800035743868C6F81100BAF800104FF4487025
:10769000814201D3AAF80000BAF8000000900AF174
:1076A00002039DF81028002102201CF011FF55E56F
:1076B0004FF00009CDF808A0CDF80CA0B548A0F80F
:1076C00000A0B7488388C088834223D1B14B0A46C3
:1076D0009B1C00210220CDF800A01CF0F9FEF178DF
:1076E000AFF2E01002F070F89BF80A0060B1A6F863
:1076F00004A0A6F806A0A6F80AA0A6F80CA0357467
:107700003868C6F8110029E515220021A34802F0C7
:107710002AF823E500219F4802F025F8B0884FF0B1
:107720000C0BD8B95846A6F808B09D498A88CB8872
:107730009A4201D3D11A01E0D11AB43189B2B1FB16
:10774000F0FC00FB1C1CBCF1000F0AD0B1FBF0F0F8
:10775000401CB080A6F806A07281B381DFF834A285
:107760001FE0B1FBF0F0B080F4E77089B189884286
:107770001AD088F814B0BAF80010401E214480B224
:107780001AF036FBBAF800100844AAF80000718914
:1077900001220C2007F08FFC708109F1010909F02A
:1077A000FF0930894845E0D835743868C6F81100BB
:1077B000BAF800104FF44870814201D3AAF80000D3
:1077C000BAF8000000900AF102039DF81028002189
:1077D00002201CF07DFEC1E44FF00009CDF808A0A6
:1077E000CDF80CA06B48A0F800A06E488388C08834
:1077F000834223D1674B0A469B1C00210220CDF80F
:1078000000A01CF065FEF178AFF2083001F0DCFF5B
:107810009BF80A0060B1A6F804A0A6F806A0A6F896
:107820000AA0A6F80CA035743868C6F8110095E4D3
:1078300015220021594801F096FF8FE40021554898
:1078400001F091FFB088D8B9142131815548828860
:10785000C3889A4201D3D01A02E0D01A00F596707C
:1078600080B2B0FBF1FC01FB1C0CBCF1000F0AD094
:10787000B0FBF1F0401CB080A6F806A07281B38185
:10788000DFF810A120E0B0FBF1F0B080F4E77089E0
:10789000B18988421BD00D2188F81410BAF8001065
:1078A000401E214480B21AF0A3FABAF8001008442E
:1078B000AAF80000718901220D2007F0FCFB7081FD
:1078C00009F1010909F0FF0930894845DFD835740D
:1078D0003868C6F81100BAF800104FF448708142B9
:1078E00001D3AAF80000BAF8000000900AF10203E0
:1078F0009DF81028002102201CF0EAFD2EE44FF034
:1079000000090020029003909A4618802648838838
:10791000C08883421FD100240A460AF1020321468F
:10792000022000941CF0D4FDF178AFF2284001F061
:107930004BFF9BF80A0040B1B480F4807481B4819D
:1079400035743868C6F8110008E415220021134880
:1079500001F009FF31E400210E4801F004FFB08876
:1079600040BB5020308110498A88CB889A4201D38D
:10797000D11A02E0D11A01F5967189B2B1FBF0FC7F
:1079800000FB1C1CBCF1000F15D0B1FBF0F0401C3B
:10799000B0800BE03F8300207E7F0020888600209F
:1079A000B6800020F8800020028100200020F080B6
:1079B0007281B38120E0B1FBF0F0B080E9E770891B
:1079C000B18988421BD00E2188F81410BAF8001033
:1079D000401E214480B21AF00BFABAF80010084495
:1079E000AAF80000718901220E2007F064FB708163
:1079F00009F1010909F0FF0930894845DFD83574DC
:107A00003868C6F81100BAF800104FF44870814287
:107A100001D3AAF80000BAF8000000900AF10203AE
:107A20009DF81028002102201CF052FD04E44FF0C4
:107A30000009CDF808A0CDF80CA0D048A0F800A00F
:107A4000CF488388C088834223D1CC4B0A469B1CF5
:107A500000210220CDF800A01CF03AFDF178AFF231
:107A60005C5001F0B1FE9BF80A0060B1A6F804A0DA
:107A7000A6F806A0A6F80AA0A6F80CA035743868E7
:107A8000C6F8110027E415220021BE4801F06BFE64
:107A900021E40021B94801F066FEB088D8B9502031
:107AA0003081B7498A88CB889A4201D3D11A02E043
:107AB000D11A01F5967189B2B1FBF0FC00FB1C1CD8
:107AC000BCF1000F0AD0B1FBF0F0401CB080A6F86A
:107AD00006A07281B381DFF8A4A220E0B1FBF0F030
:107AE000B080F4E77089B18988421BD00F2188F8F3
:107AF0001410BAF80010401E214480B21AF078F930
:107B0000BAF800100844AAF80000718901220F2079
:107B100007F0D1FA708109F1010909F0FF093089F4
:107B20004845DFD835743868C6F81100BAF8001037
:107B30004FF44870814201D3AAF80000BAF800005F
:107B400000900AF102039DF81028002102201CF089
:107B5000BFFC07E44FF00009002002900390874B20
:107B60001880DFF824A2BAF80430BAF8060083427D
:107B70001FD10024814B0A469B1C21460220009401
:107B80001CF0A6FCF178AFF2846001F01DFE9BF8BA
:107B90000A0040B1B480F4807481B48135743868CF
:107BA000C6F811003DE415220021764801F0DBFD06
:107BB00037E40021714801F0D6FDB088DFF8CCB180
:107BC00000BB05213181BAF80420BAF806309A4288
:107BD00001D3D01A02E0D01A00F5966080B2B0FB53
:107BE000F1FC01FB1C0CBCF1000F0CD0B0FBF1F060
:107BF000401CB0800020F0807281B3818BF80000BF
:107C00008BF8010095E0B0FBF1F0B080F2E77189EC
:107C1000B08981427AD09BF80000E8BB1E22B1FBFC
:107C2000F2F002FB1010B1FBF2F100EB800303EB6A
:107C3000C01001F2911100EB0131072204A821F0DC
:107C4000B3F87089F0814FF0010A7089B189A0EB17
:107C50000A0088423FD0F1890122102007F02BFA58
:107C600080B2F0811E21B0FBF1F201FB1202B0FBE9
:107C7000F1F002EB820303EBC21200F2911002EB6F
:107C8000003107220DF5826021F08EF89DF8110475
:107C90009DF81110884200E01DE01CD19DF81204EF
:107CA0009DF81210884216D19DF813049DF8131008
:107CB000884210D19BF80000401C8BF800009BF814
:107CC0000100401C8BF801000AF1010A0AF0FF0ACA
:107CD000BAF1050FB9D3102088F81400DFF89CA082
:107CE0009BF80120BAF8000001197089801A80B24F
:107CF0001AF07EF8BAF800100844AAF800009BF8C1
:107D0000010020B1401E8BF801000EE015E09BF849
:107D100000203AB37189521C102007F0CCF9708111
:107D200000208BF801008BF8000009F1010909F02F
:107D3000FF09308948453FF66AAF35743868C6F8A0
:107D400011000E4B4FF448701988814200D31880FF
:107D500033F8020B00909DF81028002102201CF03F
:107D6000B7FB12E471890122102007F0A4F9708199
:107D700000208BF801008BF80000D6E73F8300203D
:107D80000C810020888600209B810020D2090020E1
:107D900008B58020ADF8000003208DF802004820CF
:107DA0008DF8030069460248FDF712FE08BD000089
:107DB000000C014008B58020ADF8000003208DF8CC
:107DC000020014208DF8030069460248FDF700FE0A
:107DD00008BD0000000C014008B54FF48070ADF8FC
:107DE000000002208DF8020048208DF8030069464B
:107DF0000148FDF7EDFD08BD00140140002904D045
:107E0000018841F0400101807047018821F0400164
:107E10000180704730B587B001210846FDF72CFE80
:107E20003820ADF8040003258DF8065018208DF891
:107E3000070001A91C48FDF7CBFD4FF40044ADF845
:107E400004408DF8065010208DF80700174D01A949
:107E50002846FDF7BDFD21462846FDF744FE0020DB
:107E6000ADF808004FF48271ADF80A10ADF80C00BF
:107E70000221ADF80E100121ADF810104902ADF845
:107E800012100821ADF81410ADF816000720ADF857
:107E90001800074C02A9204600F089F8012120466D
:107EA000FFF7ACFF07B030BD000C014000080140F7
:107EB000003001402DE9F04105468846144600F0A7
:107EC0005BF8134F4FF4004631463846FDF709FE84
:107ED000022000F01FF8C8F3074000F01BF8C8F3B9
:107EE000072000F017F808F0FF0000F013F803E097
:107EF000287800F00FF86D1C641EA4B2F8D2314649
:107F00003846FDF7F0FDBDE8F04100F01DB8000077
:107F10000008014010B503460A4C0221204600F03B
:107F20003FF80028F9D01946204600F05EF80121FC
:107F3000204600F035F80028F9D0204600F053F82C
:107F4000C0B210BD0030014070B50A4D4FF400447E
:107F500021462846FDF7C5FD0520FFF7DBFFA520DC
:107F6000FFF7D8FFC007FAD121462846BDE8704088
:107F7000FDF7B9BD0008014070B5084D4FF400444D
:107F800021462846FDF7ADFD0620FFF7C3FF214639
:107F90002846BDE87040FDF7A6BD0000000801407E
:107FA0000246002012890A4200D00120704730B5F5
:107FB000028802F441530A884C88CD8822438C8879
:107FC0002C4322430C8922434C8922438C8922432F
:107FD000CC8922431A430280828B22F4006282837E
:107FE000098A018230BD808970478181704770475E
:107FF0000EB508208DF8000024208DF801008DF8C2
:10800000020002218DF8031000208DF804008DF885
:1080100005108DF806000D208DF8070007210DF1E1
:10802000010027F07DF80EBD0EB509208DF8000087
:1080300024208DF801008DF8020003208DF8030044
:1080400000218DF804108DF80500074880798DF81F
:1080500006008DF807000D208DF8080008210DF1AD
:10806000010027F05DF80EBDC48B0020AFF3008047
:108070000CB50023019300932E48016841F4803130
:1080800001604FF6FF71026802F400320092019A1B
:10809000521C0192009A12B9019A8A42F3D10168E6
:1080A000890302D50121009100E000930099012984
:1080B0003FD121490A6842F010020A600A6822F0A2
:1080C00003020A600A6842F002020A6041684160E5
:1080D00041684160416841F480614160C16A174A6A
:1080E0001140C162C16A164A1143C162016841F080
:1080F0008061016001680901FCD5416821F47C11AF
:108100004160416841F4E8114160016841F08071CB
:10811000016001688901FCD5416821F003014160DB
:10812000416841F0020141604168C1F381010229C7
:10813000FAD10CBD001002400020024000F0FEFF0A
:108140004406010003490868002801D0401E086069
:1081500070470000C000002010B51248016841F0CF
:10816000010101604168104A1140416001680F4AF5
:1081700011400160016821F480210160416821F40F
:10818000FE014160016821F0A05101604FF47F01C0
:1081900081600021C162FFF769FF05494FF000606F
:1081A000086010BD001002400000FFF0FFFFF6FE67
:1081B00008ED00E010B502214C07204600F058F908
:1081C000002807D00221204600F03AF80248016852
:1081D000491D016010BD00007801002010B5074C5A
:1081E0000121204600F044F9002805D02046BDE8D2
:1081F0001040012100F024B810BD0000000800402C
:1082000010B5084C0121204600F032F9002807D0B3
:108210000121204600F014F8BDE8104018F018BE07
:1082200010BD000000100040002904D0018841F07A
:10823000800101807047018821F080010180704732
:10824000C94301827047002904D0018841F001012F
:1082500001807047018821F0010101807047000012
:1082600010B5734988420AD1C41401212046FEF793
:108270003BFB2046BDE810400021FEF735BBB0F1C6
:10828000804F0CD06B49884213D101210220FEF7A8
:108290000FFB0021BDE810400220FEF709BB0121C1
:1082A0000846FEF705FB0021BDE810400120FEF75F
:1082B000FFBA6149884209D101210420FEF7F8FA8A
:1082C0000021BDE810400420FEF7F2BA5B49884265
:1082D00009D101210820FEF7EBFA0021BDE810408A
