:020000040800F2
:10000000E01E0020510F0008590F00085B0F000888
:100010005D0F00085F0F0008610F0008000000007E
:10002000000000000000000000000000630F000856
:10003000650F000800000000670F0008690F000846
:100040006B0F00086B0F00086B0F00086B0F0008A8
:100050006B0F00086B0F00086B0F00086B0F000898
:100060006B0F00086B0F00086B0F00086B0F000888
:100070006B0F00086B0F00086B0F00086B0F000878
:100080006B0F00086B0F00086B0F00086B0F000868
:100090006B0F00086B0F00086B0F00086B0F000858
:1000A0006B0F00086B0F00086B0F00086B0F000848
:1000B0006B0F00086B0F0008791500086B0F000824
:1000C0006B0F00086B0F00086B0F00086B0F000828
:1000D0006B0F0008211600086B0F00086B0F00085B
:1000E0006B0F00086B0F00086B0F0008000000008A
:1000F0000000000000000000000000000000000000
:1001000000000000000000006B0F00086B0F0008EB
:100110006B0F00086B0F00086B0F00086B0F0008D7
:100120006B0F00086B0F00086B0F00086B0F0008C7
:100130006B0F00086B0F00086B0F00086B0F0008B7
:100140006B0F00086B0F00086B0F00086B0F0008A7
:10015000DFF80CD002F01CF800480047F914000842
:10016000E01E0020EFF30980704780F30988704794
:10017000EFF30880704780F30888704740BA7047F3
:10018000C0BA7047D848006840F00100D6490860FE
:1001900008464068D5490840D34948600846006889
:1001A000D3490840D04908600846006820F4802000
:1001B00008600846406820F4FE0048600846006871
:1001C00020F0A05008604FF47F0088600020C862D3
:1001D0007047C549096821F48031C34A116011464E
:1001E000096821F480211160B0F5803F03D0B0F59B
:1001F000802F0ED106E0BC49096841F48031BA4A2B
:10020000116007E0B849096841F4A021B64A1160BD
:1002100000E000BF00BF704710B501460022002378
:1002200000204A11012A02D1AF4C236806E0022ABD
:1002300002D1AD4C236A01E0AB4C636A01F01F02AE
:10024000012494401C400CB1012000E0002010BDAE
:1002500038B5002000900024002500BF3120FFF7B2
:10026000DBFF05460098401C00904FF6FF71009898
:10027000884201D0002DF1D03120FFF7CDFF08B129
:10028000012400E00024204638BD02460020964BA1
:10029000586820F4741042EA01031843924B5860E6
:1002A0007047944908667047024600208E4BD86A12
:1002B000914B184042EA010318438B4BD8627047B8
:1002C00001460020884AD06A20F0F0000843D0623E
:1002D000704701460020844AD06A20F470600843C9
:1002E000D0627047834988667047014600207E4A85
:1002F000506820F003000843506070477A48406817
:1003000000F00C00704701460020774A506820F04A
:10031000F00008435060704701460020724A506860
:1003200020F4E060084350607047014600206E4AA8
:10033000506820F4605040EAC100506070472DE9D9
:10034000F041002100220025002300260024002780
:100350008C46DFF89481D8F8048008F00C0121B1B4
:10036000042907D0082959D109E0DFF89081C0F8A5
:10037000008058E0DFF88881C0F8008053E0DFF8A3
:100380006881D8F8048008F47012DFF85C81D8F82E
:10039000048008F48035920C0D2A01D0921C00E0F4
:1003A000062235B9DFF85C8102FB08F8C0F800804E
:1003B00033E0DFF83481D8F82C8008F48036DFF899
:1003C0002881D8F82C8008F00F0808F1010446B9FC
:1003D000DFF82C81B8FBF4F808FB02F8C0F80080C5
:1003E0001BE0DFF80481D8F82C80C8F3031808F16B
:1003F0000107DFF8F480D8F82C80C8F3032808F14F
:10040000020CDFF8FC80B8FBF7F808FB0CF8B8FB2F
:10041000F4F808FB02F8C0F8008004E0DFF8DC80A4
:10042000C0F8008000BF00BFDFF8BC80D8F80480AF
:1004300008F0F0010909DFF8D08018F80130D0F891
:10044000008028FA03F8C0F80480DFF89C80D8F810
:10045000048008F4E061090ADFF8AC8018F8013084
:10046000D0F8048028FA03F8C0F80880DFF8788014
:10047000D8F8048008F46051C90ADFF88C8018F8B5
:100480000130D0F8048028FA03F8C0F80C80DFF8B7
:100490005880D8F8048008F44041890BDFF86C805C
:1004A00018F80130D0F80C80B8FBF3F8C0F81080D1
:1004B000BDE8F08129B10C4A926902430A4B9A6166
:1004C00004E0094A92698243074B9A61704729B157
:1004D000054AD2690243044BDA6104E0024AD26958
:1004E0008243014BDA617047001002400000FFF0C8
:1004F000FFFFF6FE00004242F0FFFEFF00127A000E
:1005000040787D0100093D0000000020100000201F
:100510002DE9F0410246002500260020002300249A
:10052000002791F803C00CF00F0591F803C00CF000
:10053000100CBCF1000F03D091F802C04CEA050585
:1005400091F800C0BCF1000F31D0146800202BE0FE
:100550004FF0010C0CFA00F3B1F800C00CEA0306EE
:100560009E4220D183004FF00F0C0CFA03F7BC43DE
:1005700005FA03FC4CEA040491F803C0BCF1280F0F
:1005800006D14FF0010C0CFA00FCC2F814C00AE0CE
:1005900091F803C0BCF1480F05D14FF0010C0CFAE3
:1005A00000FCC2F810C0401C0828D1D31460B1F878
:1005B00000C0BCF1FF0F34DD546800202EE000F1D4
:1005C000080C4FF0010808FA0CF3B1F800C00CEA6F
:1005D00003069E4221D183004FF00F0C0CFA03F763
:1005E000BC4305FA03FC4CEA040491F803C0BCF1D7
:1005F000280F05D100F1080C08FA0CF8C2F8148095
:1006000091F803C0BCF1480F07D100F1080C4FF07E
:10061000010808FA0CF8C2F81080401C0828CED354
:100620005460BDE8F0810161704741617047F0B5E9
:100630000A46002300240021002500F00046B6F100
:10064000004F02D11C4EF16901E01B4E7168C0F3EE
:10065000034583B200F44016B6F5401F08D121F0DF
:100660007061154E766826F07066134F7E6012E05A
:1006700000F48016B6F5801F06D1032606FA05F4AD
:10068000A14341F0706106E0460D360103FA06F61B
:10069000B14341F0706122B1460D360103FA06F60E
:1006A000314300F00046B6F1004F02D1024EF16135
:1006B00001E0014E7160F0BD000001401B490143A3
:1006C0001B4A1160704770B5002100230F22C478C7
:1006D00004B3174C246804F4E064C4F5E064210A10
:1006E000C1F10403CA40447804FA03F18478144049
:1006F000214309010F4C0678A155047804F01F0529
:100700000124AC4005786D11AD0005F1E025C5F878
:10071000004109E0047804F01F050124AC40064DB7
:100720000678761145F8264070BD00000000FA05F5
:100730000CED00E000E400E080E100E02DE9F0478E
:1007400086B005460E460024A24600BFA1460027FB
:10075000B08900B100BF2F462C8A4CF6FF700440D0
:10076000F08804432C82AC894EF6F3100440B08824
:1007700031890843718908430443AC81AC8A4FF640
:10078000FF400440B0890443AC8201A8FFF7D7FDC5
:100790005F48874202D1DDF810A001E0DDF80CA02F
:1007A000A88900F4004040B10AEBCA0000EB0A102F
:1007B00031684900B0FBF1F807E00AEBCA0000EB32
:1007C0000A1031688900B0FBF1F86420B8FBF0F042
:1007D00004012009642101FB1089A88900F400406C
:1007E00040B1322000EBC900B0FBF1F000F007008F
:1007F000044308E0322000EB09106421B0FBF1F063
:1008000000F00F0004432C8106B0BDE8F08721B151
:10081000828942F40052828104E082894DF6FF739E
:100820001A4082817047F0B5034600240026002557
:10083000002040F66A17B94200D100BF1846C1F344
:10084000421401F01F06012707FA06F5012C01D119
:100850000C3004E0022C01D1103000E014301AB149
:1008600007682F43076002E00768AF430760F0BDE9
:10087000C1F308028280704701468888C0F30800EF
:10088000704702460020B1F5007F00D100BF1388F9
:100890000B400BB1012000E00020704770B502460C
:1008A000002400230025002040F66A16B14200D142
:1008B00000BFC1F3421501F01F03012606FA03F33E
:1008C000012D02D19689334006E0022D02D1168A0D
:1008D000334001E0968A33400C12012606FA04F4F4
:1008E0001688344013B10CB1012000E0002070BD27
:1008F00010B50022002340F66A14A14200D100BFC7
:100900000A1201249440A3B2DC43048010BD00000D
:100910000038014000220288AC4B98420ED0AC4B0C
:1009200098420BD0B0F1804F08D0AA4B984205D026
:10093000A94B984202D0A94B984204D14FF68F732D
:100940001A404B881A43A64B984207D0A54B9842B1
:1009500004D04FF6FF431A40CB881A4302808B889D
:1009600083850B880385994B98420BD0984B98420E
:1009700008D09D4B984205D09C4B984202D09C4B8E
:10098000984201D10B7A0386012383827047F0B528
:100990000C461546002200210026078C4EF6FF7CEF
:1009A00007EA0C070784828B018C4FF6FF7707EA72
:1009B000043640F6FF473A404FF6FF7707EA05272F
:1009C0003A434FF6FF7707EA03373A437F4FB8427F
:1009D0000ED07F4FB8420BD0B0F1804F08D07D4F82
:1009E000B84205D07C4FB84202D07C4FB84206D105
:1009F0004DF6FF77394046F48057394305E047F616
:100A0000FF57394044F48057394382830184F0BD55
:100A1000F0B50C461546002200210026078C4FF643
:100A2000FF6C07EA0C070784828B018C4FF6FF7777
:100A300007EA04264FF60C773A404FF6FF7707EAAD
:100A400003172F433A43614FB8420ED0604FB8426C
:100A50000BD0B0F1804F08D05E4FB84205D05E4F4A
:100A6000B84202D05D4FB84206D14FF6FF57394029
:100A700046F48077394305E04FF2FF57394044F49C
:100A80008077394382830184F0BDF0B50C4615466A
:100A9000002200210026078C4FF6EF7C07EA0C07A6
:100AA0000784028B018C4FF6FF7707EA041640F6A5
:100AB000FF473A404FF6FF7707EA03373A434FF6CE
:100AC000FF7707EA05273A43404FB8420ED0404F20
:100AD000B8420BD0B0F1804F08D03E4FB84205D09D
:100AE0003D4FB84202D03D4FB84206D14FF6DF77B6
:100AF000394046F01007394305E04FF65F7739403B
:100B000044F01007394302830184F0BDF0B50C4670
:100B1000154600220021068C4FF6FE773E400684E3
:100B2000028B018C4FF60C7632407E1C06EA0316CF
:100B30002E433243254EB0420ED0254EB0420BD04C
:100B4000B0F1804F08D0234EB04205D0224EB042C3
:100B500002D0224EB04206D14FF6FD76314044F02D
:100B60000106314305E04FF6F576314044F00106C9
:100B7000314302830184F0BD21B1028842F00102B9
:100B8000028004E002884FF6FE731A40028070472C
:100B90001AB183890B43838102E083898B4383816C
:100BA0007047CA430282704730B5024600200023D6
:100BB0000024158A05EA0103958905EA010413B1A9
:100BC0000CB1012000E0002030BD0000002C0140ED
:100BD000003401400004004000080040000C0040C8
:100BE000001000400014004000400140004401405B
:100BF00000480140014600204E4A106800F03800CD
:100C00000843106070474B49096821F01001494AB8
:100C10001160114609680143116070474648454913
:100C2000486046484860704704204249C96801F05E
:100C3000010109B101200EE03E49C96801F004013B
:100C400009B1022007E03B49C96801F0100109B170
:100C5000032000E00420704700B502460423FFF79C
:100C6000E3FF034603E0FFF7DFFF0346521E012BBD
:100C700001D1002AF7D102B90523184600BD30B5CD
:100C8000044604252E48FFF7E7FF0546042D16D13C
:100C90002848006940F0020026490861084644617E
:100CA000006940F0400008612548FFF7D5FF054680
:100CB0002048006941F6FD7108401E490861284638
:100CC00030BD78B506460C460425002000904FF64E
:100CD000FF70FFF7C1FF0546042D26D115480069B6
:100CE00040F001001349086134804FF6FF70FFF7B0
:100CF000B3FF0546042D11D1B01C0090200C0099C3
:100D000008804FF6FF70FFF7A7FF05460948006906
:100D100041F6FE7108400749086106E00548006990
:100D200041F6FE71084003490861284678BD014933
:100D3000C86070470020024023016745AB89EFCDB2
:100D4000FFFF0F0010B50022028802F441520B8809
:100D50004C8823438C882343CC8823430C8923432A
:100D60004C8923438C892343CC8923431A43028033
:100D7000838B4FF2FF74234083830B8A038210BD61
:100D800021B1028842F04002028004E002884FF65E
:100D9000BF731A40028070470949086070470849CC
:100DA000486070470649886070474AF6AA2004499F
:100DB000086070474CF6CC4001490860704700005D
:100DC000003000400CB500200190009059480068A8
:100DD00040F480305749086000BF5648006800F46E
:100DE000003000900198401C0190009820B94FF607
:100DF000FF7101988842F0D14E48006800F400303D
:100E000010B10120009001E000200090009801281E
:100E10005CD14948006840F0100047490860084626
:100E2000006820F0030008600846006840F00200F7
:100E30000860404840683F4948600846406848604C
:100E40000846406840F4806048600846C06A3B49F4
:100E500008403849C8620846C06A394908433549DC
:100E6000C8620846006840F08060086000BF3148F2
:100E7000006800F000600028F9D02E48406820F497
:100E80007C102C4948600846406840F4E8104860EF
:100E90000846006840F08070086000BF2548006880
:100EA00000F000700028F9D02248406820F00300CC
:100EB000204948600846406840F00200486000BF92
:100EC0001C48406800F00C000828F9D10CBD10B592
:100ED000FFF778FF10BD10B51648006840F001001C
:100EE000144908600846406816490840114948609E
:100EF00008460068144908400E4908600846006822
:100F000020F4802008600846406820F4FE00486015
:100F10000846006820F0A05008604FF47F00886009
:100F20000020C862FFF7D3FF4FF000600749086058
:100F300010BD0000001002400020024000F0FEFF43
:100F4000440601000000FFF0FFFFF6FE08ED00E0A0
:100F50000648804706480047FEE7FEE7FEE7FEE753
:100F6000FEE7FEE7FEE7FEE7FEE7FEE7D70E000836
:100F70005101000800B587B001210846FFF757FB73
:100F80003820ADF8040003208DF8060018208DF8F5
:100F9000070001A9D948FFF7BBFA4FF40040ADF8AC
:100FA000040003208DF8060010208DF8070001A929
:100FB000D348FFF7ADFA4FF40041D148FFF733FBB8
:100FC0000020ADF808004FF48270ADF80A00002050
:100FD000ADF80C000220ADF80E000120ADF81000B5
:100FE0004002ADF812000820ADF814000020ADF862
:100FF00016000720ADF8180002A9C248FFF7A2FEAC
:101000000121C048FFF7BCFE07B000BD024600202A
:1010100013890B400BB1012000E000207047818153
:10102000704701468889704710B5044600BF022109
:10103000B448FFF7EBFF0028F9D02146B148FFF78D
:10104000EEFF00BF0121AF48FFF7E0FF0028F9D015
:10105000AC48FFF7E6FFC0B210BD10B500244FF456
:101060000041A748FFF7E1FA0520FFF7DDFF00BFC9
:10107000A520FFF7D9FF044604F001000028F7D1AE
:101080004FF400419E48FFF7CEFA10BD10B54FF463
:1010900000419B48FFF7C9FA0620FFF7C5FF4FF450
:1010A00000419748FFF7BFFA10BD10B50446FFF79F
:1010B000EDFF4FF400419248FFF7B7FA2020FFF709
:1010C000B3FFC4F30740FFF7AFFFC4F30720FFF7F8
:1010D000ABFFE0B2FFF7A8FF4FF400418848FFF7ED
:1010E000A2FAFFF7BAFF10BD70B505460C461646CA
:1010F000FFF7CCFF4FF400418148FFF796FA02203A
:10110000FFF792FFC4F30740FFF78EFFC4F30720F9
:10111000FFF78AFFE0B2FFF787FF03E02878FFF7C9
:1011200083FF6D1C301EA6F101018EB2F6D14FF483
:1011300000417348FFF777FAFFF78FFF70BD70B576
:1011400005460C4616462DB1B4F57A1F02D8B6F501
:10115000805F00DD70BDFFF728FE4FF40041684856
:10116000FFF763FA0320FFF75FFFC4F30740FFF7C1
:101170005BFFC4F30720FFF757FFE0B2FFF754FF10
:1011800004E0A520FFF750FF28706D1C301EA6F16B
:1011900001018EB2F5D14FF400415948FFF743FAEF
:1011A00000BFD7E72DE9F04707460D4614464FF03C
:1011B00000080026B146B2462FB1B5F57A1F02D815
:1011C000B4F5805F01DDBDE8F087FFF7EEFD05F0C7
:1011D000FF08C8F10000C6B22046E11704EB116118
:1011E000090A494A1170E11704EB11610912A4EBD5
:1011F0000121464A1170C5F30B0ABAF1000F02D162
:101200002846FFF752FFB8F1000F22D13E48007880
:1012100028B9224629463846FFF766FF6CE009E008
:101220004FF4807229463846FFF75EFF05F580755A
:1012300007F58077344801780078401E324A1070F4
:101240000029EDD13148027829463846FFF74CFF96
:1012500052E02D480078D8B92C480078B04211DD12
:101260002A480078801B00F0FF093246294638469C
:10127000FFF73AFF354437444A4629463846FFF7D8
:1012800033FF39E0224629463846FFF72DFF33E089
:10129000A01B84B22046E11704EB1161090A1A4A27
:1012A0001170E11704EB11610912A4EB0121174A37
:1012B0001170324629463846FFF716FF3544374449
:1012C00009E04FF4807229463846FFF70DFF05F517
:1012D000807507F580770C4801780078401E0A4A2F
:1012E00010700029EDD10948007828B1074802782C
:1012F00029463846FFF7F8FE00BF64E7000C0140BE
:1013000000080140003001401400002015000020BA
:1013100010B572B63648006836490860084600685D
:10132000354908603249091F0868FEF724FF324832
:101330000068804710BD10B5FFF770FC3520FFF73F
:10134000F6FC10BD70B50026FFF7F5FF78202B499D
:101350000870002511E02649091F7018FFF78FFC5F
:101360000446042C04D026A000F024FF012070BD08
:1013700006F50066FFF719FD6D1C204800788542D0
:10138000E9DB0020F3E72DE9F04104460E4617465D
:10139000002519E056F825102068FFF792FC042874
:1013A0000FD12068006856F82510884205D018A093
:1013B00000F000FF0220BDE8F0812068001D2060E1
:1013C00001E00120F7E76D1CBD4203D220681449FB
:1013D0008842DFD30020EEE7F7B50C4615462A46D3
:1013E00021466846FFF7CFFF06463046FEBD0000A7
:1013F000042800081C000020180000202000002005
:101400004572617365206572726F7220210D0A004A
:10141000CAFDBEDDD0B4C8EBB3F6B4ED0D0A0000D2
:10142000FBF7030810B545F25550FFF7B5FC052052
:10143000FFF7B5FC4FF4FA70FFF7B4FCFFF7B5FC0B
:10144000FFF7B8FC10BD10B5FEF79CFE4FF48030DE
:10145000FEF7BFFEFEF7FCFE38490870084600782C
:1014600001283BD11020FFF7CEFB0220FFF7C2FB83
:101470004020FEF725FF4FF4C060FEF72AFF012051
:10148000FEF730FF00BF3B20FEF7C6FE0028FAD073
:1014900004218803FEF708FF4FF4E0114FF4803079
:1014A000FEF7F3FE0120FEF7FCFE0020FEF72BFF07
:1014B0004FF4A060FEF739FF4FF4A060FEF72CFF59
:1014C00000BF3920FEF7A8FE0028FAD00220FEF760
:1014D0000CFF00BFFEF712FF0828FBD101210320FB
:1014E000FEF7F5FF012145F24D00FEF7E3FF012174
:1014F0001348FFF79CF810BD86B0FFF7A4FFFFF775
:1015000091FF00F02FF801A8FEF719FF4FF4A0603B
:10151000FFF7D4F84FF4E13000F0B5F840F60F6172
:10152000C72000F047F8FFF725FD02210548FFF727
:101530007AF801E000F05FFCFCE7000021000020E9
:10154000000230000008014008B50220ADF800009C
:101550008DF8020010208DF8030069460548FEF75B
:10156000D7FF08BD10B501210420FEF7A3FFFFF748
:10157000EBFF10BD0008014010B501212448FFF722
:1015800013FBB0B123480078401C22490870224860
:101590000078401C2049087020484089002804DD5C
:1015A0001E484089401E1D49488101211848FFF707
:1015B000F8FA10BD7FB505460C4601210420FEF760
:1015C00086FF0020ADF80A00ADF80600ADF808501F
:1015D000ADF8044001A90E48FFF79CF901210C4821
:1015E000FFF7CAFA012211460948FFF7D1FA1E2077
:1015F0008DF8000001208DF8030000208DF8010017
:1016000001208DF802006846FFF75DF87FBD0000FD
:101610000008004045000020440000204800002051
:1016200010B540F225513E48FFF738F9E0B13C488B
:10163000FFF722F9C4B240F225513948FFF758F9B3
:101640003848C188C088401C364AD080104600689F
:1016500044541046C088B0F5206F02DB00201146CC
:10166000C88002202F49488110BD2D4A128800BF32
:101670002B4A128802F04002002AF9D0C2B2284B4D
:101680001B1D1A80704710B586B00446012144F234
:101690000400FEF70FFF4FF40070ADF8140018209F
:1016A0008DF8170003208DF8160005A91E48FEF7D7
:1016B0002FFF4FF48060ADF8140004208DF8170060
:1016C00005A91948FEF724FF01940020ADF8100089
:1016D0000C20ADF80E000020ADF80C00ADF80A00AB
:1016E000ADF8080001A90E48FFF728F825208DF86D
:1016F000000001208DF8030002208DF801008DF814
:1017000002006846FEF7DFFF012240F2255104483F
:10171000FFF789F801210248FFF779F806B010BDFC
:1017200000380140480000200008014070B5F8482A
:10173000057800240DE0F648015DF648FFF798F8BB
:1017400000BF4021F348FFF79CF80028F9D0601C47
:10175000C4B2AC42EFDB70BD10B5EF48007814287E
:1017600000DA10BDED48007838B90120EB49087067
:101770000221EB48FEF757FF06E00020E74908701A
:101780000221E748FEF751FF00BFEAE70020E549E4
:10179000C88008810871E4480860002048817047CB
:1017A00010B5E04A528902B110BD3EE1DD4AD2884F
:1017B000DC4B1B899A4200D138E1DA4A138912893D
:1017C000521CD84C228122461268D05C22461289D3
:1017D000B2F5206F02DB002223461A81D14A12792A
:1017E000082A6ED2DFE802F004132234496E899988
:1017F000242806D10122CB4B1A710022CB4B1A7040
:1018000004E00022C74B1A71C94B1A800CE124284E
:1018100006D10222C34B1A710022C54B1A8004E084
:101820000022C04B1A71C24B1A80FDE0C14AC04B66
:101830001B88D054BE4A1288521CBD4B1A80BB4A2A
:1018400012784240B94B1A700322B64B1A71EBE082
:10185000B84AB74B1B88D054B54A1288521CB44BB7
:101860001A80B24A12784240B04B1A700202B24B50
:101870001A800422AB4B1A71D6E0AE4AAC4B1B88DF
:10188000D054AB4A1288521CA94B1A80AA4A12881B
:101890000244A94B1A80A54A12784240A34B1A7001
:1018A000A54A1288B2F5206F07DD00229D4B1A7100
:1018B0009F4B1A809D4B1A7002E00522994B1A71BA
:1018C000B2E0A9E09B4A9A4B1B88D054984A1288F0
:1018D000521C974B1A80984A1288521E964B1A80B7
:1018E000924A12784240914B1A70934A1288022A07
:1018F00002D106228B4B1A7196E08C4A12788242F2
:1019000003D10722874B1A7106E00022854B1A711A
:10191000874B1A80854B1A7086E00D2874D1824A55
:101920009278012A02D0042A6CD13AE0814AD27816
:10193000824B1A707F4A127913067E4A527903EB62
:1019400002437C4A927903EB02227A4BDB791A44F8
:101950007B4B1A60774A127A1306764A527A03EB67
:101960000243744A927A03EB0222724BDB7A1A44E6
:10197000744B1A606F4A127B734B1A700122734BBF
:101980001A70734B1A706D4A1278724B5A746C4A03
:1019900012689A606C4A12781A746A4A1268DA609D
:1019A00031E0644A9378527803EB0222D21E624BF4
:1019B0001A80604AD278684B1A705F4B1A88D31726
:1019C00002EB13631B0A644C63705B4B1A88D317DA
:1019D00002EB13631B12A2EB0323A370002107E0A9
:1019E000544B0A1D9B5C5C4CCA1CA3544A1C91B20C
:1019F000514A12889142F3DB0722554B1A7002E0DC
:101A000002E0FFE700BF00BF0022464B1A71484BBF
:101A10001A80464B1A7007E00022424B1A71444B61
:101A20001A80424B1A7000BF00BFBFE600BF00BF64
:101A3000BAE62DE9F047ADF5026D00240026002737
:101A4000A046A146A2460025424880684FEAD02918
:101A500040480089C0F30A0008B109F101094FF0BC
:101A6000000A2BE03B488068A04200D828E03948B3
:101A70008068001BB0F5006F02D34FF4006605E0EC
:101A8000344881688068C00AA1EBC026B2B204F570
:101A900000516846FFF753FB002508E01DF80500DC
:101AA00007441DF8050080EA0808681C85B2B542A5
:101AB000F4D334440AF101001FFA80FACA45D1D3A5
:101AC00000BF43463A46214624A000F073FB21485C
:101AD000C068B84208D11F48007C404504D10020AE
:101AE0000DF5026DBDE8F0870120F9E770B500251E
:101AF000002416480078401EC502174881784078B7
:101B000001EB002084B2B4F5006F3BDD012070BD15
:101B1000D01A002000380140450000204700002076
:101B20000008014048000020D010002028000020BC
:101B30002A000020680000202C0000203000002037
:101B400034000020380000203C0000202E0000203F
:101B50002F000020540000209C0800202377726989
:101B6000746520626F6F74206C656E3D25642C2057
:101B70006164645F743D25642C786F725F743D25E9
:101B8000640D0A00224605F50051F948FFF70AFBEB
:101B9000002070BD2DE9F047ADF5845D00240025DF
:101BA00000260027FFF7CEFB8046B8F1000F04D0D7
:101BB00001200DF5845DBDE8F087FFF7F6F8ED48EC
:101BC0008068C60AEB480089C0F30A0000B1761CA1
:101BD00000272FE0E7488068A04200D82CE0E548C5
:101BE0008068001BB0F5006F02D34FF4006506E07B
:101BF000E04801890089C00AA1EBC02085B22A46CD
:101C000004F5005106A8FFF79AFAA946E91705EB73
:101C100091718A10D849601806A9FFF7DDFB80464C
:101C2000B8F1000F01D00220C3E72C44FFF7BDF844
:101C3000781C87B2B742CDD300BF0020B9E710B5FA
:101C40000246042903DB40F20620814201DD002028
:101C500010BDAA2090705520D0700023022404E00B
:101C6000105D184483B2601C84B28C42F8DB180A01
:101C7000107053700120EBE7F0B5ADF5027D03461F
:101C80000A46002600240025042A02DBB2F5027F62
:101C900003DD01200DF5027DF0BD002104E00020F0
:101CA0000DF80100481C81B2B1F5027FF7DB00217D
:101CB00005E013F8010B0DF80100481C81B29142B8
:101CC000F7DB9DF800404FF6FF7000EA04249DF812
:101CD0000100204484B29DF802504FF6FF7000EAE4
:101CE00005259DF80300284485B20026022105E061
:101CF0001DF80100304486B2481C81B29142F7DBE6
:101D0000B44205D14AF65520854201D10020C1E7F1
:101D10000120BFE710B50024142200219548FFF7E9
:101D20000EFA14219348FFF7A7FF04466CB99148B7
:101D30004068924988420CD18E488068B0F56E3F69
:101D400007D208468E49086003E08E4800688C4937
:101D500008608B4800688949884223D18AA000F036
:101D600029FAFFF766FE044634B903208C4908704F
:101D70008CA000F01FFA05E08EA000F01BFA0420F2
:101D8000874908708F487B494860142200217948B0
:101D9000FFF708FA7B48FEF772FF8A497948FEF799
:101DA00090FF27E0764800688649884206D186A0E1
:101DB00000F000FA0520884908701BE0814870494E
:101DC00008607048FEF75BFF7E496E48FEF779FFBA
:101DD00082A000F0EFF905207F4908707948654935
:101DE000486014216348FFF72AFF1422002161484C
:101DF000FFF7D8F910BDFFF7C9FC0020684908704B
:101E0000FFF788FF7BA000F0D5F9A0E1FEF7CDFF3A
:101E1000FFF7A2FC62480078002830D158480068DB
:101E2000684988422BD177480078052827DD0020B3
:101E30007449087068480078401E67490870084671
:101E4000017871A000F0B6F963480078B8B971A0C4
:101E500000F0B0F9002240F225517248FEF7E3FC91
:101E600001217048FEF7D3FC002201216E48FEF7E5
:101E70008FFE00216C48FEF77FFEFFF749FAFFF75F
:101E80008FFC47480078092871D2DFE800F0700520
:101E90001B3345F5F3F2F100062041490870082094
:101EA000624908702420487088700220C8700020A1
:101EB000087102204871002088710D20C871FFF759
:101EC00035FC43E103203649087009205749087062
:101ED0002420487088700520C870002008710320F5
:101EE0004871002088710620C8710D200872FFF724
:101EF0001DFC2BE1FFF74EFE044634B94CA000F068
:101F000059F904202649087005E04FA000F052F965
:101F100005202349087019E108204449087024204D
:101F2000487088700620C87000200871022048712F
:101F3000042088710D20C871FFF7F8FB48A000F05D
:101F400039F9002240F225513648FEF76CFC012198
:101F50003448FEF75CFC002201213348FEF718FEEE
:101F600000213148FEF708FEFFF7D2F9EEE0ECE081
:101F70009F080020540000200028000821436587A6
:101F80004000002000E0030852656D6F7465207505
:101F90007067617264696E672E2E2E200D0A000034
:101FA0002F0000202323D0A3D1E9B3C9B9A623234E
:101FB0000D0A00002323D0A3D1E9CAA7B0DC232354
:101FC0000D0A0000785634122323D5FDB3A3C6F4BE
:101FD000B6AF23230D0A0000460000202323CEDEE7
:101FE000B7A8CAB6B1F0B5C4D0A3D1E9CEBB2323FC
:101FF0000D0A0000424F4F54207374617274210D1A
:102000000A00000044000020636E74203D20256417
:102010000D0A00004A756D7020746F2041505031D8
:10202000210D0A000038014000080040D01A0020AD
:10203000D0B4C8EBC6ACC4DA464C41534820B3C94F
:10204000B9A60D0A00000000D0B4C8EBC6ACC4DAD3
:10205000464C41534820B3F6B4ED0D0A0000000091
:102060004A554D5020544F20415050210D0A000038
:102070005AE036E018E0FFE70620354908700920ED
:10208000344908702420487088700520C8700020EA
:10209000087103204871012088710720C8710D2044
:1020A0000872FFF743FB51E009202A4908702420F9
:1020B000487088700320C8700020087103204871A0
:1020C00025480078887124480078C8710D2008726E
:1020D000FFF72CFB08201E4908700026FFF756FB6F
:1020E00034E0FFF703FD0546012D02D10520184914
:1020F00008701A48007818490978884208DD16489F
:102100000078401C144908700620114908700AE044
:10211000FFF78FFC05461DB902200D49087002E04B
:1021200005200B49087011E00D48007809280BDDE7
:1021300000200B490870701CC0B20646102803D15D
:10214000062003490870002600E000BF00BF5DE6DE
:102150002F000020D01A00202E0000203000002088
:102160004400002030B50B46014600202022012407
:1021700009E021FA02F59D4205D303FA02F5491B55
:1021800004FA02F52844151EA2F10102F1DC30BD6B
:10219000064C074D06E0E06840F0010394E80700B4
:1021A00098471034AC42F6D3FDF7D6FF4823000819
:1021B000682300080FB4054B10B503A9044A029820
:1021C00000F018F810BC5DF814FB00006B16000856
:1021D0002400002002E008C8121F08C1002AFAD11A
:1021E00070477047002001E001C1121F002AFBD197
:1021F000704700002DE9FF4F89B09B46044600253B
:1022000006E025280BD05A460B999047641C6D1C9C
:1022100020780028F5D10DB02846BDE8F08F0027C2
:10222000B8460122474900E0074314F8013F203B2C
:1022300002FA03F00842F7D120782E2819D114F8B9
:10224000010F47F004072A280ED06FF02F022078E4
:10225000A0F1300109290CD808EB880102EB4101FB
:1022600000EB0108641CF2E70A98641C50F8048B28
:102270000A9020780028CED0642808D0692806D09B
:1022800075281ED05A460B9990476D1C58E00A9944
:102290004FF00A0901C90A91002802DA40422D21B3
:1022A00002E0390504D52B218DF82010012103E02F
:1022B000F90704D02021F7E78A4608AE0DE0002197
:1022C000FAE70A994FF00A0901C90A91F7E7494666
:1022D000FFF748FF303106F8011D0028F7D1ADEBBC
:1022E000060000F12009780701D44FF00108C84525
:1022F00002DDA8EB090000E000208046002706E090
:1023000008A85A46C05D0B9990476D1C7F1C574525
:10231000F6DB04E030205A460B9990476D1CB8F16B
:102320000001A8F10108F5DC05E016F8010B5A469A
:102330000B9990476D1CB9F10001A9F10109F4DC7A
:10234000641C65E7092801006823000800000020DC
:1023500048000000D4210008B023000848000020F5
:10236000981E0000E42100080000000001020304A0
:102370000102030406070809020406080000000021
:10238000000000000000000000000000000000004D
:10239000000000000000000000000000000000003D
:1023A000000000000000000000000000000000002D
:04000005080001519D
:00000001FF
