:020000040800F2
:10000000E01E0020510F0008590F00085B0F000888
:100010005D0F00085F0F0008610F0008000000007E
:10002000000000000000000000000000630F000856
:10003000650F000800000000670F0008690F000846
:100040006B0F00086B0F00086B0F00086B0F0008A8
:100050006B0F00086B0F00086B0F00086B0F000898
:100060006B0F00086B0F00086B0F00086B0F000888
:100070006B0F00086B0F00086B0F00086B0F000878
:100080006B0F00086B0F00086B0F00086B0F000868
:100090006B0F00086B0F00086B0F00086B0F000858
:1000A0006B0F00086B0F00086B0F00086B0F000848
:1000B0006B0F00086B0F0008791500086B0F000824
:1000C0006B0F00086B0F00086B0F00086B0F000828
:1000D0006B0F0008211600086B0F00086B0F00085B
:1000E0006B0F00086B0F00086B0F0008000000008A
:1000F0000000000000000000000000000000000000
:1001000000000000000000006B0F00086B0F0008EB
:100110006B0F00086B0F00086B0F00086B0F0008D7
:100120006B0F00086B0F00086B0F00086B0F0008C7
:100130006B0F00086B0F00086B0F00086B0F0008B7
:100140006B0F00086B0F00086B0F00086B0F0008A7
:10015000DFF80CD002F01CF800480047F914000842
:10016000E01E0020EFF30980704780F30988704794
:10017000EFF30880704780F30888704740BA7047F3
:10018000C0BA7047D848006840F00100D6490860FE
:1001900008464068D5490840D34948600846006889
:1001A000D3490840D04908600846006820F4802000
:1001B00008600846406820F4FE0048600846006871
:1001C00020F0A05008604FF47F0088600020C862D3
:1001D0007047C549096821F48031C34A116011464E
:1001E000096821F480211160B0F5803F03D0B0F59B
:1001F000802F0ED106E0BC49096841F48031BA4A2B
:10020000116007E0B849096841F4A021B64A1160BD
:1002100000E000BF00BF704710B501460022002378
:1002200000204A11012A02D1AF4C236806E0022ABD
:1002300002D1AD4C236A01E0AB4C636A01F01F02AE
:10024000012494401C400CB1012000E0002010BDAE
:1002500038B5002000900024002500BF3120FFF7B2
:10026000DBFF05460098401C00904FF6FF71009898
:10027000884201D0002DF1D03120FFF7CDFF08B129
:10028000012400E00024204638BD02460020964BA1
:10029000586820F4741042EA01031843924B5860E6
:1002A0007047944908667047024600208E4BD86A12
:1002B000914B184042EA010318438B4BD8627047B8
:1002C00001460020884AD06A20F0F0000843D0623E
:1002D000704701460020844AD06A20F470600843C9
:1002E000D0627047834988667047014600207E4A85
:1002F000506820F003000843506070477A48406817
:1003000000F00C00704701460020774A506820F04A
:10031000F00008435060704701460020724A506860
:1003200020F4E060084350607047014600206E4AA8
:10033000506820F4605040EAC100506070472DE9D9
:10034000F041002100220025002300260024002780
:100350008C46DFF89481D8F8048008F00C0121B1B4
:10036000042907D0082959D109E0DFF89081C0F8A5
:10037000008058E0DFF88881C0F8008053E0DFF8A3
:100380006881D8F8048008F47012DFF85C81D8F82E
:10039000048008F48035920C0D2A01D0921C00E0F4
:1003A000062235B9DFF85C8102FB08F8C0F800804E
:1003B00033E0DFF83481D8F82C8008F48036DFF899
:1003C0002881D8F82C8008F00F0808F1010446B9FC
:1003D000DFF82C81B8FBF4F808FB02F8C0F80080C5
:1003E0001BE0DFF80481D8F82C80C8F3031808F16B
:1003F0000107DFF8F480D8F82C80C8F3032808F14F
:10040000020CDFF8FC80B8FBF7F808FB0CF8B8FB2F
:10041000F4F808FB02F8C0F8008004E0DFF8DC80A4
:10042000C0F8008000BF00BFDFF8BC80D8F80480AF
:1004300008F0F0010909DFF8D08018F80130D0F891
:10044000008028FA03F8C0F80480DFF89C80D8F810
:10045000048008F4E061090ADFF8AC8018F8013084
:10046000D0F8048028FA03F8C0F80880DFF8788014
:10047000D8F8048008F46051C90ADFF88C8018F8B5
:100480000130D0F8048028FA03F8C0F80C80DFF8B7
:100490005880D8F8048008F44041890BDFF86C805C
:1004A00018F80130D0F80C80B8FBF3F8C0F81080D1
:1004B000BDE8F08129B10C4A926902430A4B9A6166
:1004C00004E0094A92698243074B9A61704729B157
:1004D000054AD2690243044BDA6104E0024AD26958
:1004E0008243014BDA617047001002400000FFF0C8
:1004F000FFFFF6FE00004242F0FFFEFF00127A000E
:1005000040787D0100093D0000000020100000201F
:100510002DE9F0410246002500260020002300249A
:10052000002791F803C00CF00F0591F803C00CF000
:10053000100CBCF1000F03D091F802C04CEA050585
:1005400091F800C0BCF1000F31D0146800202BE0FE
:100550004FF0010C0CFA00F3B1F800C00CEA0306EE
:100560009E4220D183004FF00F0C0CFA03F7BC43DE
:1005700005FA03FC4CEA040491F803C0BCF1280F0F
:1005800006D14FF0010C0CFA00FCC2F814C00AE0CE
:1005900091F803C0BCF1480F05D14FF0010C0CFAE3
:1005A00000FCC2F810C0401C0828D1D31460B1F878
:1005B00000C0BCF1FF0F34DD546800202EE000F1D4
:1005C000080C4FF0010808FA0CF3B1F800C00CEA6F
:1005D00003069E4221D183004FF00F0C0CFA03F763
:1005E000BC4305FA03FC4CEA040491F803C0BCF1D7
:1005F000280F05D100F1080C08FA0CF8C2F8148095
:1006000091F803C0BCF1480F07D100F1080C4FF07E
:10061000010808FA0CF8C2F81080401C0828CED354
:100620005460BDE8F0810161704741617047F0B5E9
:100630000A46002300240021002500F00046B6F100
:10064000004F02D11C4EF16901E01B4E7168C0F3EE
:10065000034583B200F44016B6F5401F08D121F0DF
:100660007061154E766826F07066134F7E6012E05A
:1006700000F48016B6F5801F06D1032606FA05F4AD
:10068000A14341F0706106E0460D360103FA06F61B
:10069000B14341F0706122B1460D360103FA06F60E
:1006A000314300F00046B6F1004F02D1024EF16135
:1006B00001E0014E7160F0BD000001401B490143A3
:1006C0001B4A1160704770B5002100230F22C478C7
:1006D00004B3174C246804F4E064C4F5E064210A10
:1006E000C1F10403CA40447804FA03F18478144049
:1006F000214309010F4C0678A155047804F01F0529
:100700000124AC4005786D11AD0005F1E025C5F878
:10071000004109E0047804F01F050124AC40064DB7
:100720000678761145F8264070BD00000000FA05F5
:100730000CED00E000E400E080E100E02DE9F0478E
:1007400086B005460E460024A24600BFA1460027FB
:10075000B08900B100BF2F462C8A4CF6FF700440D0
:10076000F08804432C82AC894EF6F3100440B08824
:1007700031890843718908430443AC81AC8A4FF640
:10078000FF400440B0890443AC8201A8FFF7D7FDC5
:100790005F48874202D1DDF810A001E0DDF80CA02F
:1007A000A88900F4004040B10AEBCA0000EB0A102F
:1007B00031684900B0FBF1F807E00AEBCA0000EB32
:1007C0000A1031688900B0FBF1F86420B8FBF0F042
:1007D00004012009642101FB1089A88900F400406C
:1007E00040B1322000EBC900B0FBF1F000F007008F
:1007F000044308E0322000EB09106421B0FBF1F063
:1008000000F00F0004432C8106B0BDE8F08721B151
:10081000828942F40052828104E082894DF6FF739E
:100820001A4082817047F0B5034600240026002557
:10083000002040F66A17B94200D100BF1846C1F344
:10084000421401F01F06012707FA06F5012C01D119
:100850000C3004E0022C01D1103000E014301AB149
:1008600007682F43076002E00768AF430760F0BDE9
:10087000C1F308028280704701468888C0F30800EF
:10088000704702460020B1F5007F00D100BF1388F9
:100890000B400BB1012000E00020704770B502460C
:1008A000002400230025002040F66A16B14200D142
:1008B00000BFC1F3421501F01F03012606FA03F33E
:1008C000012D02D19689334006E0022D02D1168A0D
:1008D000334001E0968A33400C12012606FA04F4F4
:1008E0001688344013B10CB1012000E0002070BD27
:1008F00010B50022002340F66A14A14200D100BFC7
:100900000A1201249440A3B2DC43048010BD00000D
:100910000038014000220288AC4B98420ED0AC4B0C
:1009200098420BD0B0F1804F08D0AA4B984205D026
:10093000A94B984202D0A94B984204D14FF68F732D
:100940001A404B881A43A64B984207D0A54B9842B1
:1009500004D04FF6FF431A40CB881A4302808B889D
:1009600083850B880385994B98420BD0984B98420E
:1009700008D09D4B984205D09C4B984202D09C4B8E
:10098000984201D10B7A0386012383827047F0B528
:100990000C461546002200210026078C4EF6FF7CEF
:1009A00007EA0C070784828B018C4FF6FF7707EA72
:1009B000043640F6FF473A404FF6FF7707EA05272F
:1009C0003A434FF6FF7707EA03373A437F4FB8427F
:1009D0000ED07F4FB8420BD0B0F1804F08D07D4F82
:1009E000B84205D07C4FB84202D07C4FB84206D105
:1009F0004DF6FF77394046F48057394305E047F616
:100A0000FF57394044F48057394382830184F0BD55
:100A1000F0B50C461546002200210026078C4FF643
:100A2000FF6C07EA0C070784828B018C4FF6FF7777
:100A300007EA04264FF60C773A404FF6FF7707EAAD
:100A400003172F433A43614FB8420ED0604FB8426C
:100A50000BD0B0F1804F08D05E4FB84205D05E4F4A
:100A6000B84202D05D4FB84206D14FF6FF57394029
:100A700046F48077394305E04FF2FF57394044F49C
:100A80008077394382830184F0BDF0B50C4615466A
:100A9000002200210026078C4FF6EF7C07EA0C07A6
:100AA0000784028B018C4FF6FF7707EA041640F6A5
:100AB000FF473A404FF6FF7707EA03373A434FF6CE
:100AC000FF7707EA05273A43404FB8420ED0404F20
:100AD000B8420BD0B0F1804F08D03E4FB84205D09D
:100AE0003D4FB84202D03D4FB84206D14FF6DF77B6
:100AF000394046F01007394305E04FF65F7739403B
:100B000044F01007394302830184F0BDF0B50C4670
:100B1000154600220021068C4FF6FE773E400684E3
:100B2000028B018C4FF60C7632407E1C06EA0316CF
:100B30002E433243254EB0420ED0254EB0420BD04C
:100B4000B0F1804F08D0234EB04205D0224EB042C3
:100B500002D0224EB04206D14FF6FD76314044F02D
:100B60000106314305E04FF6F576314044F00106C9
:100B7000314302830184F0BD21B1028842F00102B9
:100B8000028004E002884FF6FE731A40028070472C
:100B90001AB183890B43838102E083898B4383816C
:100BA0007047CA430282704730B5024600200023D6
:100BB0000024158A05EA0103958905EA010413B1A9
:100BC0000CB1012000E0002030BD0000002C0140ED
:100BD000003401400004004000080040000C0040C8
:100BE000001000400014004000400140004401405B
:100BF00000480140014600204E4A106800F03800CD
:100C00000843106070474B49096821F01001494AB8
:100C10001160114609680143116070474648454913
:100C2000486046484860704704204249C96801F05E
:100C3000010109B101200EE03E49C96801F004013B
:100C400009B1022007E03B49C96801F0100109B170
:100C5000032000E00420704700B502460423FFF79C
:100C6000E3FF034603E0FFF7DFFF0346521E012BBD
:100C700001D1002AF7D102B90523184600BD30B5CD
:100C8000044604252E48FFF7E7FF0546042D16D13C
:100C90002848006940F0020026490861084644617E
:100CA000006940F0400008612548FFF7D5FF054680
:100CB0002048006941F6FD7108401E490861284638
:100CC00030BD78B506460C460425002000904FF64E
:100CD000FF70FFF7C1FF0546042D26D115480069B6
:100CE00040F001001349086134804FF6FF70FFF7B0
:100CF000B3FF0546042D11D1B01C0090200C0099C3
:100D000008804FF6FF70FFF7A7FF05460948006906
:100D100041F6FE7108400749086106E00548006990
:100D200041F6FE71084003490861284678BD014933
:100D3000C86070470020024023016745AB89EFCDB2
:100D4000FFFF0F0010B50022028802F441520B8809
:100D50004C8823438C882343CC8823430C8923432A
:100D60004C8923438C892343CC8923431A43028033
:100D7000838B4FF2FF74234083830B8A038210BD61
:100D800021B1028842F04002028004E002884FF65E
:100D9000BF731A40028070470949086070470849CC
:100DA000486070470649886070474AF6AA2004499F
:100DB000086070474CF6CC4001490860704700005D
:100DC000003000400CB500200190009059480068A8
:100DD00040F480305749086000BF5648006800F46E
:100DE000003000900198401C0190009820B94FF607
:100DF000FF7101988842F0D14E48006800F400303D
:100E000010B10120009001E000200090009801281E
:100E10005CD14948006840F0100047490860084626
:100E2000006820F0030008600846006840F00200F7
:100E30000860404840683F4948600846406848604C
:100E40000846406840F4806048600846C06A3B49F4
:100E500008403849C8620846C06A394908433549DC
:100E6000C8620846006840F08060086000BF3148F2
:100E7000006800F000600028F9D02E48406820F497
:100E80007C102C4948600846406840F4E8104860EF
:100E90000846006840F08070086000BF2548006880
:100EA00000F000700028F9D02248406820F00300CC
:100EB000204948600846406840F00200486000BF92
:100EC0001C48406800F00C000828F9D10CBD10B592
:100ED000FFF778FF10BD10B51648006840F001001C
:100EE000144908600846406816490840114948609E
:100EF00008460068144908400E4908600846006822
:100F000020F4802008600846406820F4FE00486015
:100F10000846006820F0A05008604FF47F00886009
:100F20000020C862FFF7D3FF4FF000600749086058
:100F300010BD0000001002400020024000F0FEFF43
:100F4000440601000000FFF0FFFFF6FE08ED00E0A0
:100F50000648804706480047FEE7FEE7FEE7FEE753
:100F6000FEE7FEE7FEE7FEE7FEE7FEE7D70E000836
:100F70005101000800B587B001210846FFF757FB73
:100F80003820ADF8040003208DF8060018208DF8F5
:100F9000070001A9D948FFF7BBFA4FF40040ADF8AC
:100FA000040003208DF8060010208DF8070001A929
:100FB000D348FFF7ADFA4FF40041D148FFF733FBB8
:100FC0000020ADF808004FF48270ADF80A00002050
:100FD000ADF80C000220ADF80E000120ADF81000B5
:100FE0004002ADF812000820ADF814000020ADF862
:100FF00016000720ADF8180002A9C248FFF7A2FEAC
:101000000121C048FFF7BCFE07B000BD024600202A
:1010100013890B400BB1012000E000207047818153
:10102000704701468889704710B5044600BF022109
:10103000B448FFF7EBFF0028F9D02146B148FFF78D
:10104000EEFF00BF0121AF48FFF7E0FF0028F9D015
:10105000AC48FFF7E6FFC0B210BD10B500244FF456
:101060000041A748FFF7E1FA0520FFF7DDFF00BFC9
:10107000A520FFF7D9FF044604F001000028F7D1AE
:101080004FF400419E48FFF7CEFA10BD10B54FF463
:1010900000419B48FFF7C9FA0620FFF7C5FF4FF450
:1010A00000419748FFF7BFFA10BD10B50446FFF79F
:1010B000EDFF4FF400419248FFF7B7FA2020FFF709
:1010C000B3FFC4F30740FFF7AFFFC4F30720FFF7F8
:1010D000ABFFE0B2FFF7A8FF4FF400418848FFF7ED
:1010E000A2FAFFF7BAFF10BD70B505460C461646CA
:1010F000FFF7CCFF4FF400418148FFF796FA02203A
:10110000FFF792FFC4F30740FFF78EFFC4F30720F9
:10111000FFF78AFFE0B2FFF787FF03E02878FFF7C9
:1011200083FF6D1C301EA6F101018EB2F6D14FF483
:1011300000417348FFF777FAFFF78FFF70BD70B576
:1011400005460C4616462DB1B4F57A1F02D8B6F501
:10115000805F00DD70BDFFF728FE4FF40041684856
:10116000FFF763FA0320FFF75FFFC4F30740FFF7C1
:101170005BFFC4F30720FFF757FFE0B2FFF754FF10
:1011800004E0A520FFF750FF28706D1C301EA6F16B
:1011900001018EB2F5D14FF400415948FFF743FAEF
:1011A00000BFD7E72DE9F04707460D4614464FF03C
:1011B00000080026B146B2462FB1B5F57A1F02D815
:1011C000B4F5805F01DDBDE8F087FFF7EEFD05F0C7
:1011D000FF08C8F10000C6B22046E11704EB116118
:1011E000090A494A1170E11704EB11610912A4EBD5
:1011F0000121464A1170C5F30B0ABAF1000F02D162
:101200002846FFF752FFB8F1000F22D13E48007880
:1012100028B9224629463846FFF766FF6CE009E008
:101220004FF4807229463846FFF75EFF05F580755A
:1012300007F58077344801780078401E324A1070F4
:101240000029EDD13148027829463846FFF74CFF96
:1012500052E02D480078D8B92C480078B04211DD12
:101260002A480078801B00F0FF093246294638469C
:10127000FFF73AFF354437444A4629463846FFF7D8
:1012800033FF39E0224629463846FFF72DFF33E089
:10129000A01B84B22046E11704EB1161090A1A4A27
:1012A0001170E11704EB11610912A4EB0121174A37
:1012B0001170324629463846FFF716FF3544374449
:1012C00009E04FF4807229463846FFF70DFF05F517
:1012D000807507F580770C4801780078401E0A4A2F
:1012E00010700029EDD10948007828B1074802782C
:1012F00029463846FFF7F8FE00BF64E7000C0140BE
:1013000000080140003001401400002015000020BA
:1013100010B572B63648006836490860084600685D
:10132000354908603249091F0868FEF724FF324832
:101330000068804710BD10B5FFF770FC3520FFF73F
:10134000F6FC10BD70B50026FFF7F5FF78202B499D
:101350000870002511E02649091F7018FFF78FFC5F
:101360000446042C04D026A000F024FF012070BD08
:1013700006F50066FFF719FD6D1C204800788542D0
:10138000E9DB0020F3E72DE9F04104460E4617465D
:10139000002519E056F825102068FFF792FC042874
:1013A0000FD12068006856F82510884205D018A093
:1013B00000F000FF0220BDE8F0812068001D2060E1
:1013C00001E00120F7E76D1CBD4203D220681449FB
:1013D0008842DFD30020EEE7F7B50C4615462A46D3
:1013E00021466846FFF7CFFF06463046FEBD0000A7
:1013F000042800081C000020180000202000002005
:101400004572617365206572726F7220210D0A004A
:10141000CAFDBEDDD0B4C8EBB3F6B4ED0D0A0000D2
:10142000FBF7030810B545F25550FFF7B5FC052052
:10143000FFF7B5FC4FF4FA70FFF7B4FCFFF7B5FC0B
:10144000FFF7B8FC10BD10B5FEF79CFE4FF48030DE
:10145000FEF7BFFEFEF7FCFE38490870084600782C
:1014600001283BD11020FFF7CEFB0220FFF7C2FB83
:101470004020FEF725FF4FF4C060FEF72AFF012051
:10148000FEF730FF00BF3B20FEF7C6FE0028FAD073
:1014900004218803FEF708FF4FF4E0114FF4803079
:1014A000FEF7F3FE0120FEF7FCFE0020FEF72BFF07
:1014B0004FF4A060FEF739FF4FF4A060FEF72CFF59
:1014C00000BF3920FEF7A8FE0028FAD00220FEF760
:1014D0000CFF00BFFEF712FF0828FBD101210320FB
:1014E000FEF7F5FF012145F24D00FEF7E3FF012174
:1014F0001348FFF79CF810BD86B0FFF7A4FFFFF775
:1015000091FF00F02FF801A8FEF719FF4FF4A0603B
:10151000FFF7D4F84FF4E13000F0B5F840F60F6172
:10152000C72000F047F8FFF725FD02210548FFF727
:101530007AF801E000F05FFCFCE7000021000020E9
:10154000000230000008014008B50220ADF800009C
:101550008DF8020010208DF8030069460548FEF75B
:10156000D7FF08BD10B501210420FEF7A3FFFFF748
:10157000EBFF10BD0008014010B501212448FFF722
:1015800013FBB0B123480078401C22490870224860
:101590000078401C2049087020484089002804DD5C
:1015A0001E484089401E1D49488101211848FFF707
:1015B000F8FA10BD7FB505460C4601210420FEF760
:1015C00086FF0020ADF80A00ADF80600ADF808501F
:1015D000ADF8044001A90E48FFF79CF901210C4821
:1015E000FFF7CAFA012211460948FFF7D1FA1E2077
:1015F0008DF8000001208DF8030000208DF8010017
:1016000001208DF802006846FFF75DF87FBD0000FD
:101610000008004045000020440000204800002051
:1016200010B540F225513E48FFF738F9E0B13C488B
:10163000FFF722F9C4B240F225513948FFF758F9B3
:101640003848C188C088401C364AD080104600689F
:1016500044541046C088B0F5206F02DB00201146CC
:10166000C88002202F49488110BD2D4A128800BF32
:101670002B4A128802F04002002AF9D0C2B2284B4D
:101680001B1D1A80704710B586B00446012144F234
:101690000400FEF70FFF4FF40070ADF8140018209F
:1016A0008DF8170003208DF8160005A91E48FEF7D7
:1016B0002FFF4FF48060ADF8140004208DF8170060
:1016C00005A91948FEF724FF01940020ADF8100089
:1016D0000C20ADF80E000020ADF80C00ADF80A00AB
:1016E000ADF8080001A90E48FFF728F825208DF86D
:1016F000000001208DF8030002208DF801008DF814
:1017000002006846FEF7DFFF012240F2255104483F
:10171000FFF789F801210248FFF779F806B010BDFC
:1017200000380140480000200008014070B5F8482A
:10173000057800240DE0F648015DF648FFF798F8BB
:1017400000BF4021F348FFF79CF80028F9D0601C47
:10175000C4B2AC42EFDB70BD10B5EF48007814287E
:1017600000DA10BDED48007838B90120EB49087067
:101770000221EB48FEF757FF06E00020E74908701A
:101780000221E748FEF751FF00BFEAE70020E549E4
:10179000C88008810871E4480860002048817047CB
:1017A00010B5E04A528902B110BD3EE1DD4AD2884F
:1017B000DC4B1B899A4200D138E1DA4A138912893D
:1017C000521CD84C228122461268D05C22461289D3
:1017D000B2F5206F02DB002223461A81D14A12792A
:1017E000082A6ED2DFE802F004132234496E899988
:1017F000242806D10122CB4B1A710022CB4B1A7040
:1018000004E00022C74B1A71C94B1A800CE124284E
:1018100006D10222C34B1A710022C54B1A8004E084
:101820000022C04B1A71C24B1A80FDE0C14AC04B66
:101830001B88D054BE4A1288521CBD4B1A80BB4A2A
:1018400012784240B94B1A700322B64B1A71EBE082
:10185000B84AB74B1B88D054B54A1288521CB44BB7
:101860001A80B24A12784240B04B1A700202B24B50
:101870001A800422AB4B1A71D6E0AE4AAC4B1B88DF
:10188000D054AB4A1288521CA94B1A80AA4A12881B
:101890000244A94B1A80A54A12784240A34B1A7001
:1018A000A54A1288B2F5206F07DD00229D4B1A7100
:1018B0009F4B1A809D4B1A7002E00522994B1A71BA
:1018C000B2E0A9E09B4A9A4B1B88D054984A1288F0
:1018D000521C974B1A80984A1288521E964B1A80B7
:1018E000924A12784240914B1A70934A1288022A07
:1018F00002D106228B4B1A7196E08C4A12788242F2
:1019000003D10722874B1A7106E00022854B1A711A
:10191000874B1A80854B1A7086E00D2874D1824A55
:101920009278012A02D0042A6CD13AE0814AD27816
:10193000824B1A707F4A127913067E4A527903EB62
:1019400002437C4A927903EB02227A4BDB791A44F8
:101950007B4B1A60774A127A1306764A527A03EB67
:101960000243744A927A03EB0222724BDB7A1A44E6
:10197000744B1A606F4A127B734B1A700122734BBF
:101980001A70734B1A706D4A1278724B5A746C4A03
:1019900012689A606C4A12781A746A4A1268DA609D
:1019A00031E0644A9378527803EB0222D21E624BF4
:1019B0001A80604AD278684B1A705F4B1A88D31726
:1019C00002EB13631B0A644C63705B4B1A88D317DA
:1019D00002EB13631B12A2EB0323A370002107E0A9
:1019E000544B0A1D9B5C5C4CCA1CA3544A1C91B20C
:1019F000514A12889142F3DB0722554B1A7002E0DC
:101A000002E0FFE700BF00BF0022464B1A71484BBF
:101A10001A80464B1A7007E00022424B1A71444B61
:101A20001A80424B1A7000BF00BFBFE600BF00BF64
:101A3000BAE62DE9F047ADF5026D00240026002737
:101A4000A046A146A2460025424880684FEAD02918
:101A500040480089C0F30A0008B109F101094FF0BC
:101A6000000A2BE03B488068A04200D828E03948B3
:101A70008068001BB0F5006F02D34FF4006605E0EC
:101A8000344881688068C00AA1EBC026B2B204F570
:101A900000516846FFF753FB002508E01DF80500DC
:101AA00007441DF8050080EA0808681C85B2B542A5
:101AB000F4D334440AF101001FFA80FACA45D1D3A5
:101AC00000BF43463A46214624A000F073FB21485C
:101AD000C068B84208D11F48007C404504D10020AE
:101AE0000DF5026DBDE8F0870120F9E770B500251E
:101AF000002416480078401EC502174881784078B7
:101B000001EB002084B2B4F5006F3BDD012070BD15
:101B1000D01A002000380140450000204700002076
:101B20000008014048000020D010002028000020BC
:101B30002A000020680000202C0000203000002037
:101B400034000020380000203C0000202E0000203F
:101B50002F000020540000209C0800202377726989
:101B6000746520626F6F74206C656E3D25642C2057
:101B70006164645F743D25642C786F725F743D25E9
:101B8000640D0A00224605F50051F948FFF70AFBEB
:101B9000002070BD2DE9F047ADF5845D00240025DF
:101BA00000260027FFF7CEFB8046B8F1000F04D0D7
:101BB00001200DF5845DBDE8F087FFF7F6F8ED48EC
:101BC0008068C60AEB480089C0F30A0000B1761CA1
:101BD00000272FE0E7488068A04200D82CE0E548C5
:101BE0008068001BB0F5006F02D34FF4006506E07B
:101BF000E04801890089C00AA1EBC02085B22A46CD
:101C000004F5005106A8FFF79AFAA946E91705EB73
:101C100091718A10D849601806A9FFF7DDFB80464C
:101C2000B8F1000F01D00220C3E72C44FFF7BDF844
:101C3000781C87B2B742CDD300BF0020B9E710B5FA
:101C40000246042903DB40F20620814201DD002028
:101C500010BDAA2090705520D0700023022404E00B
:101C6000105D184483B2601C84B28C42F8DB180A01
:101C7000107053700120EBE7F0B5ADF5027D03461F
:101C80000A46002600240025042A02DBB2F5027F62
:101C900003DD01200DF5027DF0BD002104E00020F0
:101CA0000DF80100481C81B2B1F5027FF7DB00217D
:101CB00005E013F8010B0DF80100481C81B29142B8
:101CC000F7DB9DF800404FF6FF7000EA04249DF812
:101CD0000100204484B29DF802504FF6FF7000EAE4
:101CE00005259DF80300284485B20026022105E061
:101CF0001DF80100304486B2481C81B29142F7DBE6
:101D0000B44205D14AF65520854201D10020C1E7F1
:101D10000120BFE710B50024142200219548FFF7E9
:101D20000EFA14219348FFF7A7FF04466CB99148B7
:101D30004068924988420CD18E488068B0F56E3F69
:101D400007D208468E49086003E08E4800688C4937
:101D500008608B4800688949884223D18AA000F036
:101D600029FAFFF766FE044634B903208C4908704F
:101D70008CA000F01FFA05E08EA000F01BFA0420F2
:101D8000874908708F487B494860142200217948B0
:101D9000FFF708FA7B48FEF772FF8A497948FEF799
:101DA00090FF27E0764800688649884206D186A0E1
:101DB00000F000FA0520884908701BE0814870494E
:101DC00008607048FEF75BFF7E496E48FEF779FFBA
:101DD00082A000F0EFF905207F4908707948654935
:101DE000486014216348FFF72AFF1422002161484C
:101DF000FFF7D8F910BDFFF7C9FC0020684908704B
:101E0000FFF788FF7BA000F0D5F9A0E1FEF7CDFF3A
:101E1000FFF7A2FC62480078002830D158480068DB
:101E2000684988422BD177480078052827DD0020B3
:101E30007449087068480078401E67490870084671
:101E4000017871A000F0B6F963480078B8B971A0C4
:101E500000F0B0F9002240F225517248FEF7E3FC91
:101E600001217048FEF7D3FC002201216E48FEF7E5
:101E70008FFE00216C48FEF77FFEFFF749FAFFF75F
:101E80008FFC47480078092871D2DFE800F0700520
:101E90001B3345F5F3F2F100062041490870082094
:101EA000624908702420487088700220C8700020A1
:101EB000087102204871002088710D20C871FFF759
:101EC00035FC43E103203649087009205749087062
:101ED0002420487088700520C870002008710320F5
:101EE0004871002088710620C8710D200872FFF724
:101EF0001DFC2BE1FFF74EFE044634B94CA000F068
:101F000059F904202649087005E04FA000F052F965
:101F100005202349087019E108204449087024204D
:101F2000487088700620C87000200871022048712F
:101F3000042088710D20C871FFF7F8FB48A000F05D
:101F400039F9002240F225513648FEF76CFC012198
:101F50003448FEF75CFC002201213348FEF718FEEE
:101F600000213148FEF708FEFFF7D2F9EEE0ECE081
:101F70009F080020540000200028000821436587A6
:101F80004000002000E0030852656D6F7465207505
:101F90007067617264696E672E2E2E200D0A000034
:101FA0002F0000202323D0A3D1E9B3C9B9A623234E
:101FB0000D0A00002323D0A3D1E9CAA7B0DC232354
:101FC0000D0A0000785634122323D5FDB3A3C6F4BE
:101FD000B6AF23230D0A0000460000202323CEDEE7
:101FE000B7A8CAB6B1F0B5C4D0A3D1E9CEBB2323FC
:101FF0000D0A0000424F4F54207374617274210D1A
:102000000A00000044000020636E74203D20256417
:102010000D0A00004A756D7020746F2041505031D8
:10202000210D0A000038014000080040D01A0020AD
:10203000D0B4C8EBC6ACC4DA464C41534820B3C94F
:10204000B9A60D0A00000000D0B4C8EBC6ACC4DAD3
:10205000464C41534820B3F6B4ED0D0A0000000091
:102060004A554D5020544F20415050210D0A000038
:102070005AE036E018E0FFE70620354908700920ED
:10208000344908702420487088700520C8700020EA
:10209000087103204871012088710720C8710D2044
:1020A0000872FFF743FB51E009202A4908702420F9
:1020B000487088700320C8700020087103204871A0
:1020C00025480078887124480078C8710D2008726E
:1020D000FFF72CFB08201E4908700026FFF756FB6F
:1020E00034E0FFF703FD0546012D02D10520184914
:1020F00008701A48007818490978884208DD16489F
:102100000078401C144908700620114908700AE044
:10211000FFF78FFC05461DB902200D49087002E04B
:1021200005200B49087011E00D48007809280BDDE7
:1021300000200B490870701CC0B20646102803D15D
:10214000062003490870002600E000BF00BF5DE6DE
:102150002F000020D01A00202E0000203000002088
:102160004400002030B50B46014600202022012407
:1021700009E021FA02F59D4205D303FA02F5491B55
:1021800004FA02F52844151EA2F10102F1DC30BD6B
:10219000064C074D06E0E06840F0010394E80700B4
:1021A00098471034AC42F6D3FDF7D6FF4823000819
:1021B000682300080FB4054B10B503A9044A029820
:1021C00000F018F810BC5DF814FB00006B16000856
:1021D0002400002002E008C8121F08C1002AFAD11A
:1021E00070477047002001E001C1121F002AFBD197
:1021F000704700002DE9FF4F89B09B46044600253B
:1022000006E025280BD05A460B999047641C6D1C9C
:1022100020780028F5D10DB02846BDE8F08F0027C2
:10222000B8460122474900E0074314F8013F203B2C
:1022300002FA03F00842F7D120782E2819D114F8B9
:10224000010F47F004072A280ED06FF02F022078E4
:10225000A0F1300109290CD808EB880102EB4101FB
:1022600000EB0108641CF2E70A98641C50F8048B28
:102270000A9020780028CED0642808D0692806D09B
:1022800075281ED05A460B9990476D1C58E00A9944
:102290004FF00A0901C90A91002802DA40422D21B3
:1022A00002E0390504D52B218DF82010012103E02F
:1022B000F90704D02021F7E78A4608AE0DE0002197
:1022C000FAE70A994FF00A0901C90A91F7E7494666
:1022D000FFF748FF303106F8011D0028F7D1ADEBBC
:1022E000060000F12009780701D44FF00108C84525
:1022F00002DDA8EB090000E000208046002706E090
:1023000008A85A46C05D0B9990476D1C7F1C574525
:10231000F6DB04E030205A460B9990476D1CB8F16B
:102320000001A8F10108F5DC05E016F8010B5A469A
:102330000B9990476D1CB9F10001A9F10109F4DC7A
:10234000641C65E7092801006823000800000020DC
:1023500048000000D4210008B023000848000020F5
:10236000981E0000E42100080000000001020304A0
:102370000102030406070809020406080000000021
:10238000000000000000000000000000000000004D
:10239000000000000000000000000000000000003D
:1023A000000000000000000000000000000000002D
:04000005080001519D
:020000040800F2
:1028000048EE002065290008815A0008D9510008C7
:102810007F5900083D4100083D7900080000000094
:102820000000000000000000000000002368000815
:10283000254D000800000000695D00087969000866
:102840007F2900087F2900087F2900087F290008C8
:102850007F2900087F2900087F2900087F290008B8
:102860007F2900087F2900087F2900087F290008A8
:102870007F2900087F2900087F2900087F29000898
:102880007F2900087F2900087F29000809420008E5
:10289000414100087F2900089D4100087F29000868
:1028A0007F2900087F2900087F2900087F29000868
:1028B000E96900087F290008116A00087F290008DB
:1028C0007F2900087F2900087F2900087F29000848
:1028D0007F290008ED6F0008E1700008F171000821
:1028E000814D00087F2900087F29000800000000B2
:1028F00000000000000000000000000000000000D8
:1029000000000000000000007F2900087F29000867
:102910005D6E0008FD6E0008356A00087F2900081A
:102920007F2900087F2900087F2900087F290008E7
:102930007F2900087F2900087F2900087F290008D7
:102940007F2900087F2900087F290008515C0008C2
:10295000DFF80CD000F0ACFD004800479575010889
:1029600048EE00200648804706480047FEE7FEE79D
:10297000FEE7FEE7FEE7FEE7FEE7FEE7FEE7FEE72F
:102980008D6900085129000840EA01039B0703D024
:1029900009E008C9121F08C0042AFAD203E011F89E
:1029A000013B00F8013B521EF9D27047D2B201E060
:1029B00000F8012B491EFBD270470022F6E710B544
:1029C00013460A4604461946FFF7F0FF204610BD9D
:1029D000421C10F8011B0029FBD1801A704730B54A
:1029E00004460020034600E05B1C934203D2E05CF7
:1029F000CD5C401BF8D030BD034611F8012B00F828
:102A0000012B002AF9D118467047000070B50F4D10
:102A100000B92868002412E00A4602E09E4203D072
:102A2000521C1378002BF9D1DAB2224305D02BB116
:102A300024B1002100F8011B04E00446401C067884
:102A4000002EE9D12860204670BD0000F409002066
:102A500070B5064604F0ACFF046805460A22002162
:102A6000304600F0C1FB2C6070BD70B5064604F026
:102A70009FFF046805460A220021304600F0B4FB9F
:102A80002C6070BDF0B480EA0102D40F4200B2EBBA
:102A9000410F02D20246084611464A0042D0C30DF9
:102AA000DDB2C1F3C752AD1A202D35DAC1F31601DC
:102AB00041F4000204B15242C5F1200602FA06F1C7
:102AC0002A411044B3EBD05F23D0C4B1012DA0EB59
:102AD000C35009DCF0BC4FF0004202EAC352DBB243
:102AE00000F5000000F0C1BB400000F1807000EB79
:102AF000C350A0F1807040EAD170490009E0490854
:102B000041EAC071A0EBC35000F50000400800EBA3
:102B1000C350F0BC00F0A0BB6142012202EB4101B6
:102B2000001BF6E7F0BC704781F00041AAE780F097
:102B30000040A7E780EA010210B502F00043400020
:102B400022D04A001FD0010E01EB1261C0F35600E3
:102B5000C2F3560240F4000042F40002A0FB02203F
:102B600000047F39140400D0401C50EA124001D404
:102B70004000491EC2B20C0604EBD010401C4008B5
:102B8000802A02D003E0002010BD20F001000029BF
:102B900000DA0020184310BD30B480EA010202F0D0
:102BA000004530F0004221F0004013D090B1C30D39
:102BB000D40DC2F31601C0F31600E41A41F400016B
:102BC00040F400027D34914201D3641C00E04900CE
:102BD000002C02DA30BC002070474FF400000023C4
:102BE000914201D3891A034340084FEA4101F7D1CA
:102BF00051B1914202D14FF0004105E002D24FF0B5
:102C0000010101E06FF0010103EBC450284430BC26
:102C100000F022BB2DE9FE4F804681EA0300C00F81
:102C20000C46009021F0004123F00045B8EB020073
:102C3000A94105D24046214690461C460B46024615
:102C400023F00040104347D0270DC7F30A00C3F319
:102C50000A510290401A019040286BDAC3F3130026
:102C600040F4801B0098924620B10023D2EB030A67
:102C700063EB0B0B01985946C0F14002504600F03F
:102C800034FA06460D4650465946019A00F04CFA71
:102C900010EB08006141002487EA115284EAE773CF
:102CA0001A4340D0009A62B3019A012A4FEA0752B0
:102CB00015DC001B61EB02014FF0004202EA0752F3
:102CC000CDE90042001C41F5801132462B4600F050
:102CD00009FB03B0BDE8F08F40462146F9E7001B31
:102CE00061EB0201001C41F5801300185B412018C4
:102CF000A2F5001747EB030140EAD570B6196D4104
:102D000011E06D084FEA360645EAC0754FEA0752F2
:102D1000001B61EB0201001C41F5801149084FEADC
:102D200030000019514132462B4603B0BDE8F04F48
:102D300000F0C9BA0098012240000023D0EB020243
:102D400063EBE073009821464FEAE074B8EB0000B3
:102D500061EB0401E9E783F000435BE781F00041A8
:102D600058E72DE9FE4F81EA030404F0004421F006
:102D7000004100944FF0000B23F0004350EA01049F
:102D80005ED052EA03045BD0C3F30A54C1F30A5580
:102D90002C44A4F2F3340194A0FB0254C1F31301B8
:102DA00041F48011C3F3130343F4801301FB024485
:102DB00000FB034E840A970A44EA815447EA83578A
:102DC000A4FB076802958D0A05FB07854FEA932C43
:102DD00004FB0C542705029D4FEA065847EA1637B4
:102DE000B5EB08056EEB070C870E920E47EA8117CC
:102DF00042EA8312A7FB0201B6EB0B0164EB00046D
:102E00002B0D43EA0C335E1844EB1C50DA46514656
:102E1000E7FB0201C5F313044FEA0B3343EA1453F3
:102E20004FEA0432019C43EA0603A4F10C04029425
:102E3000009CCDE900B400F055FA03B0BDE8F08F76
:102E400000200146F9E72DE9F04D81EA030404F082
:102E5000004B21F0004514464FF0000A23F00041DA
:102E600050EA050220D054EA01021DD0C5F30A57EA
:102E70000246C5F31303C1F31300C1F30A5640F42D
:102E8000801543F48013A7EB0608101BD64608F202
:102E9000FD3873EB050002D308F1010801E0921838
:102EA0005B41B8F1000F03DA00200146BDE8F08D68
:102EB00000204FF48011064684460EE0171B73EB8A
:102EC000050705D3121B63EB050306434CEA010C0F
:102ED00049084FEA300092185B4150EA0107EDD1F2
:102EE00052EA030012D082EA040083EA0501084393
:102EF00005D0101BAB4106D20122002306E00022C0
:102F00004FF0004302E06FF0010253101AEB06008D
:102F10004CEB085110EB0A0041EB0B01BDE8F04D02
:102F200000F0D1B996230022114600F09EB90EB5EB
:102F3000C10F80EAE0700844CA07002140F2334321
:102F40008DE80E000A460B4600F0CCF903B000BD38
:102F500020F00040C10DC0F3160040F400007F29AE
:102F600001DA00207047962903DCC1F19601C840C0
:102F7000704796398840704770B5C1F30A5201F026
:102F800000450024C1F3130140F2FF3341F48011E6
:102F90009A4201DA002070BD40F233439A42A2F215
:102FA000334203DC524200F0AFF800E090402C4383
:102FB000F1D0404270BDC1F30A5210B5C1F3130104
:102FC00040F2FF3341F480119A4201DA002010BD33
:102FD00040F233439A42A2F2334203DC524200F001
:102FE00093F810BD904010BD00F0004230F000405A
:102FF0000AD0C10D01F56071C0F3160042EA01511B
:10300000C20840071143704700200146704701F095
:10301000004330B421F0004150EA010206D00A0D0D
:10302000A2F56072C1F31301002A02DC30BC00205B
:103030007047440F44EAC104C100E01830BC00EB03
:10304000C25000F009B90000002801DBC0F10040C7
:10305000002901DBC1F100418142704730B50B46C8
:10306000014600202022012409E021FA02F59D42B8
:1030700005D303FA02F5491B04FA02F52844151E8C
:10308000A2F10102F1DC30BD2DE9F05F0546002020
:1030900092469B4688460646814640241BE02846C9
:1030A00041464746224600F02FF853465A46C01A7A
:1030B000914110D311461846224600F016F82D1AF9
:1030C00067EB01084F4622460120002100F00DF871
:1030D00017EB00094E41201EA4F10104DFDC484635
:1030E00031462A464346BDE8F09F202A04DB203AB9
:1030F00000FA02F1002070479140C2F1200320FA4B
:1031000003F3194390407047202A04DB203A21FA48
:1031100002F00021704721FA02F3D040C2F12002F0
:103120009140084319467047202A06DBCB17203A06
:1031300041FA02F043EAE07306E041FA02F3D040BC
:10314000C2F1200291400843194670470FB4002392
:1031500000B589B00CA900910B996FF00042CB60CB
:103160001E4B06931E4B07930423CDE901321D4AE3
:10317000089202466B46002000F04EFA09B05DF856
:1031800014FB70B586B006464FF0FF300091CDE9D4
:103190000101002015460C4604903246694604A8F9
:1031A000FFF7D4FF02460498211825B108B108465C
:1031B00000E020462860049800280DD0002A02DD97
:1031C0000098884208D0081B0094CDE901043246DB
:1031D000694604A8FFF7BAFF06B070BD5138000871
:1031E0006F380008DD3400082DE9F04791460F469E
:1031F00080460446002614F8015B2DB100F06AF900
:103200000068405DC007F6D12B2D02D02D2D18D0BF
:10321000641E4A463946204600F03AFB27B1396819
:10322000A14201D1C7F8008071054FF002040BD50F
:103230004042002803DD04F0BBFB0460A007BDE8AA
:10324000F08746F48066E4E70028F8DA04F0B0FB83
:1032500004606FF00040F2E70029A8BF7047401CEF
:10326000490008BF20F00100704710B4B0FA80FC9C
:1032700000FA0CF050EA010404BF10BC704749B1D9
:10328000CCF1200421FA04F411FA0CF118BF012149
:1032900021430843A3EB0C01CB1D4FEA00614FEA29
:1032A000102042BF002010BC704700EBC3501044F8
:1032B0000029A4BF10BC7047401C490008BF20F083
:1032C000010010BC704710B5141E73F1000408DA39
:1032D000401C41F1000192185B411A4301D120F0DA
:1032E000010010BD2DE9F04D92469B4611B1B1FA97
:1032F00081F202E0B0FA80F220329046FFF7F5FE4C
:1033000004460F4640EA0A0041EA0B0153465A467A
:10331000084313D0114653EA010019D0C8F1400206
:103320005046FFF7F1FE05460E46504659464246C6
:10333000FFF7DBFE084305D0012004E020463946B4
:10334000BDE8F08D0020054346EAE0762C43374384
:103350000A986305E40AA0EB08000022FD0A44EA8B
:1033600047540A3002D500200146E9E7010510194B
:103370006941DDE9084500196941BDE8F04DA2E762
:1033800070B521F0004303430CD0C1F30A5500246B
:10339000D5EB040564EB0403D617AD1AB34102DB89
:1033A0000020014670BD201841EB025170BD2DE98F
:1033B000F04D00231A461B1A8A4103DB0020014608
:1033C000BDE8F08DC1F30A52C1F3130141F4801539
:1033D0004FF0000BD10702D100186D41521E00279B
:1033E000044640F2FF11384601EB620A3E46804631
:1033F000024600204FF48011FFF786FEC21971418A
:10340000BB1846EB0100B4EB030C75EB000C04D3C6
:10341000E41A65EB000517460E46241908F1010071
:103420006D4180463428E3DDF91946EB0600091B9F
:10343000A84103D24FF0FF32134601E000221346A9
:103440001BEB070046EB0A51BDE8F04DFFF73BBF11
:10345000C1F30A52C1F3130140F2FF3341F480116A
:103460009A4202DA00200146704740F233439A4202
:10347000A2F2334202DC5242FFF746BEFFF735BEEE
:1034800030B5041E71F1000404DB4FF000444042EB
:1034900064EB0101141E73F1000405DB1C464FF0C0
:1034A0000043524263EB0403994208BF904230BD8F
:1034B000064C074D06E0E06840F0010394E8070081
:1034C00098471034AC42F6D3FFF746FA70AD0208C5
:1034D00090AD0208004870470C9B020810B50446E6
:1034E000FFF7F8FF0068005D00F0010010BD00006C
:1034F0002DE9FF4F087883B09946FF2805D0491C75
:103500002D2804D00024002008E000200BE0012436
:10351000F9E700EB800003EB4000491C0B78FF2B20
:10352000F7D104B1404200230293147819461D4696
:103530002D2C01D02B2C04D1521C2D2C13D0002467
:103540000294AA461478FF2C0FD00A25A3FB057815
:1035500001FB05814FF0000C03FB0C11521CE31919
:103560004AEB0101EEE70124EAE7814453EA010056
:1035700002D019F5C87F06DA03980021C0E90011CE
:1035800007B0BDE8F08F0025AE4E2F46DFF8B882B9
:10359000184600F0DAF9CDE90001B9F1000002DACD
:1035A000C9F1000400E004460023A74A1AEB030B0C
:1035B00042EB045A12E0E00707D02A463346384669
:1035C0004146FFF7CEFB074688462A46334610465B
:1035D0001946FFF7C6FB05460E466410002CEAD1DB
:1035E000DDE90001B9F1000F5A46534606DAFFF74C
:1035F0002AFC3A464346FFF726FC05E0FFF7B1FBFD
:103600003A464346FFF7ADFB029A0AB181F000410A
:10361000039AC2E90001B3E72DE9FF4F1F468DB0C1
:10362000D7E901464FF0FF382E2045464FF00009FC
:103630000B90B9696D1C0E988847396A8246884795
:103640000028F6D1BAF1FF3F0AD024F4D064002E4E
:1036500011DDBAF12B0F08D0BAF12D0F0BD102E01A
:10366000404611B08DE744F48064B9696D1C0E9832
:1036700088478246761E6946600501D52D2000E008
:103680002B208DF8000001F1010B0DF1200809E05D
:10369000B9696D1C0E98884782460F9844F40074EF
:1036A000761E0560002E02DDBAF1300FF0D00B99C6
:1036B0008A453ED144F0800406E00F99681CA9F1C8
:1036C000010944F400740860B9696D1C761E0E98F7
:1036D000884782463028F0D02BE00B998A4505D1E7
:1036E000200603D444F08004761E18E0504604F00F
:1036F000A5FB08B30DF11301761E44F400748B454D
:1037000008D2AAF130000BF8010B200607D5A9F169
:10371000010003E0200602D409F101008146A00562
:1037200002D50F99681C0860B9696D1C0E9888470E
:103730008246002ED1DC53E0002E51DDBAF1650F38
:1037400002D0BAF1450F4BD1A00549D5B9696D1C1E
:1037500024F44074761E0E9888478246002E0CDDB5
:103760002B2804D0BAF12D0F07D144F48074B96925
:103770006D1C0E9888478246761EE00501D52D21E6
:1037800000E02B2108F8011BCDF82C8021E00DF181
:103790002901761E44F4007488450CD2AAF1300049
:1037A00010F0FF0088F8000002D10B99884509D974
:1037B00008F1010806E0E00501D5244801E042F2E5
:1037C0000F708146B9696D1C0E98884782460F9824
:1037D0000560002E04DD504604F030FB0028D6D1F1
:1037E000F9690E988847FF208BF8000088F80000E0
:1037F0000020069007904B466A4608A906A8FFF7E6
:1038000077FEA00502D46FF001002AE714F0240F20
:103810000AD0E00714D1DDE906123868031D3B60C9
:103820000068C0E900120BE0DDE90601FFF7EFFBDD
:103830000146E00704D13868021D3A600068016063
:1038400028460EE7000014400000F03FF1D8FFFFCB
:10385000426842B1016811F8013B23B1521EC0E930
:103860000012184670470121C160881E70474268E7
:103870005AB1C368016843B983688B4205D0491EB9
:10388000521CC0E90012002070474FF0FF30704713
:103890002DE9F05F82460078002715468B460AF135
:1038A0000104B946302801D09DB113E014F8010B92
:1038B0000127782803D0582801D045B10AE00DB17E
:1038C000102D07D10027102514F8010B02E0082560
:1038D00000E00A250026B0460EE005FB080005FBC7
:1038E00006F1012701EB10461FFA80F8B6F5803F7C
:1038F00000D3B94614F8010B294600F018F8002847
:10390000EBDABBF1000F05D00FB1641E00E05446A6
:10391000CBF80040B9F1000F06D004F049F80221BD
:103920000160C81EBDE8F09F48EA0640FAE73A2861
:1039300000D2303820F02002412A01D3A2F1370012
:10394000884201D34FF0FF3070470EB540F233424A
:1039500002920022CDE900221346FFF7C3FC03B018
:1039600000BD70B58C1810F8015B15F0070301D18C
:1039700010F8013B2A1106D110F8012B03E010F8D2
:10398000016B01F8016B5B1EF9D12B0705D40023F5
:10399000521E0DD401F8013BFAE710F8013BCB1A97
:1039A000921C03E013F8015B01F8015B521EF9D58C
:1039B000A142D8D3002070BD38B50224ADF8004034
:1039C0008DF8024004208DF803000E4D694628460C
:1039D00001F040FB4021ADF800108DF80240482175
:1039E0008DF803106946284601F034FB0121ADF83B
:1039F000001000218DF803106946284601F02AFBCB
:103A000038BD000000100140002904D0816841F059
:103A1000010181607047816821F001018160704778
:103A2000002904D0816841F4807181607047816809
:103A300021F4807181607047014600208968490740
:103A400000D501207047014600208968090700D58C
:103A50000120704710B542680E4B1A400C790B6874
:103A600042EA04221343436082680B4B1A40D1E9B7
:103A7000024323434C7942EA440213438360C26AFF
:103A800022F47002097C491EC9B242EA0151C162A6
:103A900010BD0000FFFEF0FFFDF7F1FF70B5072637
:103AA00009290AD9C568A1F10A0404EB4404A64017
:103AB000B543A3401D43C56007E0056901EB410420
:103AC000A640B543A3401D4305611F23072A09D221
:103AD000446B521E02EB820293409C4391400C4384
:103AE000446370BD0D2A09D2046BD21F02EB82021F
:103AF00093409C4391400C43046370BDC46A0D3AEB
:103B000002EB820293409C4391400C43C46270BD1F
:103B1000816841F0080181607047002904D0816804
:103B200041F4A00181607047816821F4A0018160A7
:103B30007047816841F004018160704710B586B01C
:103B40000124ADF8004004208DF8030002208DF818
:103B500002006946254801F07DFA0121480202F081
:103B60003DF9002002F006F9002001908DF8084090
:103B70008DF809404FF460210391049003208DF8E3
:103B800014001B4C01A92046FFF764FF0523012206
:103B90000A212046FFF782FF052302220B2120463F
:103BA000FFF77CFF052303220C212046FFF776FF59
:103BB00001212046FFF734FF01212046FFF724FFB3
:103BC0002046FFF7A5FF2046FFF73DFF0028FAD16A
:103BD0002046FFF7AEFF2046FFF72EFF0028FAD160
:103BE00001212046FFF799FF06B010BD00100140EB
:103BF0000024014030B58FB00546D01E302830D2A9
:103C000002A804F03BF99DF80B10174A174B00244B
:103C1000012904D0022909D003290ED018E0106828
:103C200020F44070106083F83A4011E0106840F4CE
:103C30004070106083F83A400AE0106820F4407049
:103C400000F580701060552083F83A000BF086F97B
:103C50000BF084F9064B00220121284600941EF047
:103C600047FC0FB030BD000098010020C672002054
:103C70005089020810B58EB00446D31E302B0AD2EC
:103C800001A804F0FBF800210A460091034B012132
:103C900020461EF02DFC0EB010BD00005089020819
:103CA000F0B5044600202488052A00D9F0BD114F44
:103CB0001DE0C2F10506DFF83CC037F81650ACF144
:103CC0002C0CB4FBF5F51CF80550012B02D1302D5E
:103CD00000D000231BB901F8015B401CC0B237F8CB
:103CE0001650B4FBF5F605FB1644521ED2B2002A5C
:103CF000DFD1F0BDB48A0208034B9860D9601A6125
:103D000001201875704700008C270020034B986035
:103D1000D9601A610120187570470000A82700209B
:103D20002DE9F84F00240025FF200090E24F4FF0CE
:103D30000109A0463878002823D07879C10703D13B
:103D4000810701D440071CD5DC480178C90708D198
:103D5000C078410605D4800603D4D948407880074E
:103D60000FD501F09DFFD648103880F8009080F8FC
:103D70000180032181700146032246F2460018F0BB
:103D8000EFFDDFF83CA37878CE4EAAF1240A80B389
:103D9000327E9AF80400824201D1F87848B3F17D6E
:103DA000B07D09F014FA83465946C7A004F0C6F85E
:103DB000BBF1070F2FD2DFE80BF0040A10161D230A
:103DC0002900B879400626D58AF8059023E0B8790D
:103DD000C00720D08AF805901DE0B87980071AD571
:103DE0008AF8059017E0B879400714D58AF805904D
:103DF00011E022E0B87900070DD58AF805900AE0B5
:103E0000B879C00607D58AF8059004E0B87980062D
:103E100001D58AF80590307E8AF8040087F803807F
:103E20009AF8050048B1A6480C3880F8009080F850
:103E3000019080F8029080F80390A14824384079DE
:103E4000002874D0DFF87092022709F10C09A9F15B
:103E5000040AA9F1080B9848C1790120A040014249
:103E60007DD034B1012C50D0022C79D0032C26D136
:103E7000C7E09AA004F062F8B27E717E9BA004F0C5
:103E80005DF88D48427A017A9EA004F057F88A487E
:103E9000C27A817AA1A004F051F889490C390878D6
:103EA00000280CD0012802D0022808D108E082485E
:103EB000717E007A884202D181480C380770D9E0BF
:103EC0007D48B17E407A88421ED101F0E9FE7C48EF
:103ED0000C3880F800807849887A0A7A801AC0EB1A
:103EE00000124FF6FF7000EA8200CA7A497A511A2E
:103EF0000844734910390F70020A4A70887003220F
:103F000041F29E7018F02CFDB4E06D490C394878F0
:103F100038B3012802D0022835D109E06648717E05
:103F2000007B88422FD166480C3847702BE0C1E0F7
:103F30006148B17E407B884225D101F0B1FE6048E6
:103F40000C3880F801805C489BF80810807B401A90
:103F5000C0EB00114FF6FF7000EA810002E093E031
:103F600015E010E09BF80B109BF80920891A084413
:103F7000534910390F70020A4A708870032241F2C7
:103F80009E7018F0EDFC6BA003F0D8FF72E04C4976
:103F90000C398878A0B3012802D002286AD108E041
:103FA0004548717E007C884264D145480C38877052
:103FB00060E04148B17E407C88425BD101F070FEF8
:103FC0003F480C3880F802803B489AF80810807C03
:103FD000401AC0EB00114FF6FF7000EA81009AF81A
:103FE0000B109AF80920891A0844354910390F70C6
:103FF000020A4A708870032241F29E7018F0B0FCE9
:1040000038E02F490C39C878A0B3012802D0022823
:1040100030D108E02848717E007D88422AD12848A6
:104020000C38C77026E02448B17E407D884221D1FB
:1040300001F036FE22480C3880F803801E4899F8BB
:104040000810807D401AC0EB00114FF6FF7000EAA7
:10405000810099F80B1099F80920891A0844184929
:1040600010390F70020A4A708870032241F29E7064
:1040700018F076FC0098A04206D00094294610481B
:104080006D1C0838EDB24454641CE4B2042CFFF4F7
:10409000E2AE00200A490C390A1D05E0135CCB5C36
:1040A000002B07D1401CC0B2A842F7D304482438E3
:1040B00080F80580BDE8F88F249A00209401002044
:1040C000DC090020C84E002020BDF1CCECCAC7D6C8
:1040D000DC202020202564200D0A0000CAB1BCE4A9
:1040E000B6CED2BB3A200D0A00000000CFB5CDB34A
:1040F000CAB1BCE43A202532783A253278200D0A3C
:1041000000000000BFAACABCCAB1BCE4A3BA2532F1
:10411000783A253278200D0A00000000B9D8B1D5D0
:10412000CAB1BCE4A3BA2532783A253278200D0A08
:104130000000000020200D0A00000000FEE7000043
:1041400038B500240094124D0421284600F068F987
:10415000012811D00821284600F062F9012811D069
:104160000C480460446002460021284600F04AFAE8
:1041700009490120087038BD2846BDE838400421AF
:1041800000F084B82846BDE83840082100F07EB829
:1041900000640040308E0020448E002070B5194C21
:1041A0004FF40031204600F071F84FF48031204682
:1041B00000F06CF82115204600F068F8E514294657
:1041C000204600F063F8E113204600F05FF8A115E7
:1041D000204600F05BF866153146204600F056F8A0
:1041E0002946204600F052F83146204600F04EF8AD
:1041F0000421204600F04AF82046BDE87040042122
:1042000000F044B80064004070B51E4C00261E4DFE
:10421000207800280FD00121284600F001F901285C
:1042200009D10121284600F031F800220121284659
:1042300000F05CF92670607878B10121284600F022
:10424000EFF8012809D10121284600F01FF80022CB
:104250000121284600F04AF96670A07800280FD0A6
:104260000121284600F0DCF8012809D10121284667
:1042700000F00CF800220121284600F037F9A67062
:1042800070BD0000B00900200064004030B5082374
:1042900010240422B1F5007F33D011DC20292AD06C
:1042A00007DC012922D0042923D0082900D1C460C9
:1042B00030BD402921D0B1F5807FF9D1426030BDB9
:1042C0000025B1F5004F20D008DCB1F5806F1AD081
:1042D000B1F5006FF3D18561426030BDB1F5803F2B
:1042E0000DD0B1F5003FF8D1446030BD0849816080
:1042F00030BDC36030BD036130BD046130BD43607B
:1043000030BD426030BD426030BD8561426030BD2D
:104310000101010010B50C4988420AD101214C0667
:10432000204601F04DFD2046BDE81040002101F07F
:1043300047BD01218C06204601F042FD2046BDE824
:104340001040002101F03CBD00640040F0B5827ACD
:1043500001219140304C226842F0010222602E4D32
:104360001C352A688A432A602B4A067B0C322B4B69
:10437000002E14D116688E4316604688C78846EA18
:104380000746877A03EBC707C7F840660688878821
:1043900046EA0746877A03EBC707C7F84466067BF9
:1043A000012E14D116680E4316604288068842EA30
:1043B0000642867A03EBC606C6F84026C28886887F
:1043C00042EA0642867A03EBC603C3F84426124A41
:1043D000C37A121D3BB113680B4313600E4A038965
:1043E000143223B106E013688B431360F6E71368B9
:1043F0008B4313600389012B02D113680B431360B5
:10440000407B012802D1286808432860206820F0FA
:1044100001002060F0BD0000006600400060004028
:104420000246002053690B425DD0B1F5807F4AD02F
:1044300016DC082937D009DC01292CD002292ED01E
:10444000042950D1D068082100F0C0B910292ED01D
:10445000202930D0402946D11069102100F0B6B98A
:10446000B1F5004F3BD00CDCB1F5007F2FD0B1F59A
:10447000806F30D0B1F5006F35D19069702100F0B8
:10448000A5B9B1F5803F1AD0B1F5003F2BD15068E6
:10449000102100F09BB99068134900F097B9D068DB
:1044A000032100F093B9D068102100F08FB9106992
:1044B000032100F08BB91069082100F087B950681A
:1044C000082100F083B99069012100F07FB990695B
:1044D000022100F07BB99069042100F077B950689F
:1044E000042100F073B9704701010100002A03D0D4
:1044F00042690A434261704742698A434261704798
:1045000010B50022036823F002030360036843F040
:10451000010303604FF6FF7300E0521C4468E40798
:1045200001D19A42F9D14268D2073ED08A79012A54
:104530003DD0026822F080020260CA79012A3BD095
:10454000026822F0400202600A7A012A39D0026829
:1045500022F0200202604A7A012A37D0026822F053
:10456000100202608A7A012A35D0026822F008021D
:104570000260CA7A012A33D0026822F00402026083
:104580008A78CC78920742EA04620C7942EA0442C3
:104590004C79098842EA0452491E0A43C261016803
:1045A00021F001010160002120E0002010BD02681F
:1045B00042F080020260C0E7026842F040020260FE
:1045C000C2E7026842F020020260C4E7026842F0DB
:1045D00010020260C6E7026842F008020260C8E703
:1045E000026842F004020260CAE7491C4268D2072E
:1045F00001D09942F9D14068C00701D0002010BD18
:10460000012010BD10B500EB0113D3F8B04104F048
:1046100004041472002C2CD0D3F8B041E408546088
:1046200003F5D8731C6804F0020454725C6804F04B
:104630000F0494725C68240AD4749C68D4729C68D9
:10464000240A14739C68240C54739C68240E94737D
:10465000DC68D473DC68240A1474DC68240C547499
:10466000DB681B0E937449B1016941F020010161BF
:1046700010BDD3F8B041640D1460D1E7C16841F0BA
:104680002001C16010BD00218171C17101724172B0
:104690008172C1728170C170032101710221417167
:1046A00001210180704730B50246002093685B010C
:1046B0000AD49068000101D5012005E09068C0008F
:1046C00001D5022000E0042004283BD002EB0012B8
:1046D000D2F8803103F00103C2F880310B7A93B332
:1046E000D2F880414D681C434B7A43EAC5031C4312
:1046F000C2F880418B7A03F00F038B7202F5C0720F
:10470000536823F00F03536053688C7A234353603C
:10471000CB7A8C7B0D7B43EA04634C7B240444EA14
:10472000052423439360CB7B8C7C43EA04634C7C5D
:10473000097C240444EA01210B43D360116841F051
:104740000101116030BDFFE7D2F880314C7A23437C
:104750000C8843EA4453C2F88031CBE708B54FF4E4
:104760000050ADF8000002208DF8020010208DF8F6
:1047700003006946014800F06DFC08BD00140140CB
:104780007047000038B54FF48070ADF80000032486
:104790008DF8024048208DF803000B4D69462846ED
:1047A00000F058FC6915ADF800108DF80240182192
:1047B0008DF803106946284600F04CFC01214FF4A7
:1047C000EA1000F09BFC38BD000C014002460020BE
:1047D0000A4200D00120704710B54FF480510948BB
:1047E00000F0C1FC08490120C8730848017821F095
:1047F00001010170064900208870BDE8104005A045
:1048000003F04EBF001801403C0100207009002059
:10481000784F00202323232320436C6F73655F456B
:10482000787465726E5F50777220232323230D0AFC
:104830000000000070B508F0BBFD08F0B9FD08F0FD
:10484000B7FD08F0B5FD0221134800F08EFC08F01A
:10485000AFFD4FF48051114800F085FC08F0A8FD31
:1048600008F0A6FD0E4C0020A0700E490A7842F018
:1048700001020A7060700C4DE87B18B9012100201C
:1048800012F07AFB0126EE7308A003F009FFE86935
:10489000A060267070BD00000014014000180140A7
:1048A000784F0020700900203C010020232323239F
:1048B00020436C6F73655F486933353638507772C3
:1048C00020232323230D0A0010B58CB001210846B4
:1048D00001F05AFA104C204600F032F80F480190CF
:1048E0000F48029000210391032204920591802237
:1048F0000692520007929000089020200990000232
:104900000A900B9101A9204600F096F8012120465B
:1049100000F008F80CB010BD080002404C24014023
:10492000BC000020002904D0016841F001010160B1
:10493000704701684FF6FE72114001607047000039
:1049400001684FF6FE721140016000210160416074
:104950008160C1603649364A0839904204D14868BE
:1049600040F00F0048607047314A1432904204D141
:10497000486840F0F000486070472D4A2832904265
:1049800004D1486840F4706048607047284A3C325F
:10499000904204D1486840F4704048607047244A0F
:1049A0005032904204D1486840F47020486070470B
:1049B0001F4A6432904204D1486840F47000486055
:1049C00070471B4A7832904204D1486840F07060CA
:1049D00048607047174A111F904204D1086840F0A0
:1049E0000F0008607047134A1432904204D10868DF
:1049F00040F0F000086070470E4A2832904204D11F
:104A0000086840F47060086070470A4A3C3290427F
:104A100004D1086840F4704008607047054A50327D
:104A20009042FAD1086840F4702008607047000096
:104A3000080002400804024030B5026847F6F073EF
:104A40009A430C6A8B682343D1E904452C432343E2
:104A50008C692343CC6923434C6A23438C6A2343E8
:104A600013430360CA6842600A6882604968C16093
:104A700030BD00002DE9F843002201212B4818F039
:104A80004FF94FF48047ADF8007002248DF80240D2
:104A900048258DF80350DFF898806946404600F0BD
:104AA000D9FAA603ADF800608DF802408DF80350E6
:104AB0006946404600F0CEFA2003ADF800008DF8BC
:104AC00002408DF80350DFF86C806946404600F0E4
:104AD000C1FAADF800708DF802408DF803506946B8
:104AE000404600F0B7FAADF800608DF802408DF84E
:104AF00003506946404600F0ADFA1020ADF80000C2
:104B00008DF802408DF803506946404600F0A2FA45
:104B10002002ADF800008DF802408DF80350694680
:104B2000404600F097FABDE8F8830000000C014011
:104B300000140140001001402DE9F8434FF40046F5
:104B4000ADF8006002248DF8024010258DF8035066
:104B5000DFF81C816946404600F07CFADFF81491CA
:104B600001228021484618F0DBF801224021484606
:104B700018F0D6F801222021484618F0D1F8012279
:104B80000821484618F0CCF801221021484618F0B8
:104B9000C7F801223146404618F0C2F8012204212C
:104BA000404618F0BDF8012216023146484618F07A
:104BB000B7F801225102484618F0B2F80122D1029A
:104BC000484618F0ADF801229102484618F0A8F8BE
:104BD000294F01224021384618F0A2F80122202155
:104BE000384618F09DF801220421484618F098F83C
:104BF00001221021384618F093F80122802138460E
:104C000018F08EF801229103404618F089F814201C
:104C10008DF8030001208DF802004FF4C060ADF85C
:104C20000000DFF858806946404600F013FA48203B
:104C30008DF80300F820ADF800006946404600F00A
:104C400009FAADF800408DF802408DF8035069462E
:104C5000384600F0FFF9ADF800608DF802408DF89D
:104C600003506946384600F0F5F9BDE8F8830000C6
:104C7000000C0140001801400008014000140140F0
:104C80002DE9F8434FF48040ADF8000010258DF871
:104C9000035002248DF802401E4F6946384600F04A
:104CA000D9F9ADF800408DF803508DF802406946FF
:104CB000194800F0CFF9E001ADF800008DF803507D
:104CC0008DF802406946154800F0C4F9A002ADF81D
:104CD00000008DF802408DF80350DFF844806946EB
:104CE000404600F0B7F9E602ADF800608DF80350D9
:104CF0008DF802406946404600F0ACF9ADF800601E
:104D00008DF803508DF802406946384600F0A2F94C
:104D1000BDE8F88300180140000C0140001001407C
:104D20000014014070470000F0B5044600202468DC
:104D3000062A00D9F0BD114F1DE0C2F10606DFF8CA
:104D40003CC057F82650ACF1140CB4FBF5F51CF838
:104D50000550012B02D1302D00D000231BB901F8E2
:104D6000015B401CC0B257F82650B4FBF5F605FBBA
:104D70001644521ED2B2002ADFD1F0BD9C8A02082E
:104D800010B54FF40044204600F03EF800280CD047
:104D9000204600F033F82146044800F0DDF90028F1
:104DA00003D103480168491C016010BD001801408F
:104DB0005C0100203EB54FF40044ADF800400420F3
:104DC0008DF8030002208DF8020069460A4800F0C1
:104DD00041F90F21042000F029F9019401208DF8F8
:104DE0000A0000208DF808000C208DF8090001A8A9
:104DF00000F01AF83EBD00000018014001490860AB
:104E0000704700001404014001460020054A126862
:104E10000A40044B14331B680B4202D0002A00D016
:104E2000012070470004014030B51B4A83790168B6
:104E3000002B2AD013688B431360111D0B68046884
:104E4000A3430B60017911440B68046823430B6092
:104E5000114C08342168036899432160231D1968A7
:104E60000568A94319604179102905D011440A68E1
:104E7000006802430A6030BD216802681143216066
:104E8000196800680143196030BD00791044026858
:104E90008A43026030BD0000000401400149C8603F
:104EA000704700000020024070B505464FF43026E0
:104EB000304600F06FF8042811D1094C206940F009
:104EC000020020616561206940F0400020613046A9
:104ED00000F060F8216941F6FD721140216170BD5A
:104EE0000020024004200849CA68D20701D00120EE
:104EF0007047CA68520701D502207047C968C906C1
:104F0000FBD50320704700000020024002480169E1
:104F100041F08001016170470020024004490A68A5
:104F200022F010020A600A6802430A60704700001B
:104F300000200240F0B506460D464FF400573846B3
:104F400000F028F804280CD1064C206940F001003C
:104F500020613580384600F01DF82169BA1E1140E5
:104F60002161F0BD00200240034A116801F03801C0
:104F700001431160704700000020024003480249CD
:104F800041600349416070472301674500200240AA
:104F9000AB89EFCD00B50346FFF7A4FF02E0FFF7B2
:104FA000A1FF5B1E012801D1002BF8D1002B00D1FD
:104FB000052000BD10B51249C869B0F5683F01D998
:104FC000002010BD0E4C0F4A143C6260A060887A2D
:104FD0002074886AE0601421204603F009FE002056
:104FE0001FF068F81422002120461FF0C1F8D4E910
:104FF0000213227C04A002F0A1FF012010BD0000DA
:105000007C810020214365870D0A424C207772691C
:105010007465203A6C3A256C642C206F723A2564D2
:105020002C2073756D3A256C640D0A0010B58A0743
:10503000120F0F23934021F00304054921448C688B
:105040009C438C608B68904003438B6010BD0000D4
:10505000000001402DE9F0410022CC7804F00F035C
:10506000E40601D58C7823430C784FF00F0714F039
:10507000FF0F4FF0010C1CD005680CFA02F40E88EB
:105080002640A64211D1960007FA06F825EA08053F
:1050900003FA06F848EA0505CE78282E02D0482EF5
:1050A00002D002E0446100E00461521C082AE4D30B
:1050B00005600A88FF2A1ED94568002202F1080609
:1050C0000CFA06F40E882640A64210D1960007FA84
:1050D00006F825EA080503FA06F848EA0505CE7839
:1050E000282E00D14461CE78482E00D10461521C94
:1050F000082AE3D34560BDE8F0810000F0B5154C07
:10510000002801DAE36900E06368C0F30346420D5A
:10511000120185B2C0F301579540032F07D0C20298
:105120000CD50322B240934343F0706209E023F0B0
:105130007062636823F07063636002E0AB4343F026
:10514000706201B12A43002801DAE261F0BD6260B9
:10515000F0BD0000000001400246002092680A42B3
:1051600000D0012070474161704701617047000025
:1051700008B50120ADF8000002208DF802001020D3
:105180008DF8030069460248FFF764FF08BD000080
:105190000018014008B50220ADF800008DF80200AB
:1051A00010208DF8030069460148FFF753FF08BD42
:1051B0000014014008B50120ADF8000002208DF870
:1051C000020010208DF8030069460248FFF742FFF5
:1051D00008BD000000140140FEE700002DE9F04189
:1051E0001F4C204DE068AA69101AB0F5E15F2BD979
:1051F00023791D4800264FF48041012733B32369EA
:10520000D21A032A20D3FFF7B0FF18A003F048FA00
:1052100014220021204602F060FEA8692061267158
:10522000A67066702770E969A160E0602878401C6C
:10523000C0B22870032807D305F16C0007704670D0
:10524000867041600F480770BDE8F08127712261C8
:10525000A670FFF788FFBDE8F0410BA003F020BA6D
:10526000784F00203C010020001801406869333568
:10527000363820505752207374617274202D322DAD
:105280000D0A0000B809002068693335363820500F
:105290005752207374617274202D312D0D0A000055
:1052A00008B50121092000F099FD0121082000F036
:1052B00095FDC020ADF8000003208DF802001420F9
:1052C0008DF8030069460248FFF7C4FE08BD0000E0
:1052D000000C014070B5084C4025256001F096F99E
:1052E00080202060022008F04FF8201F0560022077
:1052F00008F04AF8256070BD140C014070B5084DE7
:1053000040242C6001F082F980202A1F10600220C6
:1053100008F03AF81460022008F036F82C6070BDEE
:10532000140C01402DE9F04104460F4615461E4677
:1053300000F088F8204600F05DF801280FD03846CC
:1053400000F058F801280ED000F07CF844F001007D
:1053500000F050F801280AD00024761E11E0BDE8C4
:10536000F04100F085B8BDE8F04100F081B8BDE83B
:10537000F04100F07DB8012000F00EF82855641CC3
:10538000E4B2B442F7DB002000F006F82855BDE88F
:10539000F04100F06DB800002DE9F0410646002410
:1053A00001F022F90022124DDFF8448040232F1F24
:1053B000A8F10C082B60022007F0E6FF3B606006B6
:1053C000040ED8F80000000601D5641CE4B20120E8
:1053D00007F0DAFF521CD2B2082AEBD326B1FFF74E
:1053E00079FF2046BDE8F081FFF788FFF9E700006C
:1053F000140C01402DE9F041044601F007F9104F6B
:1054000040233B60002280253E1F200601D53560E9
:1054100000E03D606006040E022007F0B5FF336037
:10542000022007F0B1FF3B60022007F0ADFF521CE5
:10543000D2B2082AE9D3BDE8F04100F02FB800004D
:10544000140C014010B501F0E1F808488022026018
:1054500040230360042007F097FF044C241D2260C2
:10546000042007F091FF236010BD0000100C0140E4
:1054700010B501F0CBF80848402303608022026099
:10548000042007F081FF0448001F03600260BDE8AC
:105490001040042007F078BF140C014010B5002420
:1054A00001F0A2F80E4A80201060012007F06CFF86
:1054B00040231360012007F067FF0948083807E020
:1054C000641CE4B2FA2C03D9FFF7D2FF012010BD0F
:1054D00001680906F4D40248001D0360002010BDD5
:1054E000100C01402DE9F04104460F4615461E46BA
:1054F000FFF7A8FF2046FFF77DFF012806D03846BA
:10550000FFF778FF012805D000240EE0BDE8F04148
:10551000FFF7AEBFBDE8F041FFF7AABF285DFFF778
:1055200069FF012807D0641CE4B2B442F6D3BDE899
:10553000F041FFF79DBFBDE8F041FFF799BF0000C4
:1055400008B52020ADF8000002208DF802004820A8
:105550008DF8030069460248FFF77CFD08BD000096
:105560000010014008B58020ADF8000002208DF841
:10557000020048208DF8030069460248FFF76AFDE3
:1055800008BD00000010014008B54FF40050ADF810
:10559000000002208DF8020048208DF803006946C3
:1055A0000148FFF757FD08BD0018014002494CF6BD
:1055B000CC400860704700000030004002494AF6C5
:1055C000AA20086070470000003000400149486090
:1055D00070470000003000400149886070470000BB
:1055E0000030004001490860704700000030004072
:1055F000054A4FF40051012802D01046FFF7B3BD11
:105600001046FFF7B2BD00000014014070B588B02D
:10561000234E3046FEF77EFE05A8FFF734F800243F
:105620008DF81A4001258DF81B5007948DF816400F
:105630008DF8174004218DF8181005208DF81900F9
:105640000620ADF8140005A93046FEF759FF8DF885
:105650000E408DF80F508DF810504FF4CF40ADF83C
:10566000040042F20400ADF806004CF2F770ADF809
:10567000080048F60400ADF80A00ADF80C408DF8BB
:10568000115001A8FEF762FE01220E213046FEF7FE
:105690002DFF03220021034802F01FFC08B070BD5B
:1056A00000640040B00900202DE9F0413348006853
:1056B0000A2817D93248334F002490F835603B78D8
:1056C000408EDFF8C4C023F08005012E02D0022EE8
:1056D00023D030E0B0F52A7F06D28CF808408CF851
:1056E00009403D70BDE8F0811E060DD4B0F57F7F06
:1056F00002D2012100221EE0A0F22D60B0F5D47F7D
:1057000019D20121002216E0A0F2FD3040F22F262E
:10571000B04210D2002101220DE05FEA036840F29E
:10572000D57604D4B04206D20121002203E0B04273
:1057300001D900210122012909D0012AD2D19CF8E6
:105740000900022813D98CF809403D70CAE79CF87B
:105750000800142805D38CF8084043F08000387006
:10576000C0E7401C8CF808008CF80940BAE78CF8B8
:105770000840401C8CF80900B4E7000054010020E8
:10578000C84E002094010020600900202DE9FE4F42
:1057900082466B4601AA02A9382000F0AFF8002823
:1057A00060D0BDF90800FDF7C2FB04460D46DFF8E6
:1057B000B8B000225B4620462946FDF7D2FA0446DF
:1057C0000D46BDF90400FDF7B2FB06460F46002268
:1057D0005B4630463946FDF7C4FA06460F46BDF92A
:1057E0000000FDF7A4FB8046894600225B46404648
:1057F0004946FDF7B6FA8046894632463B46304672
:105800003946FDF7AEFA06460F4622462B4620469D
:105810002946FDF7A6FA32463B46FDF7FBF91EF096
:105820005FFD42464B46FDF70EFB05F0C5FF00222B
:105830000E4BFDF796FA0E4A0E4BFDF704FBFDF7F3
:10584000E6FBCAF80000BDF80800AAF80400BDF89D
:105850000400AAF80600BDF80000AAF8080001201C
:10586000BDE8FE8F0020FBE70000843F008066401B
:10587000282D4454FB21094008B501200090012344
:105880006A462A213820FFF72DFE022000900223CD
:105890006A462B213820FFF725FE01236A460D2199
:1058A0003820FFF73FFD9DF800102A2904D005A0FD
:1058B00002F044FB002008BD0CA002F03FFB0120D9
:1058C00008BD0000E5889DE5A78BE58C96E5A4B1B1
:1058D000E8B4A5EFBC8C4944E99499E8AFAFEFBCBC
:1058E0009A3078253032580D0A0000004944EFBC48
:1058F0009A3078253032580D0A000000FEB50F4668
:1059000016461D460020009001236A460D213820CE
:10591000FFF708FD9DF800002A2801D00020FEBDF9
:10592000062301AA01213820FFF7FCFC9DF8044062
:1059300020019DF8051040EA1110210602D540F41F
:10594000704000B238809DF8061008019DF80720CD
:1059500040EA1210090602D540F4704000B23080CF
:105960009DF8081008019DF8092040EA1210090668
:1059700002D540F4704000B228800120FEBDFEE751
:105980000648074947F2305300680A68821A9A426B
:1059900003D908600348FFF7F9BE7047580100209B
:1059A000F00900203C9A00202DE9F04725480078B6
:1059B000002812D1244C234D0026607801276C3D2D
:1059C00068B1287F207014220021204602F085FA59
:1059D000A770A869E060E6702E70BDE8F0871948EE
:1059E00010380078C007F8D0FFF7F8FB207868B1CE
:1059F000A068E969081AC828EFD92A7BDFF84C901B
:105A00004FF4807832B1012A0DD017E0E869A06028
:105A10002E73E2E741464846FFF7A7FB0CA002F0D1
:105A20003FFE2F730AE010A002F03AFE2670E869EC
:105A3000A06041464846FFF796FB2E73E869A060D8
:105A4000CBE70000A8010020784F002000080140AB
:105A50005253542068693335323020737461727444
:105A6000202D342D0D0A000052535420686933351F
:105A70003230207374617274202D332D0D0A0000B2
:105A80007047F8B54FF420514FF0006000F0D6F8A1
:105A90004FF4A06000F0C8F825208DF80000002524
:105AA0008DF8015003268DF8026001248DF8034023
:105AB000684600F087F826208DF800008DF8014038
:105AC0008DF802508DF80340684600F07BF82720DF
:105AD0008DF800008DF801408DF802408DF80340EC
:105AE000684600F06FF834208DF800008DF8014012
:105AF00002278DF802708DF80340684600F062F8C6
:105B000035208DF800008DF801408DF802608DF889
:105B10000340684600F056F828208DF800008DF804
:105B200001708DF802508DF80340684600F04AF885
:105B30001C208DF800008DF801508DF802408DF882
:105B40000340684600F03EF81E208DF800008DF8F6
:105B500001608DF802408DF80340684600F032F88D
:105B600036208DF800008DF801508DF802408DF838
:105B70000340684600F026F814208DF800008DF8E8
:105B800001508DF802508DF80340684600F01AF875
:105B900013208DF800008DF801508DF802508DF81B
:105BA0000340684600F00EF816208DF800008DF8CE
:105BB00001508DF802508DF80340684600F002F85D
:105BC000F8BD000070B50F23C27801260178002AC5
:105BD0001ED0144A126802F4E062C2F5E062120AB2
:105BE000C2F10404D3404578A54082781A402A4384
:105BF000120101F1E02181F80024007800F01F017A
:105C00008E404009800000F1E020C0F8006170BDC6
:105C100001F01F0086404809800000F1E020C0F834
:105C2000806170BD0CED00E0024908430249086044
:105C3000704700000000FA050CED00E0024A114038
:105C4000014302480160704780FFFF1F08ED00E03C
:105C50007047000010B5094C4FF480512046FFF703
:105C600084FA4FF480412046FFF77DFA0449022070
:105C7000C873BDE8104003A002F012BD0018014037
:105C80003C01002023232323204F70656E5F45785D
:105C90007465726E5F50777220232323230D0A00F0
:105CA00070B5224C4FF480412046FFF75EFA07F0B2
:105CB0007FFBA51429462046FFF757FA07F078FB2B
:105CC00002211B48FFF751FA1A4C29462046FFF7DC
:105CD0004CFA07F06DFB07F06BFB02212046FFF743
:105CE00044FA07F065FB04211348FFF73EFA07F07A
:105CF0005FFB07F05DFB114DE87B18B90121002027
:105D000011F03AF90220E8730D4C0126A6700D48F7
:105D1000017841F001010170002060700AA002F0DA
:105D2000BFFCE869A060267070BD0000001801404B
:105D30000008014000140140000C01403C0100201B
:105D4000784F00207009002023232323206D6375E2
:105D5000206F70656E20616C6C20706F77657220AB
:105D6000232323230D0A00000020401CC0B2FA2880
:105D7000FBD37047034A516821F44041014351600D
:105D80007047000000100240054A002903D0516905
:105D9000014351617047516981435161704700006F
:105DA00000100240054A002903D0D1690143D161A6
:105DB0007047D1698143D1617047000000100240F3
:105DC000054A002903D01169014311617047116927
:105DD000814311617047000000100240054A00290C
:105DE00003D0916901439161704791698143916149
:105DF0007047000000100240054A002903D0D16816
:105E00000143D1607047D1688143D1607047000081
:105E10000010024010B500F059F84FF480342046CD
:105E200000F012F900F082F925490870012837D1F5
:105E30001020FFF773F80220FFF796F8402000F0DB
:105E400061F94FF4C06000F035F9012000F02CF941
:105E50003B2000F0CFF80028FAD00421204600F0C3
:105E600043F94FF4E011204600F034F9012000F02E
:105E70002BF9002000F0DEF84FF4A064204600F07B
:105E800009F9204600F0FCF8392000F0B3F80028AA
:105E9000FAD0022000F040F900F0C4F80828FBD145
:105EA00001210848FFF77EFF012145F27D20FFF721
:105EB00095FFBDE8104001210348FFF71FB900001E
:105EC0008E00002017001E02000230000F480168FB
:105ED00041F00101016041680D4A114041600168D3
:105EE0000C4A11400160016821F480210160416881
:105EF00021F4FE014160016821F0A05101604FF4DE
:105F00007F0181600021C1627047000000100240E3
:105F10000000FFF0FFFFF6FE70B5314B596801F04D
