:020000040800F2
:10000000901901206501000881430008F5380008B7
:100010002941000863220008BD72000800000000AA
:100020000000000000000000000000006360000805
:100030008533000800000000F5460008B96100089B
:100040007F0100087F0100087F0100087F01000890
:100050007F0100087F0100087F0100087F01000880
:100060007F0100087F0100087F0100087F01000870
:100070007F0100087F0100087F0100087F01000860
:100080007F0100087F0100087F010008DD230008D0
:100090006D2200087F010008712300087F0100081D
:1000A0007F0100087F0100087F0100087F01000830
:1000B000296200087F010008756200087F010008BE
:1000C0007F0100087F0100087F0100087F01000810
:1000D0007F0100084D690008416A0008456B00086F
:1000E000E13300087F0100087F01000800000000E4
:1000F0000000000000000000000000000000000000
:1001000000000000000000007F0100087F010008DF
:10011000696700085D680008996200087F010008AF
:100120007F0100087F0100087F0100087F010008AF
:100130007F0100087F0100087F010008D125000829
:10014000612400087F010008652500086545000856
:10015000DFF80CD001F024F90048004731B4010861
:10016000901901200648804706480047FEE7FEE751
:10017000FEE7FEE7FEE7FEE7FEE7FEE7FEE7FEE757
:10018000CD610008510100080649074A086850433C
:1001900043F2390210440860400870470149086082
:1001A000704700001C0B00206D4EC64110B5431A6D
:1001B000934209D28318881803E010F8011D03F850
:1001C000011D521EF9D210BD40EA01039B0703D066
:1001D00009E008C9121F08C0042AFAD203E011F886
:1001E000013B00F8013B521EF9D210BDD2B201E032
:1001F00000F8012B491EFBD270470022F6E710B52C
:1002000013460A4604461946FFF7F0FF204610BD84
:1002100030B505462A460B4612F8010B13F8014B80
:1002200008B1A042F8D01CB1002802D06D1CF1E743
:10023000284630BD421C10F8011B0029FBD1801A52
:10024000704710B5002200E0521C835C8C5CA34216
:1002500001D1002BF8D1D8B2E1B2401A10BD30B5AF
:1002600004460020034600E05B1C934203D2E05C9E
:10027000CD5C401BF8D030BD034611F8012B00F8CF
:10028000012B002AF9D11846704730B505460020E9
:10029000034600E05B1C934205D2EC5CC85C201A6C
:1002A00001D1002CF6D130BD70B50F4D00B92868D2
:1002B000002412E00A4602E09E4203D0521C13784A
:1002C000002BF9D1DAB2224305D02BB124B10021A1
:1002D00000F8011B04E00446401C0678002EE9D11A
:1002E0002860204670BD0000200B00200FB400B530
:1002F0008DB010A909900B9000914FF0FF300A903B
:1003000000200C9005480690054807906A4609A809
:100310000F9900F05DFE0DB05DF814FBED0F0008C5
:100320000B1000080FB400B58DB010A909900B9008
:1003300000914FF0FF300A9000200C900548069085
:10034000054807906A4609A80F9900F041FE0DB0D4
:100350005DF814FBED0F00080B1000082DE9FF5F9E
:100360001D464FF0FF3BD5E9014691465F464FF0F1
:100370000008A9697F1C01988847296A8246884736
:100380000028F6D1BAF1FF3F0CD024F4C064002E4F
:1003900019DD600614D5BAF12B0F09D0BAF12D0F73
:1003A0000ED103E0584604B0BDE8F09F44F48064E9
:1003B000A9697F1C01988847761E8246002E02DDBF
:1003C000BAF1300F03D0B9F1000F26D032E0A9699D
:1003D000761E44F400747F1C019888478246002EE4
:1003E00005DDBAF1780F06D0BAF1580F03D0B9F194
:1003F000000F10D01EE0B9F1000F02D0B9F1100FBC
:1004000018D1A969761E24F400747F1C01988847CE
:100410008246102002E0082000E00A20814609E020
:1004200008FB0908A969761E44F400747F1C019832
:1004300088478246002E05DD4946504600F059FBAC
:100440000028EDDAE96901988847A00502D46FF029
:100450000100A8E7E00725D1600613D5600502D5A5
:10046000C8F1000000E0404629680A1D2A600968BA
:10047000220501D5087015E0220701D5088011E09A
:1004800008600FE02868011D29600068210502D579
:1004900080F8008006E0210702D5A0F8008001E086
:1004A000C0F8008038467EE72DE9FF5FD2E901A75A
:1004B0004FF00008916999461446DDF838B0464679
:1004C00001988847054659EA0B0005D009E0A16963
:1004D000761C019888470546216A284688470028E7
:1004E000F5D1681C03D05FEACA7005D015E04FF063
:1004F000FF3004B0BDE8F09F2068011D2160D0F8F6
:1005000000800AE05FEACA7001D108F8015BA169C6
:10051000761C7F1E019888470546002F1ADD681C4F
:1005200018D0B9F1000F0DD0E81705EBD0604211DB
:1005300020F01F0059F822102A1A01209040014291
:10054000E0D107E0BBF1000FDCD1216A28468847E3
:100550000028D7D0E16901988847BBF1000F07D187
:10056000002E05DD5FEACA7002D1002188F8001074
:10057000A068B84203DDBBF1000F03D017B16FF0E4
:100580000100B6E73046B4E770B5064606F012FF44
:10059000046805460A220021304600F095FD2C60D3
:1005A00070BD70B5064606F005FF046805460A22D0
:1005B0000021304600F088FD2C6070BD80EA010209
:1005C00010B502F00043400022D04A001FD0010EB7
:1005D00001EB1261C0F35600C2F3560240F4000072
:1005E00042F40002A0FB022000047F39140400D072
:1005F000401C50EA124001D44000491EC2B20C0611
:1006000004EBD010401C4008802A02D003E00020F8
:1006100010BD20F00100002900DA0020184310BDB1
:1006200030B480EA010202F0004530F0004221F0CF
:10063000004013D090B1C30DD40DC2F31601C0F326
:100640001600E41A41F4000140F400027D349142A6
:1006500001D3641C00E04900002C02DA30BC002009
:1006600070474FF400000023914201D3891A0343DD
:1006700040084FEA4101F7D151B1914202D14FF008
:10068000004105E002D24FF0010101E06FF00101ED
:1006900003EBC450284430BC00F04EBD2DE9FE4FA2
:1006A000804681EA0300C00F0C46009021F0004113
:1006B00023F00045B8EB0200A94105D2404621468F
:1006C00090461C460B46024623F00040104347D09C
:1006D000270DC7F30A00C3F30A510290401A019094
:1006E00040286BDAC3F3130040F4801B0098924655
:1006F00020B10023D2EB030A63EB0B0B01985946A0
:10070000C0F14002504600F0C3F906460D4650467F
:100710005946019A00F0DBF910EB08006141002412
:1007200087EA115284EAE7731A4340D0009A62B311
:10073000019A012A4FEA075215DC001B61EB020106
:100740004FF0004202EA0752CDE90042001C41F599
:10075000801132462B4600F035FD03B0BDE8F08F26
:1007600040462146F9E7001B61EB0201001C41F500
:10077000801300185B412018A2F5001747EB030116
:1007800040EAD570B6196D4111E06D084FEA3606A2
:1007900045EAC0754FEA0752001B61EB0201001CDD
:1007A00041F5801149084FEA3000001951413246A5
:1007B0002B4603B0BDE8F04F00F0F5BC00980122D5
:1007C00040000023D0EB020263EBE0730098214667
:1007D0004FEAE074B8EB000061EB0401E9E783F055
:1007E00000435BE781F0004158E72DE9FE4F81EAC5
:1007F000030404F0004421F0004100944FF0000B8A
:1008000023F0004350EA01045ED052EA03045BD0B7
:10081000C3F30A54C1F30A552C44A4F2F3340194EF
:10082000A0FB0254C1F3130141F48011C3F313037D
:1008300043F4801301FB024400FB034E840A970A31
:1008400044EA815447EA8357A4FB076802958D0A5E
:1008500005FB07854FEA932C04FB0C542705029DEA
:100860004FEA065847EA1637B5EB08056EEB070C5A
:10087000870E920E47EA811742EA8312A7FB020114
:10088000B6EB0B0164EB00042B0D43EA0C335E184E
:1008900044EB1C50DA465146E7FB0201C5F3130452
:1008A0004FEA0B3343EA14534FEA0432019C43EA04
:1008B0000603A4F10C040294009CCDE900B400F0FE
:1008C00081FC03B0BDE8F08F00200146F9E7C10FBD
:1008D00080EAE0700844CA079623002100F035BC86
:1008E00096230022114600F030BC0EB5C10F80EAFD
:1008F000E0700844CA07002140F233438DE80E003F
:100900000A460B4600F05EFC03B000BD20F000403C
:10091000C10DC0F3160040F400007F2901DA002069
:100920007047962903DCC1F19601C840704796399B
:100930008840704770B5C1F30A5201F000450024A9
:10094000C1F3130140F2FF3341F480119A4201DAFE
:10095000002070BD40F233439A42A2F2334203DCDE
:10096000524200F0A4F800E090402C43F1D0404205
:1009700070BDC1F30A5210B5C1F3130140F2FF3349
:1009800041F480119A4201DA002010BD40F2334355
:100990009A42A2F2334203DC524200F088F810BDC2
:1009A000904010BD00F0004230F000400AD0C10D70
:1009B00001F56071C0F3160042EA0151C208400718
:1009C0001143704700200146704701F0004330B4E6
:1009D00021F0004150EA010206D00A0DA2F5607232
:1009E000C1F31301002A02DC30BC00207047440F21
:1009F00044EAC104C100E01830BC00EBC25000F072
:100A00009BBB30B50B46014600202022012409E0A3
:100A100021FA02F59D4205D303FA02F5491B04FAB7
:100A200002F52844151EA2F10102F1DC30BD2DE9CA
:100A3000F05F0546002092469B4688460646814662
:100A400040241BE0284641464746224600F02FF846
:100A500053465A46C01A914110D3114618462246B1
:100A600000F016F82D1A67EB01084F4622460120C8
:100A7000002100F00DF817EB00094E41201EA4F1F3
:100A80000104DFDC484631462A464346BDE8F09F74
:100A9000202A04DB203A00FA02F10020704791403E
:100AA000C2F1200320FA03F3194390407047202A33
:100AB00004DB203A21FA02F00021704721FA02F308
:100AC000D040C2F120029140084319467047202AC5
:100AD00006DBCB17203A41FA02F043EAE07306E066
:100AE00041FA02F3D040C2F1200291400843194676
:100AF00070473A2800D2303820F02002412A01D332
:100B0000A2F13700884201D34FF0FF3070472DE942
:100B1000FF4F1C4681B00021D4E9016791464FF098
:100B2000FF358A468846A1696D1C02988847216A6C
:100B3000834688470028F6D1BBF1FF3F0CD026F44E
:100B4000C066002F1ADD700615D5BBF12B0F0AD039
:100B5000BBF12D0F0FD104E04FF0FF3005B0BDE821
:100B6000F08F46F48066A1696D1C029888477F1E4D
:100B70008346002F02DDBBF1300F03D0B9F1000F27
:100B80002AD025E0A1696D1C46F400767F1E0298EC
:100B900088478346002F05DDBBF1780F06D0BBF1F7
:100BA000580F03D0B9F1000F10D011E0B9F1000FC8
:100BB00002D0B9F1100F0BD1A1696D1C26F400769B
:100BC0007F1E029888478346102000E00820814657
:100BD0004FEAE970009017E00A20F8E74346AAFBC5
:100BE000092803FB0980DDF800C07F1E0AFB0C0109
:100BF00012EB0B0A41EBEB78A16946F4007605F1A4
:100C00000105029888478346002F06DD494658466D
:100C1000FFF76FFF5FEA000BE0D5E16902988847B4
:100C2000B00502D46FF0010098E7F00718D1700604
:100C300010D57005514605D50023D1EB030163EBB8
:100C4000080200E042462068031D23600068C0E9F6
:100C5000001205E02068011D21600068C0E900A8BD
:100C600028467BE72DE9FF4F087883B09946FF2897
:100C700005D0491C2D2804D00024002008E00020C5
:100C80000BE00124F9E700EB800003EB4000491C76
:100C90000B78FF2BF7D104B1404200230293147864
:100CA00019461D462D2C01D02B2C04D1521C2D2C65
:100CB00013D000240294AA461478FF2C0FD00A25E2
:100CC000A3FB057801FB05814FF0000C03FB0C1121
:100CD000521CE3194AEB0101EEE70124EAE78144E3
:100CE00053EA010002D019F5C87F06DA0398002103
:100CF000C0E9001107B0BDE8F08F0025AE4E2F46C9
:100D0000DFF8B882184600F050FDCDE90001B9F1D6
:100D1000000002DAC9F1000400E004460023A74AFB
:100D20001AEB030B42EB045A12E0E00707D02A4605
:100D3000334638464146FFF758FD074688462A465F
:100D4000334610461946FFF750FD05460E4664101F
:100D5000002CEAD1DDE90001B9F1000F5A465346F3
:100D600006DA00F07DFA3A46434600F079FA05E0EB
:100D7000FFF73BFD3A464346FFF737FD029A0AB1BB
:100D800081F00041039AC2E90001B3E72DE9FF4F6A
:100D90001F468DB0D7E901464FF0FF382E2045465B
:100DA0004FF000090B90B9696D1C0E988847396A9D
:100DB000824688470028F6D1BAF1FF3F0AD024F4D2
:100DC000D064002E11DDBAF12B0F08D0BAF12D0F2F
:100DD0000BD102E0404611B08DE744F48064B9695C
:100DE0006D1C0E9888478246761E6946600501D5BF
:100DF0002D2000E02B208DF8000001F1010B0DF1FA
:100E0000200809E0B9696D1C0E98884782460F9842
:100E100044F40074761E0560002E02DDBAF1300F36
:100E2000F0D00B998A453ED144F0800406E00F993A
:100E3000681CA9F1010944F400740860B9696D1CCB
:100E4000761E0E98884782463028F0D02BE00B990A
:100E50008A4505D1200603D444F08004761E18E0AC
:100E6000504606F037FC08B30DF11301761E44F42A
:100E700000748B4508D2AAF130000BF8010B200654
:100E800007D5A9F1010003E0200602D409F1010011
:100E90008146A00502D50F99681C0860B9696D1CD0
:100EA0000E9888478246002ED1DC53E0002E51DD9B
:100EB000BAF1650F02D0BAF1450F4BD1A00549D563
:100EC000B9696D1C24F44074761E0E9888478246DA
:100ED000002E0CDD2B2804D0BAF12D0F07D144F4DD
:100EE0008074B9696D1C0E9888478246761EE005AD
:100EF00001D52D2100E02B2108F8011BCDF82C8015
:100F000021E00DF12901761E44F4007488450CD2CD
:100F1000AAF1300010F0FF0088F8000002D10B9910
:100F2000884509D908F1010806E0E00501D5244803
:100F300001E042F20F708146B9696D1C0E98884736
:100F400082460F980560002E04DD504606F0C2FB75
:100F50000028D6D1F9690E988847FF208BF8000049
:100F600088F800000020069007904B466A4608A9C2
:100F700006A8FFF777FEA00502D46FF001002AE76C
:100F800014F0240F0AD0E00714D1DDE90612386806
:100F9000031D3B600068C0E900120BE0DDE90601BB
:100FA000FFF713FD0146E00704D13868021D3A60DF
:100FB0000068016028460EE7000014400000F03F82
:100FC000F1D8FFFF0268114413780160184670479A
:100FD000D160044951610449116200211161114637
:100FE00000F0FEB9C50F0008CD130008426842B1F9
:100FF000016811F8013B23B1521EC0E900121846E6
:1010000070470121C160881E704742685AB1C368A9
:10101000016843B983688B4205D0491E521CC0E960
:101020000012002070474FF0FF3070470FB40023CC
:1010300000B589B00CA900910B996FF00042CB600C
:101040001E4B06931E4B07930423CDE901321D4A24
:10105000089202466B460020FFF798FE09B05DF843
:1010600014FB70B586B006464FF0FF300091CDE915
:101070000101002015460C4604903246694604A83A
:10108000FFF7D4FF02460498211825B108B108469D
:1010900000E020462860049800280DD0002A02DDD8
:1010A0000098884208D0081B0094CDE9010432461C
:1010B000694604A8FFF7BAFF06B070BDED0F00083F
:1010C0000B100008CD1300082DE9F04791460F469C
:1010D00080460446002614F8015B2DB100F072F939
:1010E0000068405DC007F6D12B2D02D02D2D18D001
:1010F000641E4A463946204600F008FB27B139688D
:10110000A14201D1C7F8008071054FF002040BD550
:101110004042002803DD06F04DF90460A007BDE859
:10112000F08746F48066E4E70028F8DA06F042F932
:1011300004606FF00040F2E70029A8BF7047401C30
:10114000490008BF20F00100704710B4B0FA80FCDD
:1011500000FA0CF050EA010404BF10BC704749B11A
:10116000CCF1200421FA04F411FA0CF118BF01218A
:1011700021430843A3EB0C01CB1D4FEA00614FEA6A
:10118000102042BF002010BC704700EBC350104439
:101190000029A4BF10BC7047401C490008BF20F0C4
:1011A000010010BC704710B5141E73F1000408DA7A
:1011B000401C41F1000192185B411A4301D120F01B
:1011C000010010BD2DE9F04D92469B4611B1B1FAD8
:1011D00081F202E0B0FA80F220329046FFF758FC2C
:1011E00004460F4640EA0A0041EA0B0153465A46BC
:1011F000084313D0114653EA010019D0C8F1400248
:101200005046FFF754FC05460E46504659464246A6
:10121000FFF73EFC084305D0012004E02046394694
:10122000BDE8F08D0020054346EAE0762C433743C5
:101230000A986305E40AA0EB08000022FD0A44EACC
:1012400047540A3002D500200146E9E7010510198C
:101250006941DDE9084500196941BDE8F04DA2E7A3
:101260002DE9F04D81EA030404F0004B21F0004524
:1012700014464FF0000A23F0004150EA050220D046
:1012800054EA01021DD0C5F30A570246C5F3130301
:10129000C1F31300C1F30A5640F4801543F48013E0
:1012A000A7EB0608101BD64608F2FD3873EB0500C5
:1012B00002D308F1010801E092185B41B8F1000F78
:1012C00003DA00200146BDE8F08D00204FF48011C4
:1012D000064684460EE0171B73EB050705D3121B69
:1012E00063EB050306434CEA010C49084FEA300062
:1012F00092185B4150EA0107EDD152EA030012D087
:1013000082EA040083EA0501084305D0101BAB41C3
:1013100006D20122002306E000224FF0004302E043
:101320006FF0010253101AEB06004CEB085110EB62
:101330000A0041EB0B01BDE8F04DFFF734BFC1F3EC
:101340000A52C1F3130140F2FF3341F480119A4273
:1013500002DA00200146704740F233439A42A2F27B
:10136000334202DC5242FFF7A2BBFFF791BB000001
:1013700030B5041E71F1000404DB4FF0004440421C
:1013800064EB0101141E73F1000405DB1C464FF0F1
:101390000043524263EB0403994208BF904230BDC0
:1013A000064C074D06E0E06840F0010394E80700B2
:1013B00098471034AC42F6D3FEF7CEFE58A7030888
:1013C00078A70308004870479C85030810B50446B9
:1013D000FFF7F8FF0068005D00F0010010BD00009D
:1013E0002DE9F34F8BB04FF0000801F10C000C46D3
:1013F0004FF0010B46460DF1080A01906269012188
:1014000001989047051E2DD0252D2CD0216A8847A4
:10141000C0B16269012101989047216A884700287C
:10142000F7D1411E62690198904700E0761CA169DE
:101430000B988847216A88470028F7D1E1690B9803
:101440008847DBE7A1690B9888470746A84201D186
:10145000761CD3E7E1690B9888477F1C02D1B8F16D
:10146000000F6FD046E1002762693D46394601987A
:1014700090472A2804D162690121019890470125EB
:10148000DFF884926269012101989047A0F1300150
:101490000A290AD24F45E5DC07EB870100EB41073B
:1014A000303FDFD445F01005ECE7E90601D46FF0DA
:1014B00000476C280AD04C2814D0682815D06A2818
:1014C0000DD074281CD07A281AD01DE06269012141
:1014D000019890476C2802D045F0040514E045F0CF
:1014E00002050DE045F020050AE06269012101983E
:1014F0009047682802D045F0080505E045F40065EE
:101500006269012101989047C4E9015765283DD0DF
:1015100019DC58287AD00CDC452837D004DC252883
:1015200026D0412831D131E046282FD047282CD170
:101530002CE05B2877D0612828D063287CD06428F1
:1015400023D15AE0D0E06F2848D008DC66281DD0AF
:1015500067281BD0692821D06E2816D127E0702873
:1015600045D0732868D0752847D078280DD14DE034
:10157000A1690B988847054625283FF469AFE169C2
:101580000B9888476D1C3FF46AAFB3E023466A4668
:101590006FF001000B99FFF7F9FB9EE045F040006A
:1015A0006060A80723464FF0000236D43EE0E8070B
:1015B0007FF447AF2068011D21600068290501D52F
:1015C00006701BE7290701D5068017E7A90703D591
:1015D000F117C0E9006111E706600FE745F0400030
:1015E0006060A80723464FF0080216D41EE040F6BC
:1015F0000E0125EA0100606016E045F040006060E1
:10160000A80723464FF00A0207D40FE045F0400038
:101610006060A80708D5234610226FF001000B99DF
:10162000FFF775FA59E007E0234610226FF001003A
:101630000B99FEF793FE50E04FF000094F464B46E2
:10164000632802D05B2806D040E0E80601D40120E0
:10165000A06001273AE062690121019890475E2865
:1016600005D14FF001096269494601989047216907
:1016700039B900210A46534643F82120491C08295C
:10168000FADBB0B3216969B9C11700EBD16253111C
:101690000AEB830122F01F02821A01200B6890409E
:1016A00003430B6062690121019890475D28E8D1EE
:1016B000B9F1000F09D00020514651F82020D24343
:1016C00041F82020401C0828F7DB02AB2246009797
:1016D0006FF001000B99FEF7E7FE00280CDA401CC2
:1016E00008D1BBF1000F05D04FF0FF300DB0BDE8C1
:1016F000F08FFFE74046F9E7E90701D108F101085B
:1017000006444FF0000B79E6CCCCCC0C2DE9F05F11
:1017100082460078002715468B460AF10104B94637
:10172000302801D09DB113E014F8010B012778286F
:1017300003D0582801D045B10AE00DB1102D07D1D2
:101740000027102514F8010B02E0082500E00A2507
:101750000026B0460EE005FB080005FB06F1012758
:1017600001EB10461FFA80F8B6F5803F00D3B9466A
:1017700014F8010B2946FFF7BCF90028EBDABBF19E
:10178000000F05D00FB1641E00E05446CBF80040B6
:10179000B9F1000F06D005F00DFE02210160C81E50
:1017A000BDE8F09F48EA0640FAE70EB540F2334242
:1017B00002920022CDE900221346FFF703FD03B099
:1017C00000BD70B58C1810F8015B15F0070301D14E
:1017D00010F8013B2A1106D110F8012B03E010F894
:1017E000016B01F8016B5B1EF9D12B0705D40023B7
:1017F000521E0DD401F8013BFAE710F8013BCB1A59
:10180000921C03E013F8015B01F8015B521EF9D54D
:10181000A142D8D3002070BD38B50224ADF80040F5
:101820008DF8024004208DF803000E4D69462846CD
:1018300001F098FF4021ADF800108DF802404821DA
:101840008DF803106946284601F08CFF0121ADF8A0
:10185000001000218DF803106946284601F082FF30
:1018600038BD000000100140002904D0816841F01B
:10187000010181607047816821F00101816070473A
:10188000002904D0816841F48071816070478168CB
:1018900021F4807181607047014600208968490702
:1018A00000D501207047014600208968090700D54E
:1018B0000120704710B542680E4B1A400C790B6836
:1018C00042EA04221343436082680B4B1A40D1E979
:1018D000024323434C7942EA440213438360C26AC1
:1018E00022F47002097C491EC9B242EA0151C16268
:1018F00010BD0000FFFEF0FFFDF7F1FF70B50726F9
:1019000009290AD9C568A1F10A0404EB4404A640D8
:10191000B543A3401D43C56007E0056901EB4104E1
:10192000A640B543A3401D4305611F23072A09D2E2
:10193000446B521E02EB820293409C4391400C4345
:10194000446370BD0D2A09D2046BD21F02EB8202E0
:1019500093409C4391400C43046370BDC46A0D3AAC
:1019600002EB820293409C4391400C43C46270BDE1
:10197000816841F0080181607047002904D08168C6
:1019800041F4A00181607047816821F4A001816069
:101990007047816841F00401816070470078A0F1D0
:1019A0003001092901D8C8B27047A0F141010529C9
:1019B00002D83738C0B27047A0F161010529FAD8C2
:1019C0005738C0B27047000010B586B00124ADF89A
:1019D000004004208DF8030002208DF802006946C3
:1019E000254801F0BFFE0121480202F0BDFE0020A3
:1019F00002F086FE002001908DF808408DF8094025
:101A00004FF460210391049003208DF814001B4CC7
:101A100001A92046FFF74EFF052301220A21204697
:101A2000FFF76CFF052302220C212046FFF766FF1B
:101A3000052303220D212046FFF760FF01212046E8
:101A4000FFF71EFF01212046FFF70EFF2046FFF79C
:101A50008FFF2046FFF727FF0028FAD12046FFF727
:101A600098FF2046FFF718FF0028FAD101212046F1
:101A7000FFF783FF06B010BD0010014000240140B5
:101A800030B58FB00546D01E302830D202A805F000
:101A900041FE9DF80B10174A174B0024012904D072
:101AA000022909D003290ED018E0106820F44070F4
:101AB000106083F8604011E0106840F440701060DE
:101AC00083F860400AE0106820F4407000F58070F0
:101AD0001060552083F860000EF076F90EF074F96E
:101AE000064B002201212846009429F0C7FE0FB0C2
:101AF00030BD00008C030020300B00203C74030834
:101B000010B58EB00446D31E302B0AD201A805F0C2
:101B100001FE00210A460091034B0121204629F0D5
:101B2000ADFE0EB010BD00003C74030810B50023DC
:101B300006E010F8014B8C4201D1184610BD5B1C29
:101B4000521E541CF5D1601E10BD0000F0B50446B5
:101B500000202488052A00D9F0BD114F1DE0C2F1F4
:101B60000506DFF83CC037F81650ACF12C0CB4FB7E
:101B7000F5F51CF80550012B02D1302D00D00023C3
:101B80001BB901F8015B401CC0B237F81650B4FB1A
:101B9000F5F605FB1644521ED2B2002ADFD1F0BD85
:101BA00000760308034B9860D9601A61012018750C
:101BB0007047000044630020034B9860D9601A61AD
:101BC0000120187570470000606300202DE9F04F78
:101BD00085B00024A146FE48012500270079DFF8E2
:101BE000F4B3DFF8F483FD4E00282FD0F848807856
:101BF00060B3FB48007848BBDFF8D4A30AF11E0AA3
:101C00009AF8050040B111F0A5FF02F0E7FCF54895
:101C100045718AF8057019E019F0BEFB01281DD046
:101C20009BF8000005280FD3E948EFA140F6D21237
:101C30004089CDE90082CDE9020196F82830ECA177
:101C4000ECA0F26A05F0C6FD8AF80550E04800787D
:101C5000002862D0E2480078F0B15EE0F248A0F8D7
:101C60004E708AF805508AF8045029F09DFD9BF8C3
:101C700000000528EAD3D648DBA140F6CF12408900
:101C8000CDE90082CDE9020196F82830D8A1D9A08B
:101C9000F26A05F09FFDD9E7CD488079C10703D1ED
:101CA000810701D4400738D5E0480178C90709D138
:101CB000C078410606D4800604D4CA48243040784F
:101CC00080072AD5DFF808A30AF11E0A9AF8060051
:101CD00060B919F061FB48B1D348A0F84E708AF89A
:101CE00006508AF8045029F05FFD16E0BD48857162
:101CF00002F074FC8AF806709BF8000005280CD3EB
:101D000040F6EB11CDE90081B7A0029096F828309B
:101D1000B7A1C7A0F26A05F05DFDDFF8B4A29AF89A
:101D20000100002875D0CB48AE498278C9798A4233
:101D300003D19AF803100029F4D0C64841780078FE
:101D40000CF084F804909BF8000005280ED3A6A19F
:101D500040F6FE120498CDE90082CDE9020196F822
:101D60002830A3A1BCA0F26A05F034FD049807282E
:101D700035D2DFE800F0040B121920272E009AF864
:101D8000080040062BD59748057128E09AF808000E
:101D9000C00724D09348057121E09AF80800800715
:101DA0001DD5904805711AE09AF80800400716D52D
:101DB0008C48057113E09AF8080000070FD5894890
:101DC00005710CE09AF80800C00608D58548057131
:101DD00005E09AF80800800601D5824805719D4803
:101DE00081788048C1718AF80370007990B19BF8BE
:101DF000000005281FD340F62321CDE900817AA0F9
:101E0000029096F828307AA19CA0F26A05F0E2FCD4
:101E100011E01DE09BF8000005280CD340F62521B9
:101E2000CDE9008170A0029096F8283070A19CA0A6
:101E3000F26A05F0CFFC6B4A9AF80900203205FAE5
:101E400004F1084200D01555641CE4B2042CF6D30A
:101E500064480079002873D09A480078C0076FD191
:101E60007C4A604910794B899842F4D00B465881DE
:101E7000D178C1EB011100EB8100988100249AF820
:101E8000090005FA04F1084270D056482030005D80
:101E9000012802D15249097821B152492031022842
:101EA0003CD063E04F4B0AEB8401CA899889824297
:101EB0005CD8098A814259D945481E30807918B9C1
:101EC00019F06AFA01281CD0464802212030015539
:101ED00002F084FB3E481E3087719BF80000052805
:101EE00044D341A1601C40F64822CDE90082CDE9EF
:101EF000020196F828303EA173A0F26A05F06AFC50
:101F000034E04948A0F84E7031481E3085710571A3
:101F100029F04AFC3348642141812FE076488078DB
:101F200020B30F559BF8000005280ED340F64E2134
:101F3000CDE900812CA0029096F828302CA100E079
:101F400034E06EA0F26A05F045FC0AEB8400018AD9
:101F5000C089081A234902221C310A70020A4A70F9
:101F60008870032246F2460030F0AAFB1D4820305C
:101F7000005D18B909F1010909F0FF09641CE4B218
:101F8000042CFFF47CAF9BF8000005280ED340F62C
:101F90005D21CDE9011914A00390CDF8008096F8D9
:101FA000283013A15FA0F26A05F014FCB9F1040F08
:101FB0000CD10C4807719BF80000052806D340F6A9
:101FC0006221CDE9008108A00290BDE0C4E00000DC
:101FD00078450020D3020020C370030898730308DB
:101FE00038030020980100201B5B306D00000000CA
:101FF0001B5B0000257325735B25635D5B25732CDC
:102000002025645D3A205FCAB9D3C3B6CCD0C5BB26
:10201000BBD0D12C2564B7D6D6D3BAF3D0DDC3DF7D
:102020005F25730D0A0000009491002088030020B2
:10203000257325735B25635D5B25732C2025645D0B
:102040003A20B4A5B7A2CCF5BCFEBBBDD0D1257358
:102050000D0A000094030020257325735B25635D42
:102060005B25732C2025645D3A2020BDF1CCECCAA1
:10207000C7D6DC25642C25730D0A00002573257353
:102080005B25635D5B25732C2025645D3A20D3D0EE
:10209000B6A8CAB1C8CECEF125730D0A0000000063
:1020A000257325735B25635D5B25732C2025645D9B
:1020B0003A20CEDEB6A8CAB1C8CECEF125730D0A3D
:1020C000000000008C030020257325735B25635DF1
:1020D0005B25732C2025645D3A20CAB1BCE4B6CEE2
:1020E000256420B6A8CAB1BBBDD0D1CAB1BCE4B585
:1020F000BD25730D0A00000044920020257325734E
:102100005B25635D5B25732C2025645D3A20524B73
:10211000C9CFCFDFB7A2CBCD3630343625730D0A09
:1021200000000000257325735B25635D5B25732C20
:102130002025645D3A20636F756E74203D20256410
:1021400025730D0A0000000096F82830AFF26011E8
:1021500032A0F26A05F03EFB3A4C6079A17950EA70
:10216000010258D0384A9278002A54D0DFF8DC9027
:1021700048B39BF8000005280FD3AFF2941040F647
:102180006A21CDE90081029096F82830AFF2A011C3
:10219000AFF29800F26A05F01DFB89F800506771F4
:1021A0008AF80470274904201C310870BAF80A0024
:1021B000020A4A70887005B00322BDE8F04F46F26B
:1021C000460030F07DBA002925D09BF80000052894
:1021D0000FD3AFF2EC1040F67421CDE900810290EC
:1021E00096F82830AFF2F811AFF2F000F26A05F07D
:1021F000F1FA89F80050A77112481C300570477039
:102200000521817005B00146BDE8F04F032246F27A
:10221000460030F055BA05B0BDE8F08F2573257340
:102220005B25635D5B25732C2025645D3A20BDF141
:10223000C8D5B6A8CAB1C8CECEF1CDEAB3C9257308
:102240000D0A00009801002044920020C8020020DE
:1022500000F00F01000900EB800001EB4000C0B26C
:1022600070470E2019F00AF8FEE7000070B5384CF0
:102270000421204600F0B8FA01285AD0082120464F
:1022800000F0B2FA01285AD0324D00202860686070
:102290002A460021204600F099FB2F48C17821F002
:1022A0008001C1702D49012008702D480078002858
:1022B0003ED12C484FF47A710068B0FBF1F201FB7B
:1022C000120005F037F8294C274A2188537E01EB8C
:1022D000011121448B712188937E01EB011121446E
:1022E000CB712188D27E01EB011121440A72218831
:1022F000020A01EB011121444A72218801EB01110C
:10230000214488722088696800EB00102044C0F8DE
:1023100002102088082200EB001020440B3005F149
:102320000B0105F0F7F920884F280ED34F202080AD
:1023300070BD2046BDE87040042100F08BB92046F6
:10234000BDE87040082100F085B9401C208070BDB8
:1023500000640040B82C002088010020E02C002000
:102360007B0100204803002094910020FE2E0020D5
:1023700070B5194C4FF40031204600F06BF94FF462
:102380008031204600F066F92115204600F062F900
:10239000E5142946204600F05DF9E113204600F0DF
:1023A00059F9A115204600F055F966153146204629
:1023B00000F050F92946204600F04CF931462046FD
:1023C00000F048F90421204600F044F92046BDE819
:1023D0007040042100F03EB90064004070B51E4C0E
:1023E00000261E4D207800280FD00121284600F03D
:1023F000FBF9012809D10121284600F02BF9002220
:102400000121284600F056FA2670607878B1012143
:10241000284600F0E9F9012809D10121284600F0F9
:1024200019F900220121284600F044FA6670A078CC
:1024300000280FD00121284600F0D6F9012809D143
:102440000121284600F006F900220121284600F06B
:1024500031FAA67070BD00007801002000640040D1
:1024600070B5384C0421204600F0BEF901285AD03E
:102470000821204600F0B8F901285AD0324D00203A
:10248000286068602A460021204600F09FFA2F4805
:10249000C17841F08001C1702D49012048702D485C
:1024A000407800283ED12C484FF47A710068B0FB88
:1024B000F1F201FB120004F03DFF294C274A21886C
:1024C000537E01EB011121448B712188937E01EB36
:1024D00001112144CB712188D27E01EB01112144ED
:1024E0000A722188020A01EB011121444A722188F3
:1024F00001EB0111214488722088696800EB00100B
:102500002044C0F802102088082200EB001020446C
:102510000B3005F10B0105F0FDF820884F280ED394
:102520004F20208070BD2046BDE87040042100F09F
:1025300091B82046BDE87040082100F08BB8401CDF
:10254000208070BD00680040CC2C00208C01002051
:10255000E02C00207B010020480300209491002003
:102560005034002070B5194C4FF40031204600F073
:1025700071F84FF48031204600F06CF821152046A8
:1025800000F068F8E5142946204600F063F8E113EE
:10259000204600F05FF8A115204600F05BF86615B4
:1025A0003146204600F056F82946204600F052F801
:1025B0003146204600F04EF80421204600F04AF84B
:1025C0002046BDE87040042100F044B80068004097
:1025D00070B51E4C00261E4D207800280FD001211A
:1025E000284600F001F9012809D10121284600F010
:1025F00031F800220121284600F05CF9267060784D
:1026000078B10121284600F0EFF8012809D1012115
:10261000284600F01FF800220121284600F04AF960
:102620006670A07800280FD00121284600F0DCF861
:10263000012809D10121284600F00CF800220121CF
:10264000284600F037F9A67070BD00009001002008
:102650000068004030B5082310240422B1F5007F43
:1026600033D011DC20292AD007DC012922D004290B
:1026700023D0082900D1C46030BD402921D0B1F554
:10268000807FF9D1426030BD0025B1F5004F20D0E8
:1026900008DCB1F5806F1AD0B1F5006FF3D1856118
:1026A000426030BDB1F5803F0DD0B1F5003FF8D1AB
:1026B000446030BD0849816030BDC36030BD0361F6
:1026C00030BD046130BD436030BD426030BD42600A
:1026D00030BD8561426030BD0101010010B50C497B
:1026E00088420AD101214C06204602F02FF82046EC
:1026F000BDE81040002102F029B801218C062046D7
:1027000002F024F82046BDE81040002102F01EB877
:1027100000640040F0B5827A01219140304C22687B
:1027200042F0010222602E4D1C352A688A432A603D
:102730002B4A067B0C322B4B002E14D116688E438D
:1027400016604688C78846EA0746877A03EBC707BC
:10275000C7F840660688878846EA0746877A03EB0B
:10276000C707C7F84466067B012E14D116680E43CE
:1027700016604288068842EA0642867A03EBC6065D
:10278000C6F84026C288868842EA0642867A03EB6B
:10279000C603C3F84426124AC37A121D3BB113681C
:1027A0000B4313600E4A0389143223B106E0136809
:1027B0008B431360F6E713688B4313600389012B87
:1027C00002D113680B431360407B012802D12868B3
:1027D00008432860206820F001002060F0BD000060
:1027E00000660040006000400246002053690B4232
:1027F0005DD0B1F5807F4AD016DC082937D009DCDE
:1028000001292CD002292ED0042950D1D0680821CA
:1028100000F02CBB10292ED0202930D0402946D1E1
:102820001069102100F022BBB1F5004F3BD00CDC49
:10283000B1F5007F2FD0B1F5806F30D0B1F5006FCA
:1028400035D19069702100F011BBB1F5803F1AD0ED
:10285000B1F5003F2BD15068102100F007BB906804
:10286000134900F003BBD068032100F0FFBAD06821
:10287000102100F0FBBA1069032100F0F7BA1069CB
:10288000082100F0F3BA5068082100F0EFBA90690F
:10289000012100F0EBBA9069022100F0E7BA9069DB
:1028A000042100F0E3BA5068042100F0DFBA704759
:1028B00001010100002A03D042690A4342617047C6
:1028C00042698A434261704710B50022036823F0D1
:1028D00002030360036843F0010303604FF6FF73D4
:1028E00000E0521C4468E40701D19A42F9D14268E1
:1028F000D2073ED08A79012A3DD0026822F08002B8
:102900000260CA79012A3BD0026822F040020260CC
:102910000A7A012A39D0026822F0200202604A7A3B
:10292000012A37D0026822F0100202608A7A012A56
:1029300035D0026822F008020260CA7A012A33D038
:10294000026822F0040202608A78CC78920742EA98
:1029500004620C7942EA04424C79098842EA045242
:10296000491E0A43C261016821F001010160002192
:1029700020E0002010BD026842F080020260C0E743
:10298000026842F040020260C2E7026842F02002A0
:102990000260C4E7026842F010020260C6E7026803
:1029A00042F008020260C8E7026842F004020260D6
:1029B000CAE7491C4268D20701D09942F9D1406860
:1029C000C00701D0002010BD012010BD10B500EBE4
:1029D0000113D3F8B04104F004041472002C2CD07D
:1029E000D3F8B041E408546003F5D8731C6804F0D0
:1029F000020454725C6804F00F0494725C68240A48
:102A0000D4749C68D4729C68240A14739C68240C47
:102A100054739C68240E9473DC68D473DC68240AB5
:102A20001474DC68240C5474DB681B0E937449B175
:102A3000016941F02001016110BDD3F8B041640D7E
:102A40001460D1E7C16841F02001C16010BD0021D0
:102A50008171C171017241728172C1728170C170E4
:102A6000032101710221417101210180704730B5BC
:102A70000246002093685B010AD49068000101D5EA
:102A8000012005E09068C00001D5022000E004208C
:102A900004283BD002EB0012D2F8803103F001038E
:102AA000C2F880310B7A93B3D2F880414D681C4351
:102AB0004B7A43EAC5031C43C2F880418B7A03F08A
:102AC0000F038B7202F5C072536823F00F0353603B
:102AD00053688C7A23435360CB7A8C7B0D7B43EA1B
:102AE00004634C7B240444EA052423439360CB7B9A
:102AF0008C7C43EA04634C7C097C240444EA012175
:102B00000B43D360116841F00101116030BDFFE754
:102B1000D2F880314C7A23430C8843EA4453C2F8FC
:102B20008031CBE770471FB59DF805409DF8061032
:102B30009DF80720002B04D0172A0DD2521CD2B2C8
:102B40000FE0012A02D9521ED2B20AE0012901D9AE
:102B5000491EC9B2172204E01F2901D2491CC9B27B
:102B600000228DF807208DF806108DF80540019998
:102B70000160BDF8081081801FBD3FB59DF805506C
:102B80009DF806209DF807109DF80840002B04D002
:102B90003B2C12D8641CE3B21AE014B1641EE3B2F9
:102BA00016E0012902D9491EC9B204E0012A01D95F
:102BB000521ED2B217213B230AE0172902D2491C28
:102BC000C9B204E01F2A01D2521CD2B20021002354
:102BD0008DF807108DF806208DF805508DF8083017
:102BE00001990160BDF8081081803FBD2DE9F047D3
:102BF000DFF89C80B8F80000002843D0A8F64627EC
:102C000038460222414605F0C9FA0546DFF88490AD
:102C100099F8030040F0400020F0200020F08000F0
:102C200089F80300002423E004EB041000EB0806FD
:102C3000D9F80010D6F8020060F31C01C9F80010A2
:102C4000B11D7819052204F084FD284485B2781955
:102C50000422104905F0A2FA284485B206F10B01BE
:102C60007819082204F075FD284485B2641CA4B2CA
:102C7000B8F80000A042D7D82A46074946F25500C6
:102C80002FF01EFD0020A8F80000BDE8F08700002E
:102C9000FE2E002088010020B824002038B54FF413
:102CA0008050ADF8000003248DF8024048208DF8D4
:102CB0000300094D6946284600F054FD6914ADF83B
:102CC00000108DF8024018218DF80310694628463F
:102CD00000F048FD38BD0000000C01402DE9F04730
:102CE000DFF89C80B8F80000002843D0A8F6983799
:102CF00038460222414605F051FA0546DFF8849035
:102D000099F8030040F0400020F0200040F08000DF
:102D100089F80300002423E004EB041000EB08060C
:102D2000D9F80010D6F8020060F31C01C9F80010B1
:102D3000B11D7819052204F00CFD284485B27819DC
:102D40000422104905F02AFA284485B206F10B0145
:102D50007819082204F0FDFC284485B2641CA4B252
:102D6000B8F80000A042D7D82A46074946F25500D5
:102D70002FF0A6FC0020A8F80000BDE8F0870000B6
:102D8000503400208C010020B828002038B54FF4C2
:102D90008070ADF8000003248DF8024048208DF8C3
:102DA00003000B4D6946284600F0DCFC6915ADF8C0
:102DB00000108DF8024018218DF80310694628464E
:102DC00000F0D0FC01214FF4EA1000F01FFD38BDE7
:102DD000000C01407FB505468DF80A1000248DF8DF
:102DE0000B4001208DF80C00D9000B0C012A18D0E3
:102DF000022A23D0ADF80040ADF80240ADF80440FF
:102E0000ADF80640ADF808408DF80D006846FFF7B4
:102E100081FC012D20D0012202211248FFF74AFD3A
:102E20007FBDADF80030C1F30A01ADF80210ADF876
:102E300004404FF4FF61ADF80610E3E7ADF8003051
:102E400041F00401ADF802104FF6FF71ADF8041027
:102E5000C91EADF80610D5E7012202210248FFF78E
:102E600029FD7FBD0068004000640040024600204C
:102E70000A4200D0012070472DE9F04126F04CFFB6
:102E80000BF002F90BF000F90BF0FEF81A4C0221DE
:102E9000204600F0F7FC0BF0F7F80BF0F5F80BF01C
:102EA000F3F80221204600F0EFFC0BF0EDF80BF0F8
:102EB000EBF826F031FF0BF0E7F80BF0E5F80F4EDA
:102EC0000027B7700E48017841F00101017077705A
:102ED0000C4CE07C18B90121002017F013FE0125ED
:102EE000E57409A005F028F8206AB06035702774F1
:102EF0000C480570BDE8F0810014014044920020A8
:102F00001C010020280300202323232320436C6F6F
:102F100073655F4869333536385077722023232331
:102F2000230D0A00CA01002010B58CB0012108460B
:102F300001F0F0FB104C204600F032F80F480190F1
:102F40000F480290002103910322049205918022F0
:102F500006925200079290000890202009900002EB
:102F60000A900B9101A9204600F096F80121204615
:102F700000F008F80CB010BD080002404C240140DD
:102F8000A8020020002904D0016841F0010101607D
:102F9000704701684FF6FE721140016070470000F3
:102FA00001684FF6FE72114001600021016041602E
:102FB0008160C1603649364A0839904204D1486878
:102FC00040F00F0048607047314A1432904204D1FB
:102FD000486840F0F000486070472D4A283290421F
:102FE00004D1486840F4706048607047284A3C3219
:102FF000904204D1486840F4704048607047244AC9
:103000005032904204D1486840F4702048607047C4
:103010001F4A6432904204D1486840F4700048600E
:1030200070471B4A7832904204D1486840F0706083
:1030300048607047174A111F904204D1086840F059
:103040000F0008607047134A1432904204D1086898
:1030500040F0F000086070470E4A2832904204D1D8
:10306000086840F47060086070470A4A3C32904239
:1030700004D1086840F4704008607047054A503237
:103080009042FAD1086840F4702008607047000050
:10309000080002400804024030B5026847F6F073A9
:1030A0009A430C6A8B682343D1E904452C4323439C
:1030B0008C692343CC6923434C6A23438C6A2343A2
:1030C00013430360CA6842600A6882604968C1604D
:1030D00030BD00002DE9F843002201212B481EF0ED
:1030E000C9FD4FF48047ADF8007002248DF802400E
:1030F00048258DF80350DFF898806946404600F077
:1031000031FBA603ADF800608DF802408DF8035046
:103110006946404600F026FB2003ADF800008DF81C
:1031200002408DF80350DFF86C806946404600F09D
:1031300019FBADF800708DF802408DF80350694618
:10314000404600F00FFBADF800608DF802408DF8AE
:1031500003506946404600F005FB1020ADF8000022
:103160008DF802408DF803506946404600F0FAFAA7
:103170002002ADF800008DF802408DF8035069463A
:10318000404600F0EFFABDE8F8830000000C014073
:1031900000140140001001402DE9F8434FF40046AF
:1031A000ADF8006002248DF8024010258DF8035020
:1031B000DFF81C816946404600F0D4FADFF814912C
:1031C0000122802148461EF055FD0122402148463B
:1031D0001EF050FD0122202148461EF04BFD012229
:1031E000082148461EF046FD0122102148461EF0E7
:1031F00041FD0122314640461EF03CFD01220421E2
:1032000040461EF037FD01221602314648461EF0A8
:1032100031FD0122510248461EF02CFD0122D1024F
:1032200048461EF027FD0122910248461EF022FD6D
:10323000294F0122402138461EF01CFD0122202189
:1032400038461EF017FD0122042148461EF012FDEB
:103250000122102138461EF00DFD01228021384642
:103260001EF008FD0122910340461EF003FD1420CC
:103270008DF8030001208DF802004FF4C060ADF816
:103280000000DFF858806946404600F06BFA48209D
:103290008DF80300F820ADF800006946404600F0C4
:1032A00061FAADF800408DF802408DF80350694690
:1032B000384600F057FAADF800608DF802408DF8FE
:1032C00003506946384600F04DFABDE8F883000027
:1032D000000C0140001801400008014000140140AA
:1032E0002DE9F8434FF48040ADF8000010258DF82B
:1032F000035002248DF802401E4F6946384600F004
:1033000031FAADF800408DF803508DF8024069465F
:10331000194800F027FAE001ADF800008DF80350DD
:103320008DF802406946154800F01CFAA002ADF87D
:1033300000008DF802408DF80350DFF844806946A4
:10334000404600F00FFAE602ADF800608DF8035039
:103350008DF802406946404600F004FAADF800607E
:103360008DF803508DF802406946384600F0FAF9AE
:10337000BDE8F88300180140000C01400010014036
:103380000014014070470000F0B504460020246896
:10339000062A00D9F0BD114F1DE0C2F10606DFF884
:1033A0003CC057F82650ACF1140CB4FBF5F51CF8F2
:1033B0000550012B02D1302D00D000231BB901F89C
:1033C000015B401CC0B257F82650B4FBF5F605FB74
:1033D0001644521ED2B2002ADFD1F0BDE8750308B0
:1033E00010B54FF40044204600F03EF800280CD001
:1033F000204600F033F82146044800F035FA002852
:1034000003D103480168491C016010BD0018014048
:103410004C0300203EB54FF40044ADF800400420BA
:103420008DF8030002208DF8020069460A4800F07A
:1034300099F90F21042000F081F9019401208DF801
:103440000A0000208DF808000C208DF8090001A862
:1034500000F01AF83EBD0000001801400149086064
:10346000704700001404014001460020054A12681C
:103470000A40044B14331B680B4202D0002A00D0D0
:10348000012070470004014030B51B4A8379016870
:10349000002B2AD013688B431360111D0B6804683E
:1034A000A3430B60017911440B68046823430B604C
:1034B000114C08342168036899432160231D196861
:1034C0000568A94319604179102905D011440A689B
:1034D000006802430A6030BD216802681143216020
:1034E000196800680143196030BD00791044026812
:1034F0008A43026030BD0000000401400149C860F9
:10350000704700000020024070B505464FF4302699
:10351000304600F09DF8042811D1094C206940F094
:10352000020020616561206940F040002061304662
:1035300000F08EF8216941F6FD721140216170BDE5
:103540000020024004200849CA68D20701D00120A7
:103550007047CA68520701D502207047C968C9067A
:10356000FBD503207047000000200240024801699B
:1035700041F08001016170470020024004490A685F
:1035800022F010020A600A6802430A6070470000D5
:1035900000200240F0B506460D464FF4005738466D
:1035A00000F056F804280CD1064C206940F00100C8
:1035B00020613580384600F04BF82169BA1E114071
:1035C0002161F0BD002002402DE9F84105460E467C
:1035D000002000904FF40057384600F039F80428D6
:1035E0000FD10F4C206940F0010020612E80B846B9
:1035F000404600F02DF8BF1E042804D02169394050
:103600002161BDE8F881AD1C00950099300C08805F
:10361000404600F01DF8216939402161F1E70000C2
:1036200000200240034A116801F038010143116093
:1036300070470000002002400348024941600349EE
:10364000416070472301674500200240AB89EFCD00
:1036500000B50346FFF776FF02E0FFF773FF5B1E3E
:10366000012801D1002BF8D1002B00D1052000BD8D
:1036700010B586B01B49C869B0F5F72F02D90020F4
:1036800006B010BD174C184A143C6260A060887ADE
:103690002074886AE0601421204604F01DFF002099
:1036A0002AF082F91422002120462AF0DBF90F4883
:1036B0000078052813D3227CD4E902010CA3CDE9BC
:1036C0000413CDE9020268200B49CDE900100B4834
:1036D0000BA190F82830C26A0AA004F07BF8012000
:1036E000CEE70000041C002021436587D3020020A0
:1036F0001B5B306D00000000A86703089873030887
:103700001B5B0000257325735B25635D5B25732CB4
:103710002025645D3A20424C207772697465203A16
:103720006C3A256C642C206F723A25642C207375DA
:103730006D3A256C6425730D0A00000010B58A07E8
:10374000120F0F23934021F00304054921448C6894
:103750009C438C608B68904003438B6010BD0000DD
:10376000000001402DE9F0410022CC7804F00F0365
:10377000E40601D58C7823430C784FF00F0714F042
:10378000FF0F4FF0010C1CD005680CFA02F40E88F4
:103790002640A64211D1960007FA06F825EA080548
:1037A00003FA06F848EA0505CE78282E02D0482EFE
:1037B00002D002E0446100E00461521C082AE4D314
:1037C00005600A88FF2A1ED94568002202F1080612
:1037D0000CFA06F40E882640A64210D1960007FA8D
:1037E00006F825EA080503FA06F848EA0505CE7842
:1037F000282E00D14461CE78482E00D10461521C9D
:10380000082AE3D34560BDE8F0810000F0B5154C0F
:10381000002801DAE36900E06368C0F30346420D63
:10382000120185B2C0F301579540032F07D0C202A1
:103830000CD50322B240934343F0706209E023F0B9
:103840007062636823F07063636002E0AB4343F02F
:10385000706201B12A43002801DAE261F0BD6260C2
:10386000F0BD0000000001400246002092680A42BC
:1038700000D00120704702460020D2680A4200D0E2
:1038800001207047416170470161704708B5012010
:10389000ADF8000002208DF8020010208DF8030022
:1038A00069460248FFF75EFF08BD000000180140AE
:1038B00008B50220ADF800008DF8020010208DF848
:1038C000030069460148FFF74DFF08BD00140140A1
:1038D00008B50120ADF8000002208DF8020010208C
:1038E0008DF8030069460248FFF73CFF08BD000061
:1038F000001401400C2017F0C1FCFEE72DE9F04157
:103900001F4C204DE068EA69101AB0F5E15F2BD931
:1039100023791D4800264FF48041012733B32369E2
:10392000D21A032A20D3FFF7AFFF18A004F004FB3C
:1039300014220021204603F01CFFE8692061267153
:10394000A67066702770296AA160E0602878401C24
:10395000C0B22870032807D305F1740007704670C1
:10396000867041600F480770BDE8F08127712261C1
:10397000A670FFF787FFBDE8F0410BA004F0DCBAAA
:103980004492002028030020001801406869333564
:10399000363820505752207374617274202D322DA6
:1039A0000D0A000098010020686933353638205030
:1039B0005752207374617274202D312D0D0A00004E
:1039C00008B50121092000F0CFFE0121082000F0F8
:1039D000CBFEC020ADF8000003208DF802001420BB
:1039E0008DF8030069460248FFF7BCFE08BD0000E1
:1039F000000C014070B5084C4025256002F014FA17
:103A00008020206002200AF02BFB201F056002208E
:103A10000AF026FB256070BD140C014070B5084DFE
:103A200040242C6002F000FA80202A1F106002203F
:103A30000AF016FB146002200AF012FB2C6070BD25
:103A4000140C01402DE9FF5F82460E9C8B46154603
:103A50001E46DFF8F880DFF8F8903E4F002C16D0B5
:103A600000F00CF9504600F0E1F8012822D0584649
:103A700000F0DCF8012831D000F000F94AF0010034
:103A800000F0D4F801283DD00024761E54E098F8C8
:103A9000000002280AD3C721CDE900912EA0029090
:103AA0003B7C2FA12FA07A6903F094FE012004B083
:103AB000BDE8F09F00F0F8F898F8000002280BD35A
:103AC00025A0CF21CDE90091CDE902403B7C24A186
:103AD0002AA07A6903F07EFE0120E8E700F0E4F80E
:103AE00098F8000002280BD31BA0D421CDE9009147
:103AF000CDE902403B7C1AA127A07A6903F06AFE57
:103B00000120D4E700F0D0F898F8000002280BD389
:103B100011A0DA21CDE90091CDE902403B7C10A152
:103B200024A07A6903F056FE0120C0E7012000F0CE
:103B30004FF82855641CE4B2B442F7DB002000F0D3
:103B400047F8285500F0B0F80020B0E7D302002075
:103B500058730308987303081B5B306D0000000066
:103B60001B5B0000257325735B25635D5B25732C50
:103B70002025645D3A203025730D0A0025732573D6
:103B80005B25635D5B25732C2025645D3A20312C19
:103B900020257325730D0A00257325735B25635D4E
:103BA0005B25732C2025645D3A20322C202573255B
:103BB000730D0A00257325735B25635D5B25732CEC
:103BC0002025645D3A20332C20257325730D0A00CF
:103BD0002DE9F0410646002402F014F90022124DAE
:103BE000DFF8448040232F1FA8F10C082B6002202F
:103BF0000AF036FA3B606006040ED8F800000006B2
:103C000001D5641CE4B201200AF02AFA521CD2B297
:103C1000082AEBD326B1FFF7EDFE2046BDE8F08180
:103C2000FFF7FCFEF9E70000140C01402DE9F0411C
:103C3000044602F0F9F8104F40233B600022802533
:103C40003E1F200601D5356000E03D606006040E91
:103C500002200AF005FA336002200AF001FA3B6004
:103C600002200AF0FDF9521CD2B2082AE9D3BDE8BD
:103C7000F04100F02FB80000140C014010B502F024
:103C8000D3F80848802202604023036004200AF031
:103C9000E7F9044C241D226004200AF0E1F92360B6
:103CA00010BD0000100C014010B502F0BDF808482E
:103CB000402303608022026004200AF0D1F9044806
:103CC000001F03600260BDE8104004200AF0C8B97C
:103CD000140C014010B5002402F094F80E4A802024
:103CE000106001200AF0BCF94023136001200AF0A3
:103CF000B7F90948083807E0641CE4B2FA2C03D984
:103D0000FFF7D2FF012010BD01680906F4D4024874
:103D1000001D0360002010BD100C01402DE9FF5F65
:103D200004460E9D8B4691469A46364FDFF8D88062
:103D3000364E002D0DD0FFF7A1FF2046FFF776FF8E
:103D4000012818D05846FFF771FF012826D000241B
:103D50003FE0387802280AD3AA21CDE900812CA0BF
:103D60000290337C2CA12DA0726903F033FD012059
:103D700004B0BDE8F09FFFF797FF387802280BD317
:103D800023A0B221CDE90081CDE90250337C22A1EC
:103D900028A0726903F01EFD0120E9E7FFF784FF08
:103DA000387802280BD31AA0B721CDE90081CDE9DC
:103DB0000250337C18A126A0726903F00BFD01208C
:103DC000D6E719F80400FFF731FF012807D0641C7B
:103DD000E4B25445F5D3FFF767FF0020C8E7FFF7CB
:103DE00063FF387802280BD309A0BD21CDE90081FB
:103DF000CDE90250337C08A11CA0726903F0EAFCF3
:103E00000120B5E7D30200204E730308987303081E
:103E10001B5B306D000000001B5B000025732573E9
:103E20005B25635D5B25732C2025645D3A2030257E
:103E3000730D0A00257325735B25635D5B25732C69
:103E40002025645D3A20312C20257325730D0A004E
:103E5000257325735B25635D5B25732C2025645DCD
:103E60003A20322C20257325730D0A002573257303
:103E70005B25635D5B25732C2025645D3A20332C24
:103E800020257325730D0A0008B52020ADF8000029
:103E900002208DF8020048208DF803006946024890
:103EA000FFF760FC08BD00000010014008B580204D
:103EB000ADF8000002208DF8020048208DF80300C4
:103EC00069460248FFF74EFC08BD000000100140A3
:103ED00008B54FF40050ADF8000002208DF8020044
:103EE00048208DF8030069460148FFF73BFC08BDF8
:103EF0000018014002494AF6AA20086070470000F5
:103F000000300040054A4FF40051012802D010460D
:103F1000FFF7B8BC1046FFF7B7BC00000014014023
:103F200070B588B0254E3046FEF7D8FB05A8FEF7E1
:103F30008EFD00248DF81A4001258DF81B50079442
:103F40008DF816408DF8174004208DF818000520D4
:103F50008DF819000620ADF8140005A93046FEF7CB
:103F6000B3FC8DF80E508DF80F408DF81050ADF861
:103F70000440ADF80640ADF80840ADF80A40ADF891
:103F80000C408DF8115001A8FEF7C4FB01220E2150
:103F90003046FEF78FFC03220021094803F0E9FBBD
:103FA0004FF4D2720021074803F0E3FB7022002196
:103FB000054803F0DEFB08B070BD0000006400405F
:103FC00078010020EA2C00208E2E002070B588B0E9
:103FD000254E3046FEF782FB05A8FEF738FD00248B
:103FE0008DF81A4001258DF81B5007948DF8164066
:103FF0008DF8174004208DF8180005208DF8190061
:104000000620ADF8140005A93046FEF75DFC0E2031
:104010008DF80E008DF80F408DF81050ADF804406B
:10402000ADF80640ADF80840ADF80A40ADF80C40D8
:104030008DF8115001A8FEF76DFB01220E213046CC
:10404000FEF738FC03220021084803F092FB4FF4EE
:10405000D2720021064803F08CFB70220021054833
:1040600003F087FB08B070BD0068004078010020B5
:10407000EA2C00208E2E00202DE9F04100210022A4
:104080002548264E0088338AC01A80B20D280CD9E4
:104090002348244F0023408E3D78B0F52A7F25F039
:1040A000800404D2337273723C70BDE8F0815FEA21
:1040B000056C0BD4B0F57F7F01D2012112E0A0F294
:1040C000A560B0F5C57F0DD801210BE0A0F2FD3C45
:1040D00040F22F28C44501D2012203E0B0F5036F5E
:1040E00000D30122012907D0012ADED1707A0228EB
:1040F0000ED973723C70D8E7307A0F2804D333722C
:1041000045F080003870D0E7401C30727372CCE705
:104110003372401C7072C8E7440300200401002081
:1041200094910020880300200D2017F0A7F8FEE7E7
:104130002DE9FE4F59480078002862D10CF0C2FAF0
:1041400040B2564CDFF85881DFF85891564E0027A0
:10415000DFF858A1743C564D4FF0010B002842DDAA
:104160009AF80B10814224DA0CF000FA00283ADDAC
:1041700004F164010978C90735D0DAF80C10E26956
:10418000511A81422FD398F8000002280BD340F235
:10419000B961CDE9009147A00290337C47A148A0C6
:1041A000726903F017FB9AF80B00401C8AF80B00A9
:1041B00037E018D198F8000002280BD34FF4D861EB
:1041C000CDE900913BA00290337C3CA14AA07269EA
:1041D00003F000FB6F7085F800B0AF709AF80B0029
:1041E000401C8AF80B00687868B12F7014220021F7
:1041F0002F4803F0BEFA85F802B0E069E860EF707E
:104200002770BDE8FE8F254810380078C007F8D029
:10421000FFF774FB287848B1A868216A081AC828F3
:10422000EFD9E07B30B101281AD033E0206AA860D2
:10423000E773E6E725F084FD98F8000005280CD325
:1042400040F2E761CDE900911AA0029096F828307B
:104250001AA135A0F26A03F0BDFA84F80FB019E094
:1042600098F8000005280CD340F2EA61CDE90091EE
:1042700010A0029096F8283010A136A0F26A03F040
:10428000A9FA2F70206AA860E069CAF80C0025F02E
:104290006BFDE773206AA860B3E700009C03002071
:1042A000D30200201F770308987303089645002067
:1042B000449200201B5B306D000000001B5B00007F
:1042C000257325735B25635D5B25732C2025645D59
:1042D0003A202D2D4D435520CEE5B7D6D6D3CEB4BA
:1042E000CAD5B5BD524BD0C4CCF8D6D8C6F4524BC3
:1042F0002D2D25730D0A0000257325735B25635D45
:104300005B25732C2025645D3A20524BCEDEB7A886
:10431000C6F4B6AF4D4355BDD3B9DC3447C4A3BFD3
:10432000E925730D0A000000257325735B25635D85
:104330005B25732C2025645D3A2052535420686914
:1043400033353230207374617274202D342D25730F
:104350000D0A0000257325735B25635D5B25732CB7
:104360002025645D3A205253542068693335323039
:10437000207374617274202D332D25730D0A000093
:104380007047F8B500214FF0006000F0E1F84FF4FD
:10439000A06000F0D3F825208DF8000000258DF8EE
:1043A000015003268DF8026001248DF80340684611
:1043B00000F092F826208DF800008DF801408DF86D
:1043C00002508DF80340684600F086F827208DF8EB
:1043D00000008DF801408DF802408DF803406846DA
:1043E00000F07AF834208DF800008DF801400227A3
:1043F0008DF802708DF80340684600F06DF83520A6
:104400008DF800008DF801408DF802608DF80340B2
:10441000684600F061F828208DF800008DF80170E2
:104420008DF802508DF80340684600F055F81C20C6
:104430008DF800008DF801508DF802408DF8034092
:10444000684600F049F81E208DF800008DF80160E4
:104450008DF802408DF80340684600F03DF83620A4
:104460008DF800008DF801508DF802408DF8034062
:10447000684600F031F814208DF800008DF80150E6
:104480008DF802508DF80340684600F025F813209F
:104490008DF800008DF801508DF802508DF8034022
:1044A000684600F019F816208DF800008DF80150CC
:1044B0008DF802508DF80340684600F00DF840205A
:1044C0008DF800008DF801508DF802508DF80340F2
:1044D000684600F001F8F8BD70B50F23C2780126D8
:1044E0000178002A1ED0144A126802F4E062C2F574
:1044F000E062120AC2F10404D3404578A5408278F4
:104500001A402A43120101F1E02181F800240078C9
:1045100000F01F018E404009800000F1E020C0F84B
:10452000006170BD01F01F0086404809800000F165
:10453000E020C0F8806170BD0CED00E00249084346
:1045400002490860704700000000FA050CED00E029
:10455000024A1140014302480160704780FFFF1F7B
:1045600008ED00E07047000010B525F0C1FB4FF4E6
:1045700080510C48FFF788F94FF480410A48FFF753
:1045800083F90AA101201FF0A3FE0B4C0220E07466
:104590000AA003F0D1FC012020740F49002008700C
:1045A00010BD000000140140001801404F20457864
:1045B0007420507772000000280300202323232357
:1045C000204F70656E5F45787465726E5F507772CC
:1045D00020232323230D0A00CA010020FEB54FF437
:1045E00080412948FFF750F909F04EFD25F080FB86
:1045F00009F04AFD02212548FFF746F9244C4FF403
:1046000080512046FFF740F909F03EFD09F03CFDDE
:1046100002212046FFF738F909F036FD04211D4834
:10462000FFF732F909F030FD09F02EFD1A4EF07C4B
:1046300018B90121002016F065FA0220F074174C19
:104640000025A5701648017841F0010101706570E0
:104650001448007804280ED313A040F2DF21144A36
:10466000CDE900210290134813A190F82030426A4E
:1046700012A003F0AFF8306AA060012020703074FF
:104680001B480570FEBD00000018014000080140F5
:1046900000140140000C0140280300204492002037
:1046A0001C010020D30200201B5B306D00000000C5
:1046B000A8760308987303081B5B00002573257315
:1046C0005B25635D5B25732C2025645D3A205F5F6D
:1046D0005F206D6375206F70656E20616C6C20705B
:1046E0006F776572205F5F5F25730D0A0000000021
:1046F000CA0100200020401CC0B2FA28FBD370473A
:10470000034A516821F44041014351607047000061
:1047100000100240054A002903D05169014351614C
:104720007047516981435161704700000010024099
:10473000054A002903D0D1690143D1617047D1698D
:104740008143D1617047000000100240054A0029F2
:1047500003D01169014311617047116981431161EF
:104760007047000000100240054A002903D09169FB
:1047700001439161704791698143916170470000E5
:1047800000100240054A002903D0D1680143D160DE
:104790007047D1688143D16070470000001002402B
:1047A00010B500F059F84FF48034204600F012F9AB
:1047B00000F082F925494870012837D11020FEF712
:1047C000DDFE0220FEF72EFF402000F061F94FF4DD
:1047D000C06000F035F9012000F02CF93B2000F01A
:1047E000CFF80028FAD00421204600F043F94FF416
:1047F000E011204600F034F9012000F02BF90020F0
:1048000000F0DEF84FF4A064204600F009F92046DD
:1048100000F0FCF8392000F0B3F80028FAD00220AC
:1048200000F040F900F0C4F80828FBD10121084845
:10483000FFF77EFF012145F27D20FFF795FFBDE8E0
:10484000104001210348FEF7E1BF0000C90200202B
:1048500017001E06000230000F48016841F00101F8
:10486000016041680D4A1140416001680C4A1140E5
:104870000160016821F480210160416821F4FE019A
:104880004160016821F0A05101604FF47F01816017
:104890000021C16270470000001002400000FFF0DC
:1048A000FFFFF6FE70B5314B596801F00C01304A3C
:1048B000002928D02F4C042927D0082927D00260AE
:1048C000596801F0F00109092B4A545C0168E14084
:1048D00041605C6804F4E064240A145D21FA04F485
:1048E00084605C6804F46054E40A125DD140C160E5
:1048F0005A6802F44042920B1F4B1B1F9A5CB1FB9B
:10490000F2F1016170BD0260DAE70460D8E759682E
:1049100001F470115A6802F48032890C0D2901D01B
:10492000891C00E00621BAB1DA6A02F48035DA6A3D
:1049300002F00F02521C9DB1DD6AC5F303156D1C18
:10494000DE6AC6F30326B61CB4FBF5F47443B4FB6D
:10495000F2F24A430260B3E7084A51430160AFE70D
:10496000B4FBF2F24A430260AAE7000000100240E2
:1049700000127A0040787D010400002000093D000B
:10498000034600205909094A01290AD002290AD000
:10499000516A03F01F02012393400B4200D0012013
:1049A00070471168F5E7116AF3E700000010024054
:1049B0000248406800F00C00704700000010024000
:1049C000034A516821F0F001014351607047000033
:1049D000001002400C490A6822F480320A600A681A
:1049E00022F480220A60B0F5803F07D0B0F5802F16
:1049F00003D1086840F4A02008607047086840F4BC
:104A0000803008607047000000100240034A51687F
:104A100021F4E06101435160704700000010024042
:104A2000034A516821F4605141EAC0005060704768
:104A300000100240014988667047000000004242B1
:104A4000034AD16A21F470610143D16270470000CA
:104A50000010024001490866704700000000424211
:104A6000034B5A6822F4741208431043586070478D
:104A70000010024010B5044BDA6A044C224008438F
:104A80001043D86210BD000000100240F0FFFEFF8E
:104A9000034AD16A21F0F0010143D162704700005E
:104AA00000100240034A516821F0030101435160A4
:104AB000704700000010024018B5002000904FF62B
:104AC000FF743120FFF75CFF0099491C00910099A9
:104AD000A14201D00028F4D03120FFF751FF08B1E6
:104AE000012018BD002018BD3FB59DF805509DF868
:104AF00006409DF807109DF80820002B0ED112B13A
:104B0000521ED2B20AE0012902D9491EC9B204E0FC
:104B1000012C01D9641EE4B217213B228DF8071045
:104B20008DF806408DF805508DF808200199016038
:104B3000BDF8081081803FBD25F0BAB910B5124804
:104B400081884FF4A5725143090B4FF46F725143A2
:104B50002F22B1FBF2F3811D8B8043884FF4A574A3
:104B600063431B0B4FF46F746343B3FBF2F34B804F
:104B700000884FF4A5735843000B23465843B0FBFD
:104B8000F2F080B2088010BDA80200202DE9F04F9D
:104B9000DBB00E461446F822002103A802F0E9FD1E
:104BA000DFF8D0A2DFF8D0B2DFF8D0921EB114B196
:104BB000B4F5007F14D99AF8000005280CD35821C9
:104BC000CDE900B1AEA0029099F82830AEA1AFA017
:104BD000D9F82C2002F0FEFD00205BB0BDE8F08F7C
:104BE0003B22214630460CF019FA0938022812D32C
:104BF0009AF8000005280CD36021CDE900B1A0A0EF
:104C0000029099F82830A0A1ABA0D9F82C2002F08E
:104C1000E1FD0020E1E7214602E0761C491E89B251
:104C200030783B2802D009B1A142F6D9761C491E42
:104C300089B202E0761C491E89B230783B2802D046
:104C400009B1A142F6D9761C491E88B202E0761C51
:104C5000401E80B231783B2902D008B1A042F6D97B
:104C6000761C401E80B202E0761C401E80B2317875
:104C70003B2902D008B1A042F6D9761C401E81B271
:104C80000DF1C2005A9004E000F8012B761C491E79
:104C900089B232783B2A02D009B1A142F4D9761CFC
:104CA000491E8DB26422002141A802F062FD41A894
:104CB00004E000F8011B761C6D1EADB231783B2973
:104CC00002D00DB1A542F4D9761C6D1EADB241A83B
:104CD00003F0BFF9C0B2401E042809D841A8FBF771
:104CE00053FC3A909DF8250040F004008DF8250013
:104CF0006422002141A802F03CFD41A804E000F834
:104D0000011B761C6D1EADB231783B2902D00DB16E
:104D1000A542F4D9761C6D1EADB241A803F099F9F5
:104D2000C0B29DF8251049070CD4401E042809D8AC
:104D300041A8FBF729FC3A909DF8250000F0FB0004
:104D40008DF8250000275A9803F083F9C0B2401F60
:104D5000122800D301273A9800B90127DFF884818F
:104D6000390008F1B60714D018220021384602F0A5
:104D700000FD0F225CA1384602F0CCFC42F2283044
:104D8000C8F8DC0098F8190040F0040088F8190011
:104D90001FE018220021384602F0EBFC18223846AA
:104DA0005A9902F0B7FC3A98C8F8DC009DF8250043
:104DB000400704D598F8190040F0040003E098F883
:104DC000190000F0FB0088F8190002E0761C6D1E47
:104DD000ADB230783B2802D00DB1A542F6D9761C91
:104DE0006D1EA8B202E0761C401E80B231783B29CD
:104DF00002D008B1A042F6D9761C401E85B26422CA
:104E0000002141A802F0B5FC41A804E000F8011B14
:104E1000761C6D1EADB231783B2902D00DB1A54292
:104E2000F4D941A803F015F9C2B2B2B1A2F1180049
:104E3000072814D39AF8000005280CD3E621CDE901
:104E400000B10FA0029099F828300FA12AA0D9F83C
:104E50002C2002F0BFFC0020BFE60220BDE641A9E5
:104E6000012007F025FE012801D00020B5E6012031
:104E7000B3E60000D30200205E62030898730308C3
:104E80001B5B306D000000001B5B00002573257369
:104E90005B25635D5B25732C2025645D3A205550AE
:104EA00041474544455F4552523A2076616C7565ED
:104EB00025730D0A00000000257325735B25635DD3
:104EC0005B25732C2025645D3A20555041474544AD
:104ED000455F4552523A20464C414720434E5425A7
:104EE000730D0A00F00B00203230332E3038362E8E
:104EF0003030382E30303500257325735B25635DE7
:104F00005B25732C2025645D3A206F74615F6572A8
:104F1000723A307838313035206E616D65206C65BD
:104F20006E25730D0A0000002DE9F0410846C61CED
:104F30008478642C03D8164DE88BA04204D2BDE8D7
:104F4000F04101201CF07CBAC4B14FF44C27384624
:104F500028F02AFD62003946304628F083FD012002
:104F6000353505F8010C2C80002068800948008840
:104F7000A880BDE8F04100201CF062BA3B2200216D
:104F8000034802F0F6FBBDE8F04100201CF058BADF
:104F90009C130020440300203EB5114C20780028CB
:104FA0001DD1104861680068401A022817D90120F5
:104FB000207024F0D9FE0C48007805280DD30BA0F2
:104FC00081210C4ACDE9002102900B480BA190F8F9
:104FD0002830C26A0AA002F0FDFB002060603EBDDE
:104FE0001400002044030020D30200201B5B306D1E
:104FF000000000007D5F0308987303081B5B00003E
:10500000257325735B25635D5B25732C2025645D0B
:105010003A2072737425730D0A0000002DE9F14FD8
:10502000ADF5016DF74D95F80090B9F1020F02D082
:10503000B9F1100F22D1F54F2A7CDFF8CCB39DF8DF
:1050400010180126F24B38684FF0000A002A6AD087
:105050009BF80920012A15D0D5F8111040F6C4128A
:10506000411A91420AD92E74C5F8110033F8020B87
:105070000090EA780021022022F0B2FB0DF6140D18
:10508000BDE8F08F85F810A0DE4C9BF80A80DFF8B1
:1050900084E3A288E488521E04F1010C1FFA8CFC00
:1050A000B8F1000F1CD0082970D3944273DB152986
:1050B00053D015220021D34802F05BFB9DF8100865
:1050C000092865D0401CE870102028706E708BF89D
:1050D00008608BF80A6085F810A0C5F811A0CDE72C
:1050E000082921D3944218DBCB4806708EF800A023
:1050F000CA480670CA4880F800A08BF800A08BF858
:1051000001A08BF802A015220021BE4802F031FB5D
:105110008BF809A08BF808A0B0E7A5F806C085F8C1
:1051200010A0C5F811A03CE0BB4806708EF800A0A6
:10513000BA480670BA4880F800A08BF800A08BF837
:1051400001A08BF802A015220021AE4802F011FB4D
:105150008BF809A08BF808A090E7AF4806708EF88E
:1051600000A0AE480670AE4880F800A08BF800A002
:105170008BF801A08BF802A015220021A14802F0B3
:10518000F8FA8BF809A08BF808A077E71FE002E097
:105190001020E87098E7A5F806C085F810A0C5F8BB
:1051A00011A09B4C40F22232A41CA4F13D08162908
:1051B00095D2DFE801F01F1F1F1F1F1F1F1F36D3CF
:1051C0000B0B0B0B0B0BFEFDFCFBFAF956E7152244
:1051D00000218C4802F0CDFA9DF81008401CE870C0
:1051E000102028706E708BF809608BF808608BF8BF
:1051F0000A6043E78BF80060874A82F800A0B9F1A3
:10520000020F01D010222A702E74C5F81100A5F8E3
:1052100006A0AE8001230DF5016202201FF0B8FE4A
:105220002CE74FF000097A48A0F800A07D48838859
:105230000089834233D1764B0A469B1C0021022011
:10524000CDF800A022F0CCFA77480078052810D3DA
:10525000E87876A2CDE9020241F29C337549CDE9A6
:105260000013754875A190F82830C26A74A002F046
:10527000B1FA9BF80A0060B1A5F804A0A5F806A051
:10528000A5F80AA0A5F80CA02E743868C5F811007E
:10529000F4E6152200215B4802F06BFAEEE60021ED
:1052A0005B4802F066FAA888D8B9042129815D48D4
:1052B000828803899A4201D3D01A02E0D01A00F6FC
:1052C000B83080B2B0FBF1FC01FB1C0CBCF1000F4C
:1052D0000AD0B0FBF1F0401CA880A5F806A06A81B6
:1052E000AB81DFF82CA11EE0B0FBF1F0A880F4E761
:1052F0006889A989884219D0092188F81410BAF858
:10530000001021441FF02AFCBAF800100844AAF843
:10531000000069890122092008F0E7FD688109F190
:10532000010909F0FF0928894845E1D82E74386839
:10533000C5F81100BAF800104FF44870814201D34B
:10534000AAF80000BAF8000000900AF102039DF8E4
:1053500010280021022022F043FA8FE64FF00009C6
:105360002B48A0F800A041488388008983423AD1A5
:10537000274B0A469B1C00210220CDF800A022F0FA
:105380002FFA29480078052817D3E87827A2CDE915
:10539000020241F2EA332749CDE90013264827A14A
:1053A00090F82830C26A05E0EFE34CE395E2F2E1C1
:1053B0004EE1ACE022A002F00DFA9BF80A0060B1C9
:1053C000A5F804A0A5F806A0A5F80AA0A5F80CA0C9
:1053D0002E743868C5F8110050E6152200210948DE
:1053E00002F0C7F94AE60021094802F0C2F9A8888C
:1053F00038B92E811D4881880289914238D3881A94
:1054000039E047E02017002096450020480300209F
:10541000D71300201A040020C80200201B0400201B
:10542000F800002000100020D30200201B5B306D2C
:105430000000000030670308987303081B5B00003E
:10544000257325735B25635D5B25732C2025645DC7
:105450003A20CEDEBCC7C2BC20636D64203D203044
:10546000782530325825730D0A000000EA0F00201D
:10547000881A00F5BD7080B2B446B0FBFCF306FBA1
:10548000130353B1B0FBF6F0401CA880A5F806A0AA
:105490006981AA81DFF874A41EE0B0FBF6F0A88051
:1054A000F4E76889A989884219D00A2188F814107C
:1054B000BAF8001021441FF051FBBAF8001008445C
:1054C000AAF80000698901220A2008F00EFD68810F
:1054D00009F1010909F0FF0928894845E1D82E742E
:1054E0003868C5F81100BAF800104FF448708142CE
:1054F00001D3AAF80000BAF8000000900AF10203F4
:105500009DF810280021022022F06AF9B6E54FF03C
:105510000009FE48A0F800A0FD488388C0888342A7
:1055200036D1FA4B0A469B1C00210220CDF800A080
:1055300022F056F9F7480078052813D3AFF2141279
:10554000E878CDE9020241F23443F349CDE9001392
:10555000F24890F82830AFF21C11C26AAFF2201066
:1055600002F038F99BF80A0060B1A5F804A0A5F88C
:1055700006A0A5F80AA0A5F80CA02E743868C5F8F6
:1055800011007BE515220021E54802F0F2F875E5EF
:105590000021DE4802F0EDF8A888D0B90221298167
:1055A000DB488288C3889A4201D3D01A01E0D01A1E
:1055B000A03080B2B0FBF1FC01FB1C0CBCF1000F71
:1055C0000AD0B0FBF1F0401CA880A5F806A06A81C3
:1055D000AB81DFF838A320E0B0FBF1F0A880F4E75E
:1055E0006889A98988421BD00B2188F81410BAF861
:1055F0000010401E214480B21FF0B0FABAF800102B
:105600000844AAF80000698901220B2008F06DFC0B
:10561000688109F1010909F0FF0928894845DFD8A7
:105620002E743868C5F81100BAF800104FF44870AD
:10563000814201D3AAF80000BAF8000000900AF1F4
:1056400002039DF810280021022022F0C9F815E578
:105650004FF00009AD48A0F800A0B2488388C08888
:10566000834236D1A94B0A469B1C00210220CDF86B
:1056700000A022F0B5F8A7480078052813D3AFF2B0
:105680005422E97841F27F43CDE90131A2480090EC
:10569000A248039290F82830AFF26021C26AAFF2BC
:1056A000602002F097F89BF80A0060B1A5F804A00A
:1056B000A5F806A0A5F80AA0A5F80CA02E743868D5
:1056C000C5F81100DAE415220021954802F051F8DE
:1056D000D4E400218D4802F04CF8A8884FF00C0B60
:1056E000D8B95846A5F808B08E498A88CB889A421E
:1056F00001D3D11A01E0D11AB43189B2B1FBF0FC67
:1057000000FB1C1CBCF1000F0AD0B1FBF0F0401CE8
:10571000A880A5F806A06A81AB81DFF8F0A11FE0A0
:10572000B1FBF0F0A880F4E76889A98988421AD013
:1057300088F814B0BAF80010401E214480B21FF05F
:105740000DFABAF800100844AAF80000698901228D
:105750000C2008F0CAFB688109F1010909F0FF0972
:1057600028894845E0D82E743868C5F81100BAF881
:1057700000104FF44870814201D3AAF80000BAF833
:10578000000000900AF102039DF810280021022079
:1057900022F026F872E44FF000095C48A0F800A05F
:1057A00061488388C088834236D1584B0A469B1C87
:1057B00000210220CDF800A022F012F85548007810
:1057C000052813D3AFF29C32E878CDE9020241F20A
:1057D000CA435149CDE90013504890F82830AFF240
:1057E000A431C26AAFF2A83001F0F4FF9BF80A00BE
:1057F00060B1A5F804A0A5F806A0A5F80AA0A5F830
:105800000CA02E743868C5F8110037E41522002169
:10581000434801F0AEFF31E400213C4801F0A9FF0C
:10582000A888D8B9142129813F488288C3889A4220
:1058300001D3D01A02E0D01A00F5967080B2B0FB06
:10584000F1FC01FB1C0CBCF1000F0AD0B0FBF1F025
:10585000401CA880A5F806A06A81AB81DFF8ACA047
:1058600020E0B0FBF1F0A880F4E76889A9898842BC
:105870001BD00D2188F81410BAF80010401E2144E6
:1058800080B21FF06BF9BAF800100844AAF80000C3
:10589000698901220D2008F028FB688109F10109BE
:1058A00009F0FF0928894845DFD82E743868C5F803
:1058B0001100BAF800104FF44870814201D3AAF8E1
:1058C0000000BAF8000000900AF102039DF81028C9
:1058D0000021022021F084FF1EE44FF000090B4854
:1058E000A0F800A011488388C08883424AD1074BA2
:1058F0000A469B1C00210220CDF800A021F070FF79
:1059000004480078052827D312E00000D7130020B0
:1059100016100020D3020020306703089873030894
:10592000201700204E110020901100209A11002015
:10593000AFF20852E878CDE9020241F21553FD4971
:10594000CDE90013FC4890F82830AFF21051C26A3C
:10595000AFF2145001F03EFF9BF80A0060B1A5F8C9
:1059600004A0A5F806A0A5F80AA0A5F80CA02E741E
:105970003868C5F8110008E415220021EF4801F04D
:10598000F8FE36E40021EE4801F0F3FEA888D8B90D
:1059900050202881EB498A88CB889A4201D3D11ABA
:1059A00002E0D11A01F5967189B2B1FBF0FC00FB5F
:1059B0001C1CBCF1000F0AD0B1FBF0F0401CA88009
:1059C000A5F806A06A81AB81DFF874A320E0B1FBE3
:1059D000F0F0A880F4E76889A98988421BD00E21DD
:1059E00088F81410BAF80010401E214480B21FF04D
:1059F000B5F8BAF800100844AAF800006989012235
:105A00000E2008F072FA688109F1010909F0FF0916
:105A100028894845DFD82E743868C5F81100BAF8CF
:105A200000104FF44870814201D3AAF80000BAF880
:105A3000000000900AF102039DF8102800210220C6
:105A400021F0CEFE24E44FF00009BD48A0F800A0EC
:105A5000BD488388C088834236D1B94B0A469B1C17
:105A600000210220CDF800A021F0BAFEB74800784E
:105A7000052813D3AFF24C62E9784FF4AB53CDE96C
:105A80000131AC480090AC48039290F82830AFF256
:105A90005461C26AAFF2586001F09CFE9BF80A00A4
:105AA00060B1A5F804A0A5F806A0A5F80AA0A5F87D
:105AB0000CA02E743868C5F811004EE415220021A0
:105AC0009E4801F056FE48E400219D4801F051FE39
:105AD000A888D8B9502028819B498A88CB889A42C7
